:020000040800F2
:10000000000002205538000805070008070700080F
:10001000090700080B0700080D0700080000000092
:100020000000000000000000000000000F070008B2
:10003000110700080000000013070008150700085A
:10004000A9380008A9380008A9380008A93800080C
:10005000A9380008A9380008A9380008A9380008FC
:10006000A9380008A9380008A9380008A9380008EC
:10007000A9380008A9380008A9380008A9380008DC
:10008000A9380008A9380008A9380008A9380008CC
:10009000A9380008A9380008A9380008A9380008BC
:1000A000A9380008A9380008A9380008A9380008AC
:1000B000A9380008A9380008A9380008A93800089C
:1000C000A9380008A9380008A9380008A93800088C
:1000D000A9380008A9380008A9380008A93800087C
:1000E0001D070008A938000800000000A938000812
:1000F000A9380008A9380008A9380008A93800085C
:10010000A9380008A9380008A9380008A93800084B
:10011000A9380008A9380008A9380008A93800083B
:10012000A9380008A9380008A9380008A93800082B
:10013000A9380008A9380008A9380008A93800081B
:10014000A9380008A93800080000000000000000DD
:10015000A9380008A9380008A9380008A9380008FB
:10016000A9380008A9380008A9380008A9380008EB
:10017000A9380008A9380008A9380008A9380008DB
:10018000A9380008A9380008A9380008A9380008CB
:10019000A9380008A9380008A9380008A9380008BB
:1001A000A9380008A9380008A9380008A9380008AB
:1001B000A9380008A9380008A9380008A93800089B
:1001C000A9380008A9380008A9380008A93800088B
:1001D000A9380008A9380008A9380008A93800087B
:1001E000A9380008A9380008A9380008A93800086B
:1001F000A9380008A9380008A9380008A93800085B
:10020000A9380008A9380008A9380008A93800084A
:10021000A9380008A9380008A9380008A93800083A
:10022000A9380008A9380008A93800080000000013
:10023000A9380008A9380008A9380008A93800081A
:10024000A9380008A9380008A9380008A93800080A
:10025000A9380008A9380008A9380008A9380008FA
:10026000A9380008A9380008A9380008A9380008EA
:10027000A9380008A9380008A9380008A9380008DA
:10028000A9380008A9380008A938000800000000B3
:08029000A9380008A938000894
:1002980053B94AB9002908BF00281CBF4FF0FF31E5
:1002A8004FF0FF3000F00CB8ADF1080C6DE904CE4A
:1002B80003F024FBDDF804E0DDE9022304B0704715
:1002C800704700BF10B5054C237833B9044B13B100
:1002D8000448AFF300800123237010BD14000020F0
:1002E80000000000C03B000808B5034B1BB10349E0
:1002F8000348AFF3008008BD00000000180000208C
:10030800C03B00082DE9F04F8BB005AD00240594E3
:100318000694079408940994604BD3F8E02042F0BF
:100328000402C3F8E020D3F8E02002F004020092AF
:10033800009AD3F8E02042F00102C3F8E020D3F895
:10034800E02002F001020192019AD3F8E02042F085
:100358000202C3F8E020D3F8E02002F00202029281
:10036800029AD3F8E02042F00802C3F8E020D3F85C
:10037800E02002F008020392039AD3F8E02042F04A
:100388004002C3F8E020D3F8E03003F040030493C0
:10039800049BDFF818B1224640F2FF41584602F0AC
:1003A80045FBDFF80CA122464FF47071504602F06D
:1003B8003DFB3B4F22464FF48041384602F036FB66
:1003C8003223059302260696079408964FF00B08E9
:1003D800CDF824802946504602F018FA8623059362
:1003E800069607940896CDF8248029462D4802F0F1
:1003F8000DFA4FF400530593069607940896CDF826
:1004080024802946284802F001FA40F2FF43059368
:100418004FF00109CDF818900794089429465846DA
:1004280002F0F4F9802305934FF488130693079498
:100438002946384602F0EAF94FF470730593CDF86F
:100448001890079408942946504602F0DFF94FF4B3
:10045800C85305930696079408940A2309932946D6
:10046800104802F0D3F94FF42053059306960794E9
:100478000896CDF824802946384602F0C7F94FF48B
:1004880080430593CDF81890079408942946384678
:1004980002F0BCF90BB0BDE8F08F00BF0044025871
:1004A800001802580000025800040258000C0258B4
:1004B8000008025872B6024B4FF480429A61FEE778
:1004C8000018025808B51348134B03604FF4800313
:1004D8004360002383600322C260036143614FF0DD
:1004E80080628261C361036243628362C3624FF0C8
:1004F800804242638363C363036443648364C36465
:1005080003654365836502F09BFB00B908BDFFF7EF
:10051800D1FF00BF300000200030014000B59DB081
:100528004C22002109A803F0BCF92022002101A8CF
:1005380003F0B7F9042002F07FFA00230093254B5B
:10054800DA6A22F00102DA62DB6A03F0010300933F
:10055800214A936923F4404343F400439361936928
:1005680003F440430093009B1B4B9B6913F4005F0B
:10057800FAD00223099301220C9240220D92129381
:1005880000221392042114911E211591169305211E
:10059800179118930C2319931A921B9209A800F02B
:1005A800DBFA98B93F2301930323029300230393B3
:1005B800082204920593069307930893022101A841
:1005C80000F01EFF20B91DB05DF804FBFFF772FFB5
:1005D800FFF770FF000400580048025838B502F0D1
:1005E8009DFAFFF79BFFFFF78DFEFFF76BFF0020DB
:1005F80000F054F9012000F051F9022000F04EF902
:100608000121002000F09CF939494FF4E1330B60D7
:100618000020486008814881888100F0FFF908B10E
:10062800FFF748FF334C4FF48003A361142002F016
:10063800B5FA4023A361962002F0B0FA012003F036
:10064800D1F8962002F0AAFA112003F0CBF89620F0
:1006580002F0A4FA362003F0C5F8482003F0DCF8CD
:10066800962002F09BFA3A2003F0BCF8552003F0DC
:10067800D3F8322002F092FA292003F0B3F832209E
:1006880002F08CFA132003F0ADF8322002F086FA5B
:100698002A2003F0A7F8002003F0BEF8002003F09A
:1006A800BBF8002003F0B8F8EF2003F0B5F82B20D2
:1006B80003F098F8002003F0AFF8002003F0ACF83E
:1006C800012003F0A9F83F2003F0A6F82C2003F03E
:1006D80089F8002408E0084D285D03F09DF8631CA4
:1006E800E85C03F099F80234B4F5E13FF3D3FEE790
:1006F800B800002000080258143C0008FEE7FEE796
:10070800FEE7FEE7FEE770477047704708B502F05E
:1007180033FA08BD08B5002000F058F908BD0000FC
:1007280082B0074BD3F8F42042F00202C3F8F42059
:10073800D3F8F43003F002030193019B02B0704731
:1007480000440258F0B5BBB00446002135913691FB
:10075800379138913991C02204A803F0A2F8226891
:10076800274B9A4201D03BB0F0BD4FF48052002392
:10077800CDE9042304A801F0DBF800283DD1214B82
:10078800D3F8F02042F48052C3F8F020D3F8F020D8
:1007980002F480520192019AD3F8E02042F001025B
:1007A800C3F8E020D3F8E02002F001020292029A96
:1007B800D3F8E02042F00202C3F8E020D3F8E0309A
:1007C80003F002030393039B6023359302273697B4
:1007D8000024379438940526399635AD29460A48B9
:1007E80002F014F8202335933697379438943996C5
:1007F8002946064802F00AF8B5E7FFF75BFEBEE7B0
:100808000030014000440258000002580004025819
:10081800F0B589B01F4BD3F8E02042F00802C3F8C6
:10082800E020D3F8E02002F008020092009AD3F802
:10083800E02042F00802C3F8E020D3F8E02002F0FC
:1008480008020192019AD3F8E82042F48022C3F802
:10085800E820D3F8E83003F480230293029B4FF496
:1008680080730393022404940694012305930727B5
:10087800079703AE084D3146284601F0C7FF4FF4ED
:1008880000730393049407973146284601F0BEFF8E
:1008980009B0F0BD00440258000C0258022846D89E
:1008A80070B588B028BB234BD3F8E02042F0020291
:1008B800C3F8E020D3F8E03003F002030093009B74
:1008C8001D4B33F81060039601230493002405940C
:1008D80003230693194B53F8205003A9284601F027
:1008E80095FF22463146284602F0A0F8204608B077
:1008F80070BD01280DD00F4BD3F8E02042F0020262
:10090800C3F8E020D3F8E03003F002030293029B1F
:10091800D6E7084BD3F8E02042F01002C3F8E020F5
:10092800D3F8E03003F010030193019BC8E76FF0A0
:100938000100704700440258D83B0008E03B00081B
:1009480010B586B01C4BD3F8E02042F00402C3F87F
:10095800E020D3F8E03003F004030093009B4FF449
:100968000053019302230393049341B90023029394
:1009780001A9124801F04AFF002006B010BD044644
:100988004FF48813029301A90C4801F03FFF0C4B68
:1009980003EBC4040B49204602F023F90A4A00215C
:1009A800204602F015F900220F21282000F0A0F8B7
:1009B800282000F0ADF8DFE700440258000802588C
:1009C8005C0100200D007016EB09000808B5034B08
:1009D80003EBC00002F00CF908BD00BF5C01002069
:1009E800704708B50020FFF7FBFF08BD08B50A4AA5
:1009F800126802600A6842600C2242614A890261F8
:100A08004A6882600A89C2608A8982614FF400421A
:100A1800C26102F022FE08BD0000002070B938B59E
:100A28000D469422084C02FB00442046FFF7F0FED6
:100A380029462046FFF7DAFF18B938BD6FF00100E4
:100A480070476FF00300F8E7C8000020002807DBB4
:100A580000F01F02400901239340024A42F8203067
:100A6800704700BF00E100E0002804DB0901C9B2BB
:100A7800044B1954704700F00F000901C9B2024B2A
:100A88001954704700E400E014ED00E000B500F0F0
:100A98000700C0F1070CBCF1040F28BF4FF0040C8D
:100AA800031D062B0FD9C31E4FF0FF3E0EFA0CF0A4
:100AB80021EA000199400EFA03FE22EA0E0241EAF9
:100AC80002005DF804FB0023EEE700000649CB684E
:100AD80023F4E0631B041B0C000200F4E0600343F2
:100AE800024A1A43CA60704700ED00E00000FA05A8
:100AF80010B50446054BD868C0F30220FFF7C6FFBF
:100B080001462046FFF7B0FF10BD00BF00ED00E032
:100B180008B5FFF79BFF08BD0138B0F1807F0BD205
:100B28004FF0E0235861054AF02182F82310002095
:100B3800986107221A6170470120704700ED00E0B4
:100B4800044B1B6803F0F003702B01D001207047A1
:100B58000320704700ED00E0002800F0398338B525
:100B68000446036813F0010F25D0944A136903F073
:100B78003803926A102B15D0182B0FD06368B3F581
:100B8800803F3FD0002B53D18C4B1A6822F480321F
:100B98001A601A6822F480221A6038E002F0030210
:100BA800022AEBD1854B1B6813F4003F03D063681E
:100BB800002B00F00F83236813F0020F00F0A180D0
:100BC8007E4A1369926A13F038035AD0182B55D00D
:100BD800E368002B00F0DE8078490A6822F01902E9
:100BE80013430B6001F0D4FF0546744B1B6813F0E8
:100BF800040F40F0AD8001F0CBFF401B0228F4D970
:100C08000320EEE26D4A136843F48033136063688F
:100C18002BB301F0BDFF0546684B1B6813F4003F7A
:100C2800C9D101F0B5FF401B6428F5D90320D8E2EB
:100C3800B3F5A02F09D0614B1A6822F480321A60EC
:100C48001A6822F480221A60E1E75C4B1A6842F4C1
:100C580080221A601A6842F480321A60D7E701F0DD
:100C680097FF0546554B1B6813F4003FA3D001F0CE
:100C78008FFF401B6428F5D90320B2E212F0030F5E
:100C8800A6D14E4B1B6813F0040F03D0E368002B6A
:100C980000F0A282494A136823F01903E1680B4364
:100CA800136001F075FF0546444B1B6813F0040FF1
:100CB80006D101F06DFF401B0228F5D9032090E210
:100CC80001F080FF41F20303984212D82269402ABA
:100CD80007D03A494B6823F47C3343EA02334B602C
:100CE8000FE0364A536823F47C3343F400335360EF
:100CF80007E0324A536823F0FE43216943EA01635F
:100D08005360236813F0100F00F088802B4A136992
:100D180003F03803926A082B56D0182B50D0E36999
:100D2800002B00F0B880254A136843F08003136055
:100D380001F02EFF0546214B1B6813F4807F40F01D
:100D4800888001F025FF401B0228F4D9032048E2DF
:100D580001F038FF41F20303984212D82269402A71
:100D680007D016494B6823F47C3343EA02334B60BF
:100D7800C7E7124A536823F47C3343F400335360C3
:100D8800BFE70E4A536823F0FE43216943EA016333
:100D98005360B6E7094A136823F00103136001F0B2
:100DA800F7FE0546054B1B6813F0040FA9D001F0A8
:100DB800EFFE401B0228F5D9032012E20044025836
:100DC80002F00302012AAAD1A14B1B6813F4807F09
:100DD80003D0E369802B40F0018201F0F3FE41F279
:100DE8000303984212D8226A202A07D098494B68F0
:100DF80023F0F84343EA82634B600FE0944A536858
:100E080023F0F84343F08043536007E0904AD368E7
:100E180023F07C53216A43EA0163D360236813F00B
:100E2800080F60D06369002B49D0894A536F43F09B
:100E38000103536701F0ACFE0546854B5B6F13F069
:100E4800020F50D101F0A4FE401B0228F5D903205F
:100E5800C7E101F0B7FE41F20303984212D8226AB3
:100E6800202A07D07A494B6823F0F84343EA826383
:100E78004B60D3E7764A536823F0F84343F0804346
:100E88005360CBE7724AD36823F07C53216A43EA64
:100E98000163D360C2E76E4A136823F080031360CE
:100EA80001F076FE05466A4B1B6813F4807FB5D0C7
:100EB80001F06EFE401B0228F5D9032091E1644A37
:100EC800536F23F00103536701F062FE0546604B40
:100ED8005B6F13F0020F06D001F05AFE401B022888
:100EE800F5D903207DE1236813F0200F29D0A369E9
:100EF8009BB1574A136843F48053136001F048FECE
:100F08000546534B1B6813F4005F1AD101F040FEED
:100F1800401B0228F5D9032063E14D4A136823F4E6
:100F28008053136001F034FE0546494B1B6813F4E7
:100F3800005F06D001F02CFE401B0228F5D90320E3
:100F48004FE1236813F0040F21D1636A002B00F0EE
:100F580047813F4A126902F03802182A00F0EE80F1
:100F6800022B79D03A4A136823F08073136001F09A
:100F78000FFE0446364B1B6813F0007F00F0DC8040
:100F880001F006FE001B0228F4D9032029E1314AAA
:100F9800136843F48073136001F0FAFD05462D4B86
:100FA8001B6813F4807F06D101F0F2FD401B642812
:100FB800F5D9032015E1A368012B0AD00BBB244BFC
:100FC8001A6F22F001021A671A6F22F004021A67D8
:100FD80004E01F4A136F43F001031367A36833B398
:100FE80001F0D6FD05461A4B1B6F13F0020FACD16A
:100FF80001F0CEFD401B41F288339842F3D903201B
:10100800EFE0052B09D0124B1A6F22F001021A6784
:101018001A6F22F004021A67E0E70D4B1A6F42F0CC
:1010280004021A671A6F42F001021A67D6E701F044
:10103800AFFD0546064B1B6F13F0020F85D001F07C
:10104800A7FD401B41F288339842F3D90320C8E03A
:101058000044025800480258694A136823F0807314
:10106800136001F095FD0546654B1B6813F0007F82
:1010780006D001F08DFD401B0228F5D90320B0E011
:101088005F4B996A5F4A0A40A16AE06A41EA001127
:101098000A439A62226B013AC2F30802616B013972
:1010A800490289B20A43A16B0139090401F4FE011E
:1010B8000A43E16B0139090601F0FE410A431A634C
:1010C800DA6A22F00102DA625A6B6FF3CF02A16C7E
:1010D80042EAC1025A63DA6A22F00C02216C0A431E
:1010E800DA62DA6A22F00202616C0A43DA62DA6AC8
:1010F80042F48032DA62DA6A42F40032DA62DA6A98
:1011080042F48022DA62DA6A42F00102DA621A688C
:1011180042F080721A6001F03BFD0446384B1B68B0
:1011280013F0007F06D101F033FD001B0228F5D92A
:10113800032056E0002054E0002052E0304A916A33
:10114800106B012B4ED001F00303A26A93424BD1DE
:10115800C1F30511E36A994248D1C0F30802236B31
:10116800013B9A4244D1C0F34622636B013B9A4249
:1011780040D1C0F30642A36B013B9A423CD1C0F375
:101188000660E36B013B984238D11D4B5B6BC3F3A0
:10119800CC03A26C9A4201D1002022E0184AD36AFB
:1011A80023F00103D36201F0F3FC054601F0F0FCE3
:1011B800A842FBD0124A536B6FF3CF03A16C43EAEA
:1011C800C1035363D36A43F00103D362002008E0EC
:1011D80001207047012004E0012002E0012000E026
:1011E800002038BD0120FCE70120FAE70120F8E7DC
:1011F8000120F6E70120F4E70120F2E70120F0E7FB
:10120800004402580CFCFFFF754B1B6903F03803C0
:10121800102B00F0DE80182B0FD0002B40F0DB8065
:101228006F4B1B6813F0200F00F0D7806C4B1B68C6
:10123800C3F3C1036B48D840704710B4684B9A6A2F
:1012480002F003029C6AC4F30510D96A01F0010197
:101258005B6BC3F3CC0301FB03F307EE903AF8EEA4
:10126800677A14F47C7F77D0012A4AD0022A76D094
:10127800002A40F091805A4B1B6813F0200F23D0AE
:1012880057490A68C2F3C102564BD34007EE103AD9
:10129800F8EE476A07EE100AB8EE476A86EE867AD5
:1012A8000B6BC3F3080306EE903AF8EE666A9FEDFF
:1012B8004E6A67EE867A76EEA77AF7EE006A77EEE0
:1012C800A67A27EE277A38E007EE100AF8EE476A82
:1012D8009FED466A86EE267A414B1B6BC3F30803E3
:1012E80006EE903AF8EE666A9FED3F6A67EE867AF8
:1012F80076EEA77AF7EE006A77EEA67A27EE277AD7
:101308001BE007EE100AF8EE476A9FED396A86EE91
:10131800267A334B1B6BC3F3080306EE903AF8EEBC
:10132800666A9FED316A67EE867A76EEA77AF7EEFF
:10133800006A77EEA67A27EE277A294B1B6BC3F350
:101348004623013307EE903AF8EE677AC7EE276A2C
:10135800FCEEE67A17EE900A5DF8044B704707EE4C
:10136800100AF8EE476A9FED236A86EE267A1C4B30
:101378001B6BC3F3080306EE903AF8EE666A9FED1E
:101388001A6A67EE867A76EEA77AF7EE006A77EE43
:10139800A67A27EE277AD0E707EE100AF8EE476A12
:1013A8009FED136A86EE267A0D4B1B6BC3F3080379
:1013B80006EE903AF8EE666A9FED0B6A67EE867A5B
:1013C80076EEA77AF7EE006A77EEA67A27EE277A06
:1013D800B3E709487047094870470248704700BF9B
:1013E800004402580090D003000000390024744CD7
:1013F8000024744A20BCBE4B40787D0100093D00A2
:10140800002800F0328170B50D4604469B4B1B68DE
:1014180003F00F038B420BD2984A136823F00F0393
:101428000B431360136803F00F038B4240F01F81D6
:10143800236813F0040F0CD02269914B9B6903F0C9
:1014480070039A4205D98E498B6923F070031A43B9
:101458008A61236813F0080F0CD06269884BDB6936
:1014680003F070039A4205D98549CB6923F07003CC
:101478001A43CA61236813F0100F0CD0A269804B7D
:10148800DB6903F4E0639A4205D97D49CB6923F40B
:10149800E0631A43CA61236813F0200F0CD0E26995
:1014A800774B1B6A03F070039A4205D974490B6A9B
:1014B80023F070031A430A62236813F0020F0CD05A
:1014C800E2686F4B9B6903F00F039A4205D96C4998
:1014D8008B6923F00F031A438A61236813F0010F05
:1014E80041D0674A936923F47063A1680B43936101
:1014F8006368022B0AD0032B27D0012B2CD0604A1B
:10150800126812F0040F06D10120ADE0126812F43F
:10151800003F00F0AE805A490A6922F007021343DF
:101528000B6101F035FB0646554B1B6903F0380388
:101538006268B3EBC20F16D001F02AFB801B41F2A0
:1015480088339842F0D903208EE04D4A126812F091
:10155800007FE0D1012087E0494A126812F4807FB9
:10156800D9D1012080E0236813F0020F0CD0E26883
:10157800434B9B6903F00F039A4205D240498B699C
:1015880023F00F031A438A613C4B1B6803F00F03D7
:10159800AB420AD9394A136823F00F032B4313606F
:1015A800136803F00F03AB4265D1236813F0040FEF
:1015B8000CD02269324B9B6903F070039A4205D222
:1015C8002F498B6923F070031A438A61236813F04B
:1015D800080F0CD062692A4BDB6903F070039A424A
:1015E80005D22749CB6923F070031A43CA612368DF
:1015F80013F0100F0CD0A269214BDB6903F4E063F0
:101608009A4205D21E49CB6923F4E0631A43CA61A2
:10161800236813F0200F0CD0E269194B1B6A03F002
:1016280070039A4205D216490B6A23F070031A43D5
:101638000A62FFF7E9FD12498B69C3F30323114AD4
:10164800D35C03F01F03D8408B6903F00F03D35C0E
:1016580003F01F0320FA03F30B4A13600B4B1860C7
:101668000B4B186801F032FA70BD01207047012059
:10167800FAE70120F8E70120F6E700BF0020005252
:1016880000440258043C00080C0000201000002010
:101698000800002008B5FFF7B7FD0B4A9369C3F3AC
:1016A80003230A49CB5C03F01F0320FA03F3926972
:1016B80002F00F02885C00F01F0023FA00F0044AD1
:1016C8001060044A136008BD00440258043C000836
:1016D8000C0000201000002008B5FFF7DBFF054BC9
:1016E800DB69C3F30213044AD35C03F01F03D84039
:1016F80008BD00BF00440258043C000808B5FFF7C5
:10170800C9FF054BDB69C3F30223044AD35C03F02A
:101718001F03D84008BD00BF00440258043C00081D
:10172800404B9B6A03F00303032B79D070B5054641
:101738000E463C4A136823F08063136001F028FAD0
:101748000446384B1B6813F0006F06D001F020FAEE
:10175800031B022BF5D9032070BD324B9A6A22F481
:101768007C32296842EA01329A626A68013AC2F315
:101778000802A9680139490289B20A43E9680139AE
:10178800090401F4FE010A4329690139090601F037
:10179800FE410A439A63DA6A22F0C00269690A4381
:1017A800DA62DA6A22F02002A9690A43DA62DA6A9E
:1017B80022F01002DA62DA6B6FF3CF02E96942EACB
:1017C800C102DA63DA6A42F01002DA62C6B91A466E
:1017D800DB6A43F40023D362124A136843F0806340
:1017E800136001F0D5F904460E4B1B6813F0006F27
:1017F80014D101F0CDF9001B0228F5D90320ABE77D
:10180800012E05D0074AD36A43F40013D362E3E7F5
:10181800044AD36A43F48013D362DDE700209BE7D0
:101828000120704700440258404B9B6A03F00303B1
:10183800032B79D070B505460E463C4A136823F051
:101848008053136001F0A4F90446384B1B6813F069
:10185800005F06D001F09CF9031B022BF5D9032089
:1018680070BD324B9A6A22F07C72296842EA0152B2
:101878009A626A68013AC2F30802A9680139490202
:1018880089B20A43E9680139090401F4FE010A43EF
:1018980029690139090601F0FE410A431A64DA6A26
:1018A80022F4406269690A43DA62DA6A22F4007251
:1018B800A9690A43DA62DA6A22F48072DA625A6C37
:1018C8006FF3CF02E96942EAC1025A64DA6A42F464
:1018D8008072DA62C6B91A46DB6A43F48003D362BF
:1018E800124A136843F08053136001F051F904461B
:1018F8000E4B1B6813F0005F14D101F049F9001B6F
:101908000228F5D90320ABE7012E05D0074AD36A90
:1019180043F08073D362E3E7044AD36A43F40003D5
:10192800D362DDE700209BE701207047004402589E
:10193800F8B50446036813F0006F30D0836EB3F532
:10194800001F26D00ED8ABB1B3F5801F07D10221F6
:101958000830FFF7E5FE054695B12E4621E0012641
:1019680035461EE0B3F5401F01D1002508E00126E9
:10197800354616E09A4AD36A43F40033D362002509
:10198800974A136D23F44013A16E0B431365002689
:1019980007E002212830FFF747FF0546DCE700266D
:1019A8003546236813F4807F14D0A36D042B31D8F7
:1019B800DFE803F0032229080800894AD36A43F4C0
:1019C8000033D3624DBB864A136D23F00703A16D24
:1019D8000B431365236813F4007F3FD0E36D802B1E
:1019E8002ED01FD833B3402B19D1002104F10800A1
:1019F800FFF796FE054629E0002104F10800FFF7ED
:101A08008FFE0546DEE7002104F12800FFF70CFFF2
:101A18000546D7E701263546DCE72E46DAE70126F4
:101A280035461BE0C02B11D0B3F5807F0ED00126C0
:101A3800354613E06A4AD36A43F40033D36205E0BB
:101A4800002104F12800FFF7EFFE0546DDB9644ADE
:101A5800136D23F4E073E16D0B431365236813F4EE
:101A6800806F33D0D4F8A830B3F5800F1FD00FD8CB
:101A7800BBB1B3F5001F08D1002104F10800FFF73E
:101A88004FFE054619E02E46E8E7012635461DE0DB
:101A9800B3F5C00F11D0B3F5000F0ED001263546AF
:101AA80014E04F4AD36A43F40033D36205E00021BF
:101AB80004F12800FFF7B8FE0546E5B9484A936DDA
:101AC80023F46003D4F8A8100B439365236813F438
:101AD800006F34D0D4F8AC30B3F1007F1FD00FD8EA
:101AE800BBB1B3F1807F08D1002104F10800FFF7F2
:101AF80017FE054619E02E46E8E7012635461EE0A2
:101B0800B3F1407F11D0B3F1806F0ED00126354676
:101B180015E0334AD36A43F40033D36205E0002169
:101B280004F12800FFF780FE0546002D33D12C4A2A
:101B3800936D23F0E063D4F8AC100B4393652368EE
:101B480013F0007F13D0E36C202B2ED028D833B1AC
:101B5800102B22D1224AD36A43F40033D3625DBBEF
:101B68001F4AD36C23F03003E16C0B43D364236822
:101B780013F4805F46D0236EB3F5005F32D020D8CF
:101B880043B3B3F5805F19D1002104F10800FFF7D2
:101B9800C7FD05462CE02E46D1E701263546E6E787
:101BA800302BDCD001263546E1E7022104F108009C
:101BB800FFF7B6FD0546D2E72E46D8E7012635469B
:101BC80020E0B3F5405F13D0B3F5804F10D0012665
:101BD800354617E0024AD36A43F40033D36207E07C
:101BE80000440258002104F12800FFF71DFE0546B5
:101BF8003DB9704A136D23F4E043216E0B4313651E
:101C080000E02E46236813F4005F17D0636EB3F527
:101C1800003F4FD042D843B1B3F5803F3BD10121BB
:101C280004F10800FFF77CFD0546002D49D1614A03
:101C3800136D23F4E023616E0B431365236813F4DB
:101C4800804F19D0D4F8B030B3F1005F4AD03DD8F6
:101C580043B1B3F1805F36D1012104F10800FFF7E9
:101C68005FFD0546002D44D1524A936D23F0E043B1
:101C7800D4F8B0100B439365236813F4004F47D092
:101C8800236FB3F1805F36D0B3F1005F4BD0BBB3A5
:101C9800012635463CE001263546CFE7B3F5802FCF
:101CA800C3D0B3F5A02FC0D0B3F5403FBDD00126B7
:101CB8003546C3E7012104F12800FFF7B5FD0546C5
:101CC800B3E72E46BAE701263546D5E7B3F1804F8C
:101CD800C8D0B3F1A04FC5D0B3F1405FC2D0012640
:101CE8003546C9E7012104F12800FFF79DFD0546A7
:101CF800B8E72E46C0E72F4AD36A43F40033D362CD
:101D0800C5B92C4A136D23F04053216F0B4313655B
:101D1800236813F0807F1CD0A36C032B44D8DFE822
:101D280003F0100B3C10012104F10800FFF7F8FC48
:101D38000546E5E72E46EBE71E4AD36A43F400332F
:101D4800D362A5BB1B4AD36C23F00303A16C0B43DE
:101D5800D364236813F4800F2ED1236813F0010F86
:101D680000F0A680E36F282B00F2A080DFE803F0E4
:101D78008E9E9E9E9E9E9E9E889E9E9E9E9E9E9EA1
:101D8800979E9E9E9E9E9E9E8E9E9E9E9E9E9E9E82
:101D98008E9E9E9E9E9E9E9E8E00022104F10800AD
:101DA800FFF7BEFC0546CCE701263546D1E72E46AF
:101DB800CFE700BF004402585A4A136843F48073BF
:101DC800136000F0E5FE0746564B1B6813F4807F4E
:101DD80005D100F0DDFEC01B6428F5D90325002DD0
:101DE8004AD1514B1B6FD4F8B420534013F4407FB1
:101DF8000CD04D4B1A6F22F44072196F41F48031A8
:101E08001967196F21F4803119671A67D4F8B4304B
:101E1800B3F5807F15D08DBBD4F8B43003F440728D
:101E2800B2F5407F1ED0404A136923F47C531361F6
:101E38003D490B6FD4F8B420C2F30B0213430B6770
:101E48008BE700F0A5FE0746374B1B6F13F0020F18
:101E5800E1D100F09DFEC01B41F288339842F3D9CE
:101E68000325D8E73048026922F47C522F4901EA59
:101E7800131313430361DBE72E466EE72E466CE728
:101E8800012104F10800FFF74BFC0546E5B9264A95
:101E9800536D23F03803E16F0B43536508E00121CC
:101EA80004F12800FFF7C0FC0546EFE70126354698
:101EB800236813F0020F17D0A36F052B2CD8DFE887
:101EC80003F00B05240B0B0B2E46F1E7012104F15F
:101ED8000800FFF725FC05460DBB134A536D23F098
:101EE8000703A16F0B435365236813F0040F30D029
:101EF800D4F89430052B00F20F81DFE813F01F00AF
:101F0800190006011F001F001F00012104F128000D
:101F1800FFF78AFC0546DFE701263546E4E72E464B
:101F2800E2E700BF0048025800440258CFFFFF0014
:101F3800012104F10800FFF7F3FB0546002D40F0EE
:101F4800EE80B64A936D23F00703D4F894100B4340
:101F58009365236813F0200F1DD0D4F89030B3F1A7
:101F6800005F00F0F08000F2DF804BB1B3F1805FDA
:101F780040F0D780002104F10800FFF7D1FB0546A7
:101F8800002D40F0E780A54A536D23F0E043D4F8D4
:101F980090100B435365236813F0400F1DD0D4F8FD
:101FA8009C30B3F5006F00F0E98000F2D8804BB1A7
:101FB800B3F5806F40F0D080002104F10800FFF7EE
:101FC800AFFB0546002D40F0E080944A936D23F462
:101FD800E053D4F89C100B439365236813F0800FEB
:101FE8001DD0D4F8A030B3F5804F00F0E28000F2A5
:101FF800D1804BB1B3F5005F40F0C980002104F1F6
:102008000800FFF78DFB0546002D40F0D980834A74
:10201800936D23F46043D4F8A0100B4393652368B1
:1020280013F0080F0DD0D4F88430B3F5805F00F0BA
:10203800C9807A4A536D23F44053D4F884100B4373
:102048005365236813F0100F0DD0D4F89830B3F50A
:10205800807F00F0C180714A936D23F44073D4F8F7
:1020680098100B439365236813F4002F1CD0D4F801
:10207800A430B3F5803F00F0B980B3F5003F08D035
:10208800002B40F0BA80002104F10800FFF748FB5C
:102098000546002D40F0B480604A936D23F4403328
:1020A800D4F8A4100B439365236813F4802F1CD035
:1020B800D4F88830B3F5001F00F0A480B3F5401FB2
:1020C80008D0B3F5801F40F0A480544AD36A43F483
:1020D8000033D362002D40F09F80504A536D23F4A3
:1020E8004013D4F888100B435365236813F4803FDA
:1020F80000F0AC80236D002B00F09280B3F5803F98
:1021080000F09C8001263546A0E0012104F128005A
:10211800FFF78AFB054611E70126354619E72E46E3
:1021280017E70126354636E7B3F1804F3FF428AF6D
:10213800B3F1A04F3FF424AFB3F1405F3FF420AFB9
:102148000126354627E7022104F12800FFF76CFB3A
:10215800054615E72E461EE7012635463DE7B3F549
:10216800805F3FF42FAFB3F5A05F3FF42BAFB3F51B
:10217800406F3FF427AF012635462EE7022104F1D0
:102188002800FFF751FB05461CE72E4625E70126E8
:10219800354644E7B3F5004F3FF436AFB3F5204F6B
:1021A8003FF432AFB3F5C04F3FF42EAF01263546AA
:1021B80035E7022104F12800FFF736FB054623E73F
:1021C8002E462CE7022104F12800FFF72DFB0028FA
:1021D8003FF42FAF01262CE7022104F12800FFF776
:1021E80023FB00283FF437AF012634E7022104F12E
:1021F8002800FFF719FB05464BE70126354653E74C
:102208002E4651E7012104F12800FFF70DFB054692
:1022180060E70126354668E72E4666E7004402581F
:10222800704AD36A43F40033D36275B96D4AD36CEC
:1022380023F48033216D0B43D36407E0022104F1BA
:102248000800FFF76DFA0546EFE72E46236813F0FE
:10225800005F11D1236813F4003F28D0D4F88030F0
:10226800B3F5807F14D010D9B3F5007F15D0B3F53E
:10227800407F12D001261AE0022104F12800FFF75E
:10228800D3FA0028E6D00126E4E733B101260EE0B0
:10229800544AD36A43F40033D362002D69D1514ABA
:1022A800536D23F44073D4F880100B4353652368AF
:1022B80013F4801F06D04B4A136D23F00043616F5F
:1022C8000B431365236813F0805F07D0454A1369F1
:1022D80023F48043D4F8B8100B431361236813F434
:1022E800001F06D03F4A136D23F08073E16E0B4345
:1022F8001365236813F0804F09D03A4B1A6922F40A
:1023080000421A611A69D4F8BC100A431A6123689A
:10231800002B06DA334AD36C23F04053616D0B432C
:10232800D364236813F4000F07D02E4A536D23F4A7
:102338004003D4F88C100B435365636813F0010F06
:1023480019D1636813F0020F1ED1636813F0040FEC
:1023580023D1636813F0080F28D1636813F0100FB6
:102368002DD1636813F0200F32D106B10126304613
:10237800F8BD2E469BE7002104F10800FFF7D0F9CD
:102388000028DED00646DCE7012104F10800FFF74B
:10239800C7F90028D9D00646D7E7022104F108007A
:1023A800FFF7BEF90028D4D00646D2E7002104F191
:1023B8002800FFF739FA0028CFD00646CDE70121DB
:1023C80004F12800FFF730FA0028CAD00646C8E70B
:1023D800022104F12800FFF727FA0028C5D00126BA
:1023E800C5E700BF0044025808B5FFF753F9054B8D
:1023F8001B6AC3F30213044AD35C03F01F03D840DB
:1024080008BD00BF00440258043C000810B4794BD2
:102418009A6A9C6AC4F3053CD96AC1F30011DB6B64
:10242800C3F3CC0301FB03F314F47C3F00F0DD801D
:1024380002F0030207EE903AF8EE677A012A4BD0D1
:10244800022A00F09880002A40F0B280694B1B688D
:1024580013F0200F23D067490A68C2F3C102664B04
:10246800D34007EE103AF8EE476A07EE10CAB8EE06
:10247800476A86EE867A8B6BC3F3080306EE903ABA
:10248800F8EE666A9FED5D6A67EE867A76EEA77A61
:10249800F7EE006A77EEA67A27EE277A38E007EE9D
:1024A80010CAF8EE476A9FED566A86EE267A514BB7
:1024B8009B6BC3F3080306EE903AF8EE666A9FED4D
:1024C8004F6A67EE867A76EEA77AF7EE006A77EEBD
:1024D800A67A27EE277A1BE007EE10CAF8EE476ABD
:1024E8009FED486A86EE267A424B9B6BC3F308033E
:1024F80006EE903AF8EE666A9FED406A67EE867AD5
:1025080076EEA77AF7EE006A77EEA67A27EE277AB4
:10251800384A936BC3F3462307EE903AF8EE677A8E
:10252800F7EE006A77EEA67A87EE276ABCEEC66AEF
:1025380080ED006A936BC3F3064307EE903AF8EE1A
:10254800677A77EEA67A87EE276ABCEEC66A80EDD0
:10255800016A936BC3F3066307EE903AF8EE677A65
:1025680077EEA67AC7EE276AFCEEE66AC0ED026A45
:102578005DF8044B704707EE10CAF8EE476A9FED06
:10258800226A86EE267A1B4B9B6BC3F3080306EE82
:10259800903AF8EE666A9FED196A67EE867A76EEEB
:1025A800A77AF7EE006A77EEA67A27EE277AAFE7E2
:1025B80007EE10CAF8EE476A9FED126A86EE267A91
:1025C8000C4B9B6BC3F3080306EE903AF8EE666A71
:1025D8009FED0A6A67EE867A76EEA77AF7EE006ACA
:1025E80077EEA67A27EE277A92E700230360436006
:1025F8008360BDE7004402580090D0030000003912
:102608000024744C0024744A20BCBE4B10B4794B8F
:102618009A6A9C6AC4F3055CD96AC1F300215B6CB1
:10262800C3F3CC0301FB03F314F07C7F00F0DD80DF
:1026380002F0030207EE903AF8EE677A012A4BD0CF
:10264800022A00F09880002A40F0B280694B1B688B
:1026580013F0200F23D067490A68C2F3C102664B02
:10266800D34007EE103AF8EE476A07EE10CAB8EE04
:10267800476A86EE867A0B6CC3F3080306EE903A37
:10268800F8EE666A9FED5D6A67EE867A76EEA77A5F
:10269800F7EE006A77EEA67A27EE277A38E007EE9B
:1026A80010CAF8EE476A9FED566A86EE267A514BB5
:1026B8001B6CC3F3080306EE903AF8EE666A9FEDCA
:1026C8004F6A67EE867A76EEA77AF7EE006A77EEBB
:1026D800A67A27EE277A1BE007EE10CAF8EE476ABB
:1026E8009FED486A86EE267A424B1B6CC3F30803BB
:1026F80006EE903AF8EE666A9FED406A67EE867AD3
:1027080076EEA77AF7EE006A77EEA67A27EE277AB2
:10271800384A136CC3F3462307EE903AF8EE677A0B
:10272800F7EE006A77EEA67A87EE276ABCEEC66AED
:1027380080ED006A136CC3F3064307EE903AF8EE97
:10274800677A77EEA67A87EE276ABCEEC66A80EDCE
:10275800016A136CC3F3066307EE903AF8EE677AE2
:1027680077EEA67AC7EE276AFCEEE66AC0ED026A43
:102778005DF8044B704707EE10CAF8EE476A9FED04
:10278800226A86EE267A1B4B1B6CC3F3080306EEFF
:10279800903AF8EE666A9FED196A67EE867A76EEE9
:1027A800A77AF7EE006A77EEA67A27EE277AAFE7E0
:1027B80007EE10CAF8EE476A9FED126A86EE267A8F
:1027C8000C4B1B6CC3F3080306EE903AF8EE666AEE
:1027D8009FED0A6A67EE867A76EEA77AF7EE006AC8
:1027E80077EEA67A27EE277A92E700230360436004
:1027F8008360BDE7004402580090D0030000003910
:102808000024744C0024744A20BCBE4BF0B583B03D
:1028180000236BE085685E000324B44025EA0405C4
:10282800CC68B4402C438460456825EA0C054C68A4
:10283800C4F300149C402C43446069E0DD0808356B
:1028480050F8254003F0070C4FEA8C0C4FF00F0EA0
:102858000EFA0CFE24EA0E0E0C6904FA0CF444EA93
:102868000E0440F825406BE0092400E0002404FA37
:102878000EF42C430CF1020C694D45F82C404FF036
:10288800B0442568D44325EA02064F6817F4801F30
:1028980001D042EA05064FF0B0452E606D6804EAA3
:1028A80005064F6817F4001F01D042EA05064FF0ED
:1028B800B0456E60D5F8845004EA05064F6817F4F1
:1028C800003F01D042EA05064FF0B045C5F88460E4
:1028D800D5F880502C404E6816F4803F01D042EA6B
:1028E80005044FF0B042C2F8804001330A6832FA5A
:1028F80003F400F092804FF0010C0CFA03FC1CEA80
:102908000202F2D04C6804F00304013C012C81D986
:102918004C6804F00304032C0CD0C4685D004FF02D
:10292800030C0CFA05FC24EA0C0C8C68AC4044EA55
:102938000C04C4604C6804F00304022C3FF47EAF1E
:1029480004684FEA430E4FF0030C0CFA0EFC24EA1D
:102958000C0C4C6804F0030404FA0EF444EA0C046A
:1029680004604C6814F4403FBFD02E4CD4F8F450A7
:1029780045F00205C4F8F450D4F8F44004F0020419
:102988000194019C4FEA930C0CF10205244C54F875
:10299800255003F0030E4FEA8E0E0F2404FA0EF4AE
:1029A80025EA0405204CA0423FF460AF04F580649A
:1029B800A04222D004F58064A04220D004F58064AF
:1029C800A0421ED004F58064A0421CD004F58064A7
:1029D800A0421AD004F58064A04218D004F580649F
:1029E800A04216D004F58064A04214D004F5806497
:1029F800A0423FF439AF0A2439E7012437E702241B
:102A080035E7032433E7042431E705242FE70624B8
:102A18002DE707242BE7082429E703B0F0BD00BF02
:102A28000004005800440258000002580AB18161AD
:102A3800704709048161704738B50446224BDB684A
:102A480003F00703062B07D01F4BDB6803F03F0397
:102A5800834236D0012038BD1B4AD36823F03F0398
:102A68000343D36000F094F80546174B5B6813F4F2
:102A7800005F07D100F08CF8431BB3F57A7FF4D9D7
:102A88000120E8E72E2C18BF1E2C08D02D2C14BFCF
:102A9800002301231D2C02D00BB90020DBE700F036
:102AA80077F80446084BDB6813F4803F07D100F041
:102AB8006FF8001BB0F57A7FF4D90120CBE700202E
:102AC800C9E70020C7E700BF00480258104B1B7831
:102AD8000BB90120704710B504464FF47A70B0FB6B
:102AE800F3F30C4A1068B0FBF3F0FEF715F868B979
:102AF8000F2C01D901200AE0002221464FF0FF30B7
:102B0800FDF7F6FF044B1C60002000E0012010BD1B
:102B180004000020100000200800002010B5032049
:102B2800FDF7D4FFFEF770FB0F498B69C3F303234E
:102B38000E4AD35C03F01F03D8408B6903F00F03E0
:102B4800D35C03F01F0320FA03F3094A1360094B0F
:102B580018600020FFF7BAFF10B10124204610BD0D
:102B68000446FDF7DDFDF9E700440258043C00087F
:102B78000C00002010000020034B1B78034A11684A
:102B88000B441360704700BF04000020640100205C
:102B9800014B1868704700BF6401002038B504462F
:102BA800FFF7F6FF0546B4F1FF3F02D0044B1B7850
:102BB8001C44FFF7EDFF401BA042FAD338BD00BF0D
:102BC80004000020014B1868000C70470010005CDE
:102BD80018B121B9426008467047012070470120AA
:102BE800704710B101600020704701207047000055
:102BF80070B504460368C3F3014503F01F030126BB
:102C08009E40FDF79DFF03280AD0074B03EB0513F1
:102C18001A68324203D01E60636803B1984770BDDA
:102C2800024B03EB0513F3E7C8000058880000586F
:102C3800C36B5B09C0680830C00803FB000070471D
:102C4800002800F0B78070B5044600238362056849
:102C58005C4B5D4E9D4218BFB54214BF012600264D
:102C680007D0A3F574439D4203D0C3680F2B00F22D
:102C7800A3802046FFF7DCFF2EB1544B9D4202D0C3
:102C8800082800F29B804F4A4F4B9D4218BF95423F
:102C980003D003F580639D4202D1102800F2908092
:102CA80094F88130F3B1022384F8813022681368E4
:102CB80023F00103136023689A6802F4F812A169EB
:102CC800B1F1806F14D0636813F4800F23D0E368E8
:102CD800062B20D921680B6823F48073206D0343E9
:102CE8000B601DE084F880302046FDF72BFDDAE705
:102CF8006168B1F5800F06D00029E4D1A16BB1F16C
:102D0800805FE0D102E0A06B0028F5D1196841F49A
:102D180080511960D7E721680B6823F480730B6032
:102D2800E369A16A0B431343E26B1343E16822682A
:102D38000B439360636B626A1343A26B1343A269EC
:102D480013432269134362691343226A1343626877
:102D58001343E26C1343A2681343A26C1343A16D9F
:102D680022680B43D36063686BB92268936823F4C5
:102D7800C05343F4006393602268936823F4C063EC
:102D880043F4806393602268136D23F00103136595
:102D9800636813F4800F06D02268D36823F00043D9
:102DA800616D0B43D3600020C4F88400012384F8CC
:102DB800813070BD012070470120FAE70120F8E753
:102DC8000120F6E70030014000380040003C004098
:102DD800026852E8003F23F4907342E8003100296A
:102DE800F6D1026802F1080353E8001F0D4B0B40AF
:102DF800083242E800310029F3D1C36E012B06D016
:102E08002023C0F88C300023C366436770470268EC
:102E180052E8003F23F0100342E800310029F6D1C0
:102E2800EEE700BFFEFFFFEF7047000070B586B009
:102E3800044683680269134342691343C269134312
:102E480001680868884A02401A430A602268536881
:102E580023F44053E1680B435360A1692268834B14
:102E68009A4201D0236A19439068814B03400B436F
:102E780093602268D36A23F00F03616A0B43D3621D
:102E880023687C4A934221D07B4A934200F08C808D
:102E98007A4A934200F0A280794A934200F0B580C2
:102EA800784A934200F0C880774A934200F0F48051
:102EB800764A934200F01981754A934200F02C81BA
:102EC8006A4A934200F03F8180223BE0714A526D8A
:102ED80002F03802282A34D8DFE812F0290033003B
:102EE8003300330033003300330033004D01330027
:102EF8003300330033003300330033002B0033003A
:102F08003300330033003300330033002D00330027
:102F18003300330033003300330033002F00330015
:102F28003300330033003300330033003100012213
:102F380008E0082206E0102204E0202202E04022F5
:102F480000E0802249498B4200F02781E069B0F512
:102F5800004F00F0A781202A00F2FF81202A00F20A
:102F68004982DFE812F016021C02470247021F02DC
:102F78004702470247022402470247024702470224
:102F8800470247024702290247024702470247020F
:102F980047024702470247024702470247024702E1
:102FA80047024702470235023A4A526D02F00702C9
:102FB800052A11D8DFE812F00600E10008000A002F
:102FC8000C000E000022BDE70822BBE71022B9E77B
:102FD8002022B7E74022B5E78022B3E72D4A526D99
:102FE80002F00702052A0ED8DFE802F003C9050738
:102FF800090B0022A6E70822A4E71022A2E7202254
:10300800A0E740229EE780229CE7224A526D02F008
:103018000702052A0ED8DFE802F003B40507090BFA
:1030280000228FE708228DE710228BE7202289E70C
:10303800402287E7802285E7164A526D02F0070290
:10304800052A0ED8DFE802F0039F0507090B0022C6
:1030580078E7082276E7102274E7202272E74022F8
:1030680070E780226EE700BFF369FFCF000C0058BD
:10307800FFF4FF11001001400044004000480040E8
:10308800004C00400050004000140140007800400F
:10309800007C0040004402587D4A526D02F038021C
:1030A800282A20D8DFE802F0151F1F1F1F1F1F1F27
:1030B800711F1F1F1F1F1F1F171F1F1F1F1F1F1FCE
:1030C800191F1F1F1F1F1F1F1B1F1F1F1F1F1F1F12
:1030D8001D00012236E7082234E7102232E72022B9
:1030E80030E740222EE780222CE7694A526D02F031
:1030F8000702052A0ED8DFE802F0034A0507090B84
:1031080000221FE708221DE710221BE7202219E7EB
:10311800402217E7802215E75D4A526D02F0070248
:10312800052A0ED8DFE802F003350507090B00224F
:1031380008E7082206E7102204E7202202E74022D7
:1031480000E78022FEE602F50E32926D02F00702D9
:10315800052A0ED8DFE802F0031F0507090B022233
:10316800F0E60822EEE61022ECE62022EAE640220B
:10317800E8E68022E6E60422E4E60422E2E6042207
:10318800E0E60422DEE60422DCE60422DAE6042293
:10319800D8E60422D6E60422D4E6202A27D8022A32
:1031A800C0F01A81023A1E2A00F21881DFE812F0F4
:1031B8005000160156001601160116015B00160193
:1031C80016011601160116011601160160001601F6
:1031D800160116011601160116011601160116012F
:1031E8001601160116011601160116016C00402A77
:1031F8002CD14FF40040626A264B33F81220B0FB02
:10320800F2F3656805EB4501994200F2E980B3EBFA
:10321800053F00F2E780002633463146FDF738F8CF
:10322800090241EA106100026B08C0182A463346B9
:1032380041F10001FDF72CF8A0F54072164B9A42B7
:1032480000F2D2802368D8603046D4E00120D2E072
:10325800FFF7CAF80028CED10020CCE003A8FFF77A
:10326800D5F80498F6E76846FFF7D0F90198F1E732
:10327800074B1B6813F0200F08D0054B1B68C3F3DE
:10328800C1030648D840B6E70548B4E70348B2E7A3
:1032980000440258EC3B0008FFFC0F000090D003EC
:1032A80000093D00202A15D8202A00F29F80DFE877
:1032B80002F031379D9D3A9D9D9D3F9D9D9D9D9D11
:1032C8009D9D449D9D9D9D9D9D9D9D9D9D9D9D9D7F
:1032D8009D9D5000402A1BD1626A4D4B33F8123035
:1032E800B0FBF3F06268530803EB4003B3FBF2F35F
:1032F800A3F110014FF6EF72914279D89AB222F0F9
:103308000F02C3F3420313432268D360002072E024
:10331800012070E0FEF7E0F90028DDD100206AE026
:10332800FEF7ECF9F8E703A8FFF770F80498F3E75D
:103338006846FFF76BF90198EEE7364B1B6813F008
:10334800200F08D0334B1B68C3F3C1033248D84061
:10335800C2E73248C0E73048BEE7402A17D14FF4E9
:103368000040626A2A4B33F81230B0FBF3F063680E
:1033780000EB5300B0FBF3F0A0F110024FF6EF732F
:103388009A4242D8236880B2D860002033E00120F6
:1033980031E0FEF7A1F90028E3D100202BE0FEF789
:1033A800ADF9F8E703A8FFF731F80498F3E76846A2
:1033B800FFF72CF90198EEE7164B1B6813F0200F66
:1033C80008D0144B1B68C3F3C1031348D840C8E79F
:1033D8001248C6E71048C4E701200CE001200AE0C3
:1033E800012008E0012006E0012004E0012002E0BD
:1033F800012000E001200123A4F86A30A4F8683015
:1034080000236367A36706B070BD0120F3E700BF20
:10341800EC3B0008004402580090D00300093D002E
:10342800836A13F0080F06D00268536823F4004338
:10343800816B0B435360836A13F0010F06D0026857
:10344800536823F40033C16A0B435360836A13F053
:10345800020F06D00268536823F48033016B0B43D4
:103468005360836A13F0040F06D00268536823F48C
:103478008023416B0B435360836A13F0100F06D00F
:103488000268936823F48053C16B0B439360836A8B
:1034980013F0200F06D00268936823F40053016CE0
:1034A8000B439360836A13F0400F0AD00268536895
:1034B80023F48013416C0B435360436CB3F5801FB6
:1034C8000BD0836A13F0800F06D00268536823F488
:1034D8000023C16C0B43536070470268536823F4A0
:1034E800C003816C0B435360EBE72DE9F8430546B5
:1034F8000E4617469946DDF820802B68DC6936EAC7
:1035080004040CBF01240024BC423AD1B8F1FF3FA7
:10351800F3D0FFF73DFBA0EB0900404534D8B8F1E4
:10352800000F33D02B681A6812F0040FE5D0B6F1FB
:10353800400218BF0122802EDFD0002ADDD0DA69D0
:1035480012F0080F11D1DA6912F4006FD5D04FF4D8
:1035580000621A622846FFF73BFC2023C5F890302A
:10356800002385F8843003200CE008241C622846D8
:10357800FFF72EFCC5F89040002385F88430012021
:1035880000E00020BDE8F8830320FBE70320F9E70B
:1035980030B583B004460023C0F89030FFF7F8FA3E
:1035A80005462268126812F0080F10D123681B68BC
:1035B80013F0040F28D12023C4F88830C4F88C30C5
:1035C8000020E066206784F8840003B030BD6FF007
:1035D8007E430093034600224FF400112046FFF774
:1035E80084FF0028E2D0226852E8003F23F08003DD
:1035F80042E800310029F6D12023C4F8883000239E
:1036080084F884300320E0E76FF07E4300932B4674
:1036180000224FF480012046FFF767FF0028CAD038
:10362800226852E8003F23F4907342E800310029F1
:10363800F6D1226802F1080353E8003F23F00103A2
:10364800083242E800310029F3D12023C4F88C3035
:10365800002384F884300320B7E778B310B5044614
:10366800D0F888300BB32423C4F888302268136854
:1036780023F001031360A36AE3B92046FFF7D6FBE2
:10368800012811D02268536823F4904353602268BC
:10369800936823F02A0393602268136843F00103B8
:1036A80013602046FFF774FF10BD80F88430FFF7E1
:1036B800BBFBD8E72046FFF7B3FEDEE701207047E3
:1036C800374BD3F8882042F47002C3F888201A696F
:1036D80042F010021A61334B1B6803F00F03062BEC
:1036E80006D8304A136823F00F0343F0070313602A
:1036F8002D4B1A6842F001021A6000221A611968FB
:103708002A4A0A401A60274B1B6813F0080F06D094
:10371800244A136823F00F0343F007031360224B76
:1037280000229A61DA611A62214999622149D962B3
:10373800214919635A639963DA6319645A641968E9
:1037480021F4802119601A664FF0B042D2F8E430B3
:1037580043F48043C2F8E430184B1B686FF30F033F
:10376800B3F1005F03D2164B0122C3F808210E4BB8
:10377800D3F8D43013F4805F10D10B4BD3F8D42096
:1037880042F48052C3F8D4200E4A43F2D2011160A9
:10379800D3F8D42022F48052C3F8D420704700BF55
:1037A80000ED00E000200052004402587FEDF6EAE8
:1037B800000202020000FF01800201010010005C0B
:1037C8000080005100400052054AD36823F00203EC
:1037D800D360034B5B6813F4005FFAD0704700BFF7
:1037E800004802580A4B4FF080729A614FF00072FD
:1037F8009A6108494A6902F47F42104348614FF4CC
:1038080000029A6180229A614FF400729A617047AF
:1038180000080258000C02580A4B4FF480729A6153
:103828004FF000729A6108494A6902F47F421043D6
:1038380048614FF400029A6180229A614FF4007245
:103848009A61704700080258000C0258DFF838D017
:10385800FFF7BAFFFFF734FF0C480D490D4A002364
:1038680002E0D458C4500433C4188C42F9D30A4A2D
:103878000A4C002301E013600432A242FBD300F09B
:1038880019F8FCF7ABFE704700000220000000208A
:103898001400002024EC0408140000206801002013
:1038A800FEE702440346934200D1704703F8011B28
:1038B800F9E7000070B50D4B0D4D5B1B9C10002601
:1038C800A64209D100F078F90A4D0B4B5B1B9C10FE
:1038D8000026A64205D170BD55F8043B984701362D
:1038E800EEE755F8043B98470136F2E71CEC04086C
:1038F8001CEC04081CEC040820EC04082DE9F04733
:103908008C468E46089E154604461946002B40F004
:10391800D080724547D9B2FA82F74FB1C7F1200378
:103928000EFA07FC20FA03F3BD4043EA0C0CBC4036
:103938004FEA154EA8B2BCFBFEF8230C0EFB18CCC0
:1039480008FB00F943EA0C43994528D9EB1808F11C
:10395800FF3204D2994502D9A8F102022B44A3EB05
:103968000903A4B2B3FBFEFC0EFB1C330CFB00F0F6
:1039780044EA0344A04214D92C190CF1FF3304D2B1
:10398800A04202D9ACF102032C44241A43EA0240B3
:103998001EB1FC40002334607360BDE8F0874246E6
:1039A800DDE76346F1E7002A79D0B2FA82F3002B0B
:1039B8003FD01946C1F1200302FA01F52EFA03F2AD
:1039C8000EFA01FE20FA03F343EA0E034FEA154EFE
:1039D80000FA01F4B2FBFEFCAFB20EFB1C201A0C7D
:1039E8000CFB07F842EA004290455AD9AA180CF194
:1039F800FF3004D2904502D9ACF102002A44A2EB70
:103A080008029BB2B2FBFEFC0EFB1C220CFB07F764
:103A180043EA02439F4246D9EB180CF1FF3204D225
:103A28009F4202D9ACF102022B44DB1B42EA00425E
:103A380002E0AEEB020301224FEA154EAFB2B3FB30
:103A4800FEFC200C0EFB1C330CFB07F840EA03437A
:103A580098452AD9EB180CF1FF3004D2984502D9C1
:103A6800ACF102002B44A3EB0803A4B2B3FBFEFCA9
:103A78000EFB1C330CFB07F744EA0344A74216D994
:103A88002C190CF1FF3304D2A74202D9ACF102037E
:103A98002C44E41B43EA00400F46114678E71F21F7
:103AA80088E76046ABE76246BFE76046DBE7634608
:103AB800EFE7734506D916B9002108466DE7C6E950
:103AC800000EF9E7B3FA83F787B9734501D3824249
:103AD80007D8841A6EEB030301209C461EB9002107
:103AE8005BE73846FAE7C6E9004CF8E7C7F1200C6F
:103AF800BB4022FA0CF51D4320FA0CF12EFA0CF308
:103B08000EFA07FE41EA0E014FEA154900FA07F4DA
:103B1800B3FBF9F81FFA85FE09FB18300B0C08FBFC
:103B28000EFA43EA00439A4502FA07F240D9EB1825
:103B380008F1FF3004D29A4502D9A8F102002B44BB
:103B4800A3EB0A0389B2B3FBF9F809FB183308FBA6
:103B58000EFE41EA03418E452CD9691808F1FF335E
:103B680004D28E4502D9A8F10203294443EA004051
:103B7800A0FB0298A1EB0E014145CE46434602D375
:103B880006D14C4504D2B9EB020E68EB05030138A7
:103B9800002EA4D0B4EB0E0261EB030101FA0CFC79
:103BA80022FA07F34CEA0303F940C6E9003196E725
:103BB8004046C5E74346D9E7F8B500BFF8BC08BC9E
:103BC8009E467047F8B500BFF8BC08BC9E467047D3
:103BD80001000200004000000004025800100258D2
:103BE80000040258010002000400060008000A0050
:103BF8000C001000200040008000000100000000C0
:103C08000102030401020304060708094319554485
:103C180019554019553B17553B165536124F2D105F
:103C280048250D43250C43220B44200A4020093C1B
:103C380020084220083E20083B20083B20093B2062
:103C4800083B20083B20083B20083B20084020096F
:103C580043200943200943200943200943200943FD
:103C68002009432009432009432009432009432010
:103C7800083E20083B20083B20083B20083B200842
:103C88003E20094320094320083E20083E200943DE
:103C980020094320083E20083A20083C20094220F9
:103CA800094420084020083B20083B20083B200806
:103CB8003B20083B20083B20083B20083B20083BD2
:103CC80020083B20083B20083B1F083B1B083B1AE9
:103CD800083B1A083B1A083B1A083B1A083B1A0803
:103CE8003B1A083B1A083B1A083B1A083B1A083BC0
:103CF8001A083B1A083B1A083B1A083B1A083B1AD1
:103D0800083B1A083B1A083B1A083B1A083B1A08D2
:103D18003B1A083B1A083B1A083B1A083B1A093B8E
:103D28001A083B1A083B1A093B1A093B1A093B1A9D
:103D3800093B1A083B1A083B1A083B1A083B1A08A1
:103D48003B1A083B1A083B1A083B1A083B1A083B5F
:103D58001A083B1A083B1A083B1A083B1A083B1A70
:103D6800083B1A083B1A083B1A083B1A083B1A0872
:103D78003B1A083B1A083B1A083B1A083B1A083B2F
:103D88001A083B1A083B1A083B1A083B1B083B1E3B
:103D9800083B220A3E270E4431144A38174C3B1779
:103DA8004C3B184D3B19543B19553B19553B19557C
:103DB8003B19553B19553B19553B19553B19553B73
:103DC80019553B19553B19553B19553B19553B1985
:103DD800553B19553B19553B19553B19553B195539
:103DE8003B19553B19553B19553B19553B19553B43
:103DF80019553B19553B19553B19553B18553B1758
:103E0800553A175434154D2E124C291048250D4398
:103E1800200B431C083E1A083B1A083B1A083B1A99
:103E2800083B1A083B1A083B1A083B1A083B1A08B1
:103E38003B1A083B1A083B1A083B1A083B1A083B6E
:103E48001A083B1A083B1A083B1A083B1A083B1A7F
:103E5800083B1A083B1A083B1A083B1A083B1A0881
:103E68003B1A083B1A083B1A083B1A083B1A083B3E
:103E78001A083B1A083B1A083B1A083B1A083B1A4F
:103E8800083B1A083B1A083B1A083B1A083B1A0851
:103E98003B1A083B1A083B1A083B1A083B1A083B0E
:103EA8001A083B1A083B1A083B1A083B1A083B1A1F
:103EB800083B1A083B1A093B1A083B1A083B1A091F
:103EC8003B1A093B1A093B1A083B1A083B1A083BDC
:103ED8001A093B1A083B1A083B1A083B1A083B1AEE
:103EE800083B1A083B1A083B1A083B1A083B1A08F1
:103EF8003B1A083B1A083B1A083B1A083B1A083BAE
:103F08001A083B1A083B1A083B1A083B1A083B1ABE
:103F1800083B1A083B1A083B1A083B1A083B1A08C0
:103F28003B1A083B1A083B1A083B1A083B1A083B7D
:103F38001A083B1A083B1A083B1A083B1A083B1A8E
:103F4800083B1A083B1A083B1A083B1A083B1A0890
:103F58003B1A083B1A083B1A083B1A083B1A083B4D
:103F68001A083B17083B16083B16083B16083B1671
:103F7800083B16083B16093B16083B16083B160972
:103F88003B16093B16093B16093B16083B16083B2E
:103F980016083B16083B16083B16083B16083B1646
:103FA800083B16083B16083B16083B16083B160844
:103FB8003B16083B16083B16083B16083B16083B01
:103FC80016083B16083B16083B16083B4319554490
:103FD80019554019553B18553B175536144F2F1294
:103FE8004A290F47250C44240B4322094020083B4B
:103FF80020083E20083C20083B20083B20083B20A6
:10400800083B20083B20083B20083B20083D2008AF
:104018003E20083E20083E1D083E1C083E1C083E67
:104028001C083E1C083E1C083E1C083E1C083E1C82
:10403800083C1C083B1C083B1C083B1C083B1D0893
:104048003C20083E20083E20083C20083C20083E32
:1040580020083E1D083C1C083B1D083B1D083E1D52
:10406800083E1D083D1D083B1D083B1D083B1D085B
:104078003B1D083B1D083B1D083B1D083B1D083B1D
:104088001D083B1D083B1D083B1C083B1B083B1A31
:10409800083B1A083B1A083B1A083B1A083B1A083F
:1040A8003B1A083B1A083B1A083B1A083B1A083BFC
:1040B8001A083B1A083B1A083B1A083B1A083B1A0D
:1040C800083B1A083B1A083B1A083B1A083B1A080F
:1040D8003B1A083B1A083B1A083B1A083B1A083BCC
:1040E8001A083B1A083B1A083B1A083B1A083B1ADD
:1040F800083B1A083B1A083B1A083B1A083B1A08DF
:104108003B1A083B1A083B1A083B1A083B1A083B9B
:104118001A083B1A083B1A083B1A083B1A083B1AAC
:10412800083B1A083B1A083B1A083B1A083B1A08AE
:104138003B1A083B1A083B1A083B1A083B1A083B6B
:104148001A083B1A083B1B083B1A083B1A083B1D78
:10415800093E230C432A104832144C38174C3B179D
:104168004C3B174D3B19543B19553B19553B1955B9
:104178003B19553B19553B19553B19553B19553BAF
:1041880019553B19553B19553B19553B19553B19C1
:10419800553B19553B19553B19553B19553B195575
:1041A8003B19553B19553B19553B19553B19553B7F
:1041B80019553B19553B19553B19553B1855391796
:1041C8005635165430144D2A114C250D48210B43F1
:1041D8001D0A431B083E1A083B1A083B1A083B1ADB
:1041E800083B1A083B1A083B1A083B1A083B1A08EE
:1041F8003B1A083B1A083B1A083B1A083B1A083BAB
:104208001A083B1A083B1A083B1A073B1A083B1ABC
:10421800083B1A083B1A083B1A083B1A083B1A08BD
:104228003B1A083B1A083B1A083B1A083B1A083B7A
:104238001A083B1A083B1A083B1A083B1A083B1A8B
:10424800083B1A083B1A083B1A083B1A083B1A088D
:104258003B1A083B1A083B1A083B1A083B1A083B4A
:104268001A083B1A083B1A083B1A083B1A083B1A5B
:10427800083B1A083B1A083B1A083B1A083B1A085D
:104288003B1A083B1A083B1A083B1A083B1A083B1A
:104298001A083B1A083B1A083B1A083B1A083B1A2B
:1042A800083B1B083B1A083B18083B17083B180833
:1042B8003B1A083B1B083B1A083B1A083B1A083BE9
:1042C8001A083B1A083B1A083B1A083B1A083B1AFB
:1042D800083B1A083B1A083B1A083B1A083B1B08FC
:1042E8003B1A083B18073B17073B18073B1A083BC4
:1042F8001B083B1A083B1A083B1A083B1A083B1ACA
:10430800083B1A083B1A083B1A083B1A083B1A08CC
:104318003B1B083B1A083B18083B17083B17083B90
:1043280017083B17083B16083B16083B16083B16B0
:10433800083B16083B16083B16083B16083B1608B0
:104348003B16083B18083B19083B19083B19083B62
:1043580019083B19083B18083B16083B16083B167A
:10436800083B16083B16083B16083B16083B160880
:104378003B16083B16083B16083B16083B16083B3D
:1043880016083B16083B16083B16083B43195543CD
:1043980019554119553E19553B18553817513314BD
:1043A8004E2E114A290D44260B4323094020083B71
:1043B80020083B20083B20083B20083B20083B20E6
:1043C800083B20083B20083B20083B20083B2008EE
:1043D8003B20083B20083B1D083B1C083B1C083BB6
:1043E8001C083B1C083B1C083B1C083B1C083B1CCE
:1043F800083B1C083B1C083B1C083B1C083B1D08D1
:104408003B20083B20083B20083B20083B20083B7A
:1044180020083B1E083B1B083B1A083B1A083B1A9E
:10442800083B1A083B1A083B1A083B1A083B1A08AB
:104438003B1A083B1A083B1A083B1A083B1A083B68
:104448001A083B1A083B1A083B1A083B1A083B1B78
:10445800083B1A083B1A083B1A083B1A083B1A087B
:104468003B1A083B1A083B1A083B1A083B1A083B38
:104478001A083B1A083B1A083B1A083B1A083B1A49
:10448800083B1A083B1A083B1A083B1A083B1A084B
:104498003B1A083B1A083B1A083B1A083B1A083B08
:1044A8001A083B1A083B1A083B1A083B1A083B1A19
:1044B800083B1A083B1A083B1A083B1A083B1A081B
:1044C8003B1A083B1A083B1A083B1A083B1A083BD8
:1044D8001A083B1A083B1A083B1A083B1A083B1AE9
:1044E800083B1A083B1A083B1A083B1A083B1A08EB
:1044F8003B1A083B1A083B1A083B1A083B1A083BA8
:104508001A083B1A083B1A083B1B083B1C083E20AC
:104518000A41280D462F124C35164C39174C3B18BA
:104528004D3B18503B19553B19553B19553B1955EF
:104538003B19553B19553B19553B19553B19553BEB
:1045480019553B19553B19553B19553B19553B19FD
:10455800553B19553B19553B19553B19553B1955B1
:104568003B19553B19553B19553B19553B19553BBB
:1045780019553B19553B19553B19553918563616D7
:10458800543214512B124D270E49230C461F0A434F
:104598001B09411A083D1B083B1A083B1A073B1A1E
:1045A800073B1A083B1A083B1A073B1A073B1A072E
:1045B8003B1A073B1A073B1A073B1A073B1A073BEC
:1045C8001A073B1A073B1A073B1A073B1A083B1AFC
:1045D800083B1A083B1A083B1A083B1A083B1A08FA
:1045E8003B1A073B1A083B1A083B1A073B1A073BBA
:1045F8001A083B1A083B1A083B1A083B1A083B1AC8
:10460800083B1A083B1A083B1A083B1A083B1A08C9
:104618003B1A083B1A083B1A083B1A083B1A083B86
:104628001A083B1A083B1A083B1A083B1A083B1A97
:10463800083B1A083B1A083B1A083B1A083B1A0899
:104648003B1A083B1A083B1A083B1A083B1A083B56
:104658001A083B1A083B1A083B1A083B1A083B1A67
:10466800083B1B083B1A083B18083B17083B18086F
:104678003B1A083B1B083B1A083B1A083B1A083B25
:104688001A083B1A083B1A083B1A083B1A083B1A37
:10469800083B1A083B1A083B1A083B1A083B1B0838
:1046A8003B1A083B18073B17073B18073B1A083B00
:1046B8001B083B1A083B1A083B1A083B1A083B1A06
:1046C800083B1A083B1A083B1A083B1A083B1A0809
:1046D8003B1B083B1A083B18083B17083B17083BCD
:1046E80017083B16083B16083B16083B16083B16EE
:1046F800083B16083B16083B16083B16083B1608ED
:104708003B18083B19083B1A083B1A083B19083B99
:1047180019083B19083B18083B17083B18083B18B1
:10472800083B18083B17083B16083B16083B1608B9
:104738003B16083B16083B16083B16083B16083B79
:1047480016083B16083B16083B16083B4319554309
:1047580019554319554219553D18553B17563816E2
:104768005132124A2D0E44280C43230A4020093B9B
:1047780020083B20083B20083B20083B20083B2022
:10478800083B20083B20083B20083B20083B20082A
:104798003B20083B20083B20083B20083B20083BE7
:1047A80020083B20083B20083B20083B20083B20F2
:1047B800083B20083B20083B20083B20083B2008FA
:1047C8003B20083B20083B20083B20083B20083BB7
:1047D80020083B20083B1E083B1B083B1B083B1BD3
:1047E800083B1B083B1B083B1B083B1A083B1A08E5
:1047F8003B1B083B1B083B1B083B1A083B1A083BA2
:104808001A083B1A083B1A083B1A083B1A083B1AB5
:10481800083B1A083B1A083B1A083B1A083B1A08B7
:104828003B1A083B1A083B1B083B1B083B1B083B71
:104838001B083B1B083B1B083B1B083B1A083B1A81
:10484800083B1A083B1A083B1A083B1A083B1A0887
:104858003B1A083B1A083B1A083B1A083B1A083B44
:104868001A083B1A083B1A083B1A083B1A083B1A55
:10487800083B1A083B1A083B1A083B1A083B1A0857
:104888003B1A083B1A083B1A083B1A083B1A083B14
:104898001A083B1A083B1A083B1A083B1A083B1A25
:1048A800083B1A083B1A083B1A083B1A083B1A0827
:1048B8003B1A083B1A083B1A083B1A083B1A083BE4
:1048C8001A083B1A083B1A083B1B083C20094228D7
:1048D8000C4430104735144C3A174C3B174C3B18D6
:1048E8004F3B19553B19553B19553B19553B195524
:1048F8003B19553B19553B19553B19553B19553B28
:1049080019553B19553B19553B19553B19553B1939
:10491800553B19553B19553B19553B19553B1955ED
:104928003B19553B19553B19553B19553B19553BF7
:1049380019553B19553B19553A185535175533161E
:104948005130124C27104A250D46230A431E0941AF
:104958001B083C1A083B1A083B1A083B1A073B1A63
:10496800073B1A073B1A083B1A073B1A073B1A076B
:104978003B1A073B1A073B1A073B1A073B1A073B28
:104988001A073B1A073B1A073B1A083B1A083B1A37
:10499800083B1A083B1A083B1A083B1A083B1A0737
:1049A8003B1A073B1A083B1A073B1A073B1A073BF7
:1049B8001A083B1A083B1A083B1A083B1A083B1A04
:1049C800083B1A083B1A083B1A083B1A083B1A0806
:1049D8003B1A083B1A083B1A083B1A083B1A083BC3
:1049E8001A083B1A083B1A083B1A083B1A083B1AD4
:1049F800083B1A083B1A083B1A083B1A083B1A08D6
:104A08003B1A083B1A083B1A083B1A083B1A083B92
:104A18001A083B1A083B1A083B1A083B1A083B1AA3
:104A2800083B1A083B1A083B1A083B1A083B1A08A5
:104A38003B1A083B1A083B1A083B1A083B1A083B62
:104A48001A083B1A083B1A083B1A083B1A083B1A73
:104A5800083B1A083B1A083B1A083B1A083B1A0875
:104A68003B1A083B1A083B1A083B1A083B1A083B32
:104A78001A083B1A083B1A083B1A083B1A083B1A43
:104A8800083B1A083B1A083B1A083B1A083B1A0845
:104A98003B1A083B1A083B1A083B1A083B1A083B02
:104AA8001A083B18083B16083B17083B17083B1722
:104AB800083B17083B17083B17083B16083B180824
:104AC8003B19083B16083B19083B19083B17083BDC
:104AD80016083B16083B18083B1A083B1A083B19EE
:104AE800083B1A083B1A083B17083B16083B1608F0
:104AF8003B16083B16083B16083B16083B16083BB6
:104B080016083B16083B16083B16083B4319554345
:104B180019554319554319554218553E1756381615
:104B28005133124A2D0E44280C4323094020083BD8
:104B380020083B20083B20083B20083B20083B205E
:104B4800083B20083B20083B20083B20083B200866
:104B58003B20083B20083B20083B20083B20083B23
:104B680020083B20083B20083B20083B20083B202E
:104B7800083B20083B20083B20083B20083B200836
:104B88003B20083B20083B20083B20083B20083BF3
:104B980020083B20083B20083B1F083B1F083B1F01
:104BA800083B1F083B1E083B1B083B1A083B1A081A
:104BB8003B1B083B1E083B1C083B1A083B1B083BD9
:104BC8001B083B1B083B1B083B1B083B1B083B1BEC
:104BD800083B1B083B1B083B1B083B1B083B1B08EF
:104BE8003B1B083B1B083B1D083B1F083B1F083BA2
:104BF8001F083B1F083B1D083B1B083B1A083B1AB4
:104C0800083B1A083B1A083B1A083B1A083B1A08C3
:104C18003B1A083B1A083B1A083B1A083B1A083B80
:104C28001A083B1A083B1A083B1A083B1A083B1A91
:104C3800083B1A083B1A083B1A083B1A083B1A0893
:104C48003B1A083B1A083B1A083B1A083B1A083B50
:104C58001A083B1A083B1A083B1A083B1A083B1A61
:104C6800083B1A083B1A083B1A083B1A083B1A0863
:104C78003B1A083B1A083B1A083B1A083B1A083B20
:104C88001A083B1A083B1A083B1C083C230B422D08
:104C9800104835134C3A154C3B174C3B174C3B18F6
:104CA8004F3B19553B19553B19553B19553B195560
:104CB8003B19553B19553B19553B19553B19553B64
:104CC80019553B19553B19553B19553B19553B1976
:104CD800553B19553B19553B19553B19553B19552A
:104CE8003B19553B19553B19553B19553B19553B34
:104CF80019553B19553A195535185533165031146D
:104D08004D2C114A260E45230C441E09411B083C14
:104D18001B083B1A083B1A083B1A083B1A083B1A9F
:104D2800083B1A083B1A083B1A083B1A083B1A08A2
:104D38003B1A083B1A083B1A083B1A083B1A083B5F
:104D48001A083B1A083B1A083B1A083B1A083B1A70
:104D5800083B1A083B1A083B1A083B1A083B1A0872
:104D68003B1A083B1A083B1A083B1A083B1A083B2F
:104D78001A083B1A083B1A083B1A083B1A083B1A40
:104D8800083B1A083B1A083B1A083B1A083B1A0842
:104D98003B1A083B1A083B1A083B1A083B1A083BFF
:104DA8001A083B1A083B1A083B1A083B1A083B1A10
:104DB800083B1A083B1A083B1A083B1A083B1A0812
:104DC8003B1A083B1A083B1A083B1A083B1A083BCF
:104DD8001A083B1A083B1A083B1A083B1A083B1AE0
:104DE800083B1A083B1B083B1B083B1B083B1B08DE
:104DF8003B1A083B1A083B1A083B1A083B1A083B9F
:104E08001A083B1A083B1A083B1A083B1A083B1AAF
:104E1800083B1A083B1A083B1A083B1A083B1A08B1
:104E28003B1B083B1B083B1B083B1B083B1A083B6A
:104E38001A083B1A083B1A083B1A083B1A083B1A7F
:104E4800083B1A083B1A083B1A083B1A083B1A0881
:104E58003B1A083B1A083B1B083B1B083B1B083B3B
:104E68001B083B1A083B19083B19083B19083B1952
:104E7800083B19083B19083B19083B1A083B180856
:104E88003B16083B16083B19083B1B083B19083B17
:104E980016083B18083B1A083B1A083B17083B162C
:104EA800083B18083B1A083B1A083B17083B16082A
:104EB8003B16083B16083B16083B16083B16083BF2
:104EC80016083B16083B16083B16083B4319554382
:104ED80019554319554319554418553F1751381456
:104EE8004E32114A290D44260A4323094020083C22
:104EF80020084020083D20083B20083B20083B2094
:104F0800083B20083B20083B20083B20083B2008A2
:104F18003B20083B20083B20083B20083B20083B5F
:104F280020083B20083B20083B20083B20083B206A
:104F3800083B20083B20083B20083B20083B200872
:104F48003B20083B20083B20083B20083B20083B2F
:104F580020083B20083B20083B20083B20083B203A
:104F6800083B20083B20083B1E083B1E083B1E0848
:104F78003B1E083B20083B1E083B1E083B1E083B07
:104F88001E083B1E083B1E083B1E083B1E083B1E16
:104F9800083B1E083B1E083B1E083B1E083B1E081C
:104FA8003B1E083B1E083B1F083B20083B20083BD4
:104FB80020083B20083B1E083B1B083B1A083B1AED
:104FC800083B1A083B1A083B1A083B1A083B1A0800
:104FD8003B1A083B1A083B1A083B1A083B1A083BBD
:104FE8001A083B1A083B1A083B1A083B1A083B1ACE
:104FF800083B1A083B1A083B1A083B1A083B1A08D0
:105008003B1A083B1A083B1A083B1A083B1A083B8C
:105018001A083B1A083B1A083B1A083B1A083B1A9D
:10502800083B1A083B1A083B1A083B1A083B1A089F
:105038003B1A083B1A083B1A083B1A083B1A083B5C
:105048001A083B1A083B1A083B1C083C240C422E41
:10505800114936144D3B164C3B174C3B174C3B182B
:105068004F3B19553B19553B19553B19553C19559B
:105078004019554119553E19553B19553B19553B92
:1050880019553B19553B19553B19553B19553B19B2
:10509800553B19553B19553B19553B19553B195566
:1050A8003B19553B19553B19553B19553B19553B70
:1050B80019553B19553A195533185030154D2C12BE
:1050C80049270F46230C43200A441E09401A083B6F
:1050D8001A083B1B083B1A083B1A083B1A083B1ADC
:1050E800083B1A083B1A083B1A083B1A083B1A08DF
:1050F8003B1A083B1A083B1A083B1A083B1A083B9C
:105108001A083B1A083B1A083B1A083B1A083B1AAC
:10511800083B1A083B1A083B1A083B1A083B1A08AE
:105128003B1A083B1A083B1A083B1A083B1A083B6B
:105138001A083B1A083B1A083B1A083B1A083B1A7C
:10514800083B1A083B1A083B1A083B1A083B1A087E
:105158003B1A083B1A083B1A083B1A083B1A083B3B
:105168001A083B1A083B1A083B1A083B1A083B1A4C
:10517800083B1A083B1A083B1A083B1A083B1A084E
:105188003B1A083B1A083B1A083B1A083B1A083B0B
:105198001A083B1A083B1A083B1A083B1A083B1A1C
:1051A800083B1A083B1A083B1A083B1A083B1A081E
:1051B8003B1A083B1A083B1A083B1A083B1A083BDB
:1051C8001A083B1A083B1A083B1A083B1A083B1AEC
:1051D800083B1A083B1A083B1A083B1A083B1A08EE
:1051E8003B1A083B1A083B1A083B1A083B1A083BAB
:1051F8001A083B1A083B1A083B1A083B1A083B1ABC
:10520800083B1A083B1A083B1A083B1A083B1A08BD
:105218003B1A083B1A083B1A083B1A083B1A083B7A
:105228001A083B1B083B1B083B1B083B1B083B1B86
:10523800083B1B083B1B083B1B083B1B083B19088A
:105248003B18083B19083B19083B1B083B1A083B4D
:1052580019083B1A083B1B083B1A083B19083B185E
:10526800083B19083B1B083B1B083B19083B18085F
:105278003B19083B19083B19083B19083B19083B1F
:1052880019083B19083B19083B19083B43195543B2
:1052980019554319554318554117553B164F3513A2
:1052A8004C2F104A270C44240A4322084020083C6B
:1052B80020084020083D20083B20083B20083B20D0
:1052C800083B20083B20083B20083B20083B2008DF
:1052D8003B20083B20083B20083B20083B20083B9C
:1052E80020083E20083C20083B20083B20083B20A3
:1052F800083B20083B20083B20083B20083B2008AF
:105308003B20083B20083B20083D20083D20083B67
:1053180020083B20083D20083D20083B20083B2072
:10532800083B20083B20083B20083B20083B20087E
:105338003B20083B20083B20083B20083B20083B3B
:1053480020083B20083B20083B20083B20083B2046
:10535800083B20083B20083B20083B20083B20084E
:105368003B20083B20083B20083B20083B20083B0B
:1053780020083B20083B1E083B1A083B1A083B1A2A
:10538800083B1A083B1A083B1A083B1A083B1A083C
:105398003B1A083B1A083B1A083B1A083B1A083BF9
:1053A8001A083B1A083B1B083B1A083B1A083B1A09
:1053B800083B1A083B1A083B1A083B1A083B1A080C
:1053C8003B1A083B1A083B1A083B1A083B1A083BC9
:1053D8001A083B1B083B1A083B1A083B1A083B1AD9
:1053E800083B1A083B1A083B1A083B1A083B1A08DC
:1053F8003B1A083B1A083B1A083B1A083B1A083B99
:105408001A083B1A083B1A083B1B083C220B422D82
:1054180010473713493B164C3B174C3B174C3B186E
:105428004F3B19553B19553B19553B19553C1955D7
:105438004019554119553E19553B19553B19553BCE
:1054480019553B19553B19553B19553B19553B19EE
:10545800553B19553E19553E19553D19553B19559A
:105468003B19553B19553B19553B19553B19553BAC
:1054780019553B19553A185434174D2E144C291107
:1054880048250E43200B431E09421D083E1B083BBE
:105498001A083B1A083B1A083B1A083B1A083B1A19
:1054A800083B1A083B1A083B1A083B1A083B1A081B
:1054B8003B1A083B1A083B1A083B1A083B1A083BD8
:1054C8001A083B1A083B1A083B1A083B1A083B1AE9
:1054D800083B1A083B1A083B1A083B1A083B1A08EB
:1054E8003B1A083B1A083B1A083B1A083B1A083BA8
:1054F8001A083B1A083B1A083B1A083B1A083B1AB9
:10550800083B1A083B1A083B1A083B1A083B1A08BA
:105518003B1A083B1A083B1A083B1A083B1A083B77
:105528001A083B1A083B1A083B1A083B1A083B1A88
:10553800083B1A083B1A083B1A083B1A083B1A088A
:105548003B1A083B1A083B1A083B1A083B1A083B47
:105558001A083B1A083B1A083B1A083B1A083B1A58
:10556800083B1A083B1A083B1A083B1A083B1A085A
:105578003B1A083B1A083B1A083B1A083B1A083B17
:105588001A083B1A083B1A083B1A083B1A083B1A28
:10559800083B1A083B1A083B1A083B1A083B1A082A
:1055A8003B1A083B1A083B1A083B1A083B1A083BE7
:1055B8001A083B1A083B1A083B1A083B1A083B1AF8
:1055C800083B1A083B1A083B1A083B1A083B1A08FA
:1055D8003B1A083B1A083B1A083B1A083B1A083BB7
:1055E8001A083B1A083B1A083B1A083B1A083B1AC8
:1055F800083B1A083B1A083B1A083B1A083B1B08C9
:105608003B1B083B1B083B1B083B1B083B1A083B82
:1056180019083B19083B1B083B1B083B1B083B1B95
:10562800083B19083B19083B1A083B1B083B1B0899
:105638003B1B083B1B083B1B083B1B083B1B083B51
:105648001B083B1B083B1B083B1B083B43195543E6
:1056580019554319554217553C175536144F3111F2
:105668004C2C0E49260C44220A4320084020083BB3
:1056780020083B20083B20083B20083B20083B2013
:10568800083B20083B20083B20083B20083B20081B
:105698003B20083B20083B20083B20083B20083CD7
:1056A80020084120083E20083B20083B20083B20DA
:1056B800083B20083B20083B20083B20083C2008EA
:1056C8003C20083B20083B20084020084020083B9D
:1056D80020083B20084020084020083B20083B20A9
:1056E800083B20083B20083B20083B20083B2008BB
:1056F8003B20083B20083B20083B20083B20083B78
:1057080020083C20083B20083B20083B20083B2081
:10571800083B20083B20083B20083B20083B20088A
:105728003B20083B20083B20083B20083B20083B47
:1057380020083B20083B1E083B1B083B1B083B1B63
:10574800083B1B083B1B083C1B083B1B083B1B0872
:105758003B1B083B1B083B1B083C1B083C1B083B2E
:105768001B083B1B083B1A083B1A083B1A083B1A44
:10577800083B1A083B1A083B1A083B1A083B1A0848
:105788003B1A083B1A083B1A083B1A083B1A083B05
:105798001A083B1A083B1B083B1B083B1B083B1B12
:1057A800083B1B083B1B083B1A083B1A083B1A0816
:1057B8003B1A083B1A083B1A083B1A083B1A083BD5
:1057C8001A083B1A083B1A083B1B083C1F0A412AC7
:1057D8000E433512463B154C3B174C3C174C3C18B6
:1057E800503B19553B19553B19553B19553B195514
:1057F8003B19553B19553B19553B19553B19553B19
:1058080019553B19553B19553B19553B19553B192A
:10581800553D19554219554419554019553B1955C7
:105828003B19553B19553B19553B19553B19553BE8
:1058380019553B19553A175434164D2F124C291047
:1058480048250D43200A421C083E1A083B1A083B0B
:105858001A083B1A083B1A083B1A083B1A083B1A55
:10586800083B1A083B1A083B1A083B1A083B1A0857
:105878003B1A083B1A083B1A083B1A083B1A083B14
:105888001A083B1A083B1A083B1A083B1A083B1A25
:10589800083B1A083B1A083B1A083B1A083B1A0827
:1058A8003B1A083B1A083B1A083B1A083B1A083BE4
:1058B8001A083B1A083B1A083B1A083B1A083B1AF5
:1058C800083B1A083B1A083B1A083B1A083B1A08F7
:1058D8003B1A083B1A083B1A083B1A083B1A083BB4
:1058E8001A083B1A083B1A083B1A083B1A083B1AC5
:1058F800083B1A083B1A083B1A083B1A083B1A08C7
:105908003B1A083B1A083B1A083B1A083B1A083B83
:105918001A083B1A083B1A083B1A083B1A083B1A94
:10592800083B1A083B1A083B1A083B1A083B1A0896
:105938003B1A083B1A083B1A083B1A083B1A083B53
:105948001A083B1A083B1A083B1A083B1A083B1A64
:10595800083B1A083B1A083B1A083B1A083B1A0866
:105968003B1A083B1A083B1A083B1A083B1A083B23
:105978001A083B1A083B1A083B1A083B1A083B1A34
:10598800083B1A083B1A083B1A083B1A083B1A0836
:105998003B1A083B1A083B1A083B1A083B1A083BF3
:1059A8001A083B1A083B1A083B1A083B1A083B1A04
:1059B800083B1A083B1A083B1A083B1A083B1A0806
:1059C8003B1A083B1A083B1A083B1B083B1A083BC2
:1059D80017083B19083B1B083B1A083B1A083B1BD6
:1059E800083B19083B17083B1A083B1B083B1A08D9
:1059F8003B1A083B1A083B1A083B1A083B1A083B93
:105A08001A083B1A083B1A083B1A083B4319554326
:105A180019554319554217553C165536134F300F33
:105A2800482B0C44260A4322084420084020083BFF
:105A380020083B20083B20083B20083B20083B204F
:105A4800083B20083B20083B20083B20083B200857
:105A58003B20083B20083B20083B20083B20083B14
:105A680020083C20083B20083B20083B20083B201E
:105A7800083B20083B20083B20083B200840200822
:105A88004020083B20083B20083C20083C20083BDD
:105A980020083B20083C20083C20083B20083B20ED
:105AA800083B20083B20083B20083B20083B2008F7
:105AB8003B20083B20083B20083B20083B20083CB3
:105AC80020084120083E20083B20083B20083B20B6
