:020000040800F2
:100000000000022095010408650700086707000842
:10001000690700086B0700086D0700080000000072
:100020000000000000000000000000006F07000852
:10003000710700080000000073070008750700083A
:10004000E9010408E9010408E9010408E9010408D8
:10005000E9010408E9010408E9010408E9010408C8
:10006000E9010408E9010408E9010408E9010408B8
:10007000E9010408E9010408E9010408E9010408A8
:10008000E9010408E9010408E9010408E901040898
:10009000E9010408E9010408E9010408E901040888
:1000A000E9010408E9010408E9010408E901040878
:1000B000E9010408E9010408E9010408E901040868
:1000C000E9010408E9010408E9010408E901040858
:1000D000E9010408E9010408E9010408E901040848
:1000E0007D070008E901040800000000E901040898
:1000F000E9010408E9010408E9010408E901040828
:10010000E901040889070008E9010408E901040875
:10011000E9010408E9010408E9010408E901040807
:10012000E9010408E9010408E9010408E9010408F7
:10013000E9010408E9010408E9010408E9010408E7
:10014000E9010408E90104080000000000000000C3
:10015000E9010408E9010408E9010408E9010408C7
:10016000E9010408E9010408E9010408E9010408B7
:10017000E9010408E9010408E9010408E9010408A7
:10018000E9010408E9010408E9010408E901040897
:10019000E9010408E9010408E9010408E901040887
:1001A000E9010408E9010408E9010408E901040877
:1001B000E9010408E9010408E9010408E901040867
:1001C000E9010408E9010408E9010408E901040857
:1001D000E9010408E9010408E9010408E901040847
:1001E000E9010408E9010408E9010408E901040837
:1001F000E9010408E9010408E9010408E901040827
:10020000E9010408E9010408E9010408E901040816
:10021000E9010408E9010408E9010408E901040806
:10022000E9010408E901040899070008000000003A
:10023000E9010408E9010408E9010408E9010408E6
:10024000E9010408E9010408E9010408E9010408D6
:10025000E9010408E9010408E9010408E9010408C6
:10026000E9010408E9010408E9010408E9010408B6
:10027000E9010408E9010408E9010408E9010408A6
:10028000E9010408E9010408E9010408000000008C
:08029000E9010408E90104087A
:100298007BB972B90029BEBF00204FF0004106E0CB
:1002A80008BF00281CBF6FF000414FF0FF3000F07E
:1002B80057B8ADF1080C6DE904CE002909DB002B15
:1002C8001ADB3FF0C9FFDDF804E0DDE9022304B0E2
:1002D8007047404261EB4101002B1BDB3FF0BCFF44
:1002E800DDF804E0DDE9022304B0404261EB41019E
:1002F800524263EB43037047524263EB43033FF0C0
:10030800ABFFDDF804E0DDE9022304B0404261EB15
:1003180041017047524263EB43033FF09DFFDDF814
:1003280004E0DDE9022304B0524263EB4303704763
:1003380053B94AB9002908BF00281CBF4FF0FF3144
:100348004FF0FF3000F00CB8ADF1080C6DE904CEA9
:100358003FF082FFDDF804E0DDE9022304B07047D6
:10036800704700BF10B5054C237833B9044B13B15F
:100378000448AFF300800123237010BD68000020FB
:10038800000000001C05040808B5034B1BB1034915
:100398000348AFF3008008BD000000006C00002097
:1003A8001C0504082DE9F04F8DB007AD0024079413
:1003B800089409940A940B94704BD3F8E02042F007
:1003C8000402C3F8E020D3F8E02002F0040201920E
:1003D800019AD3F8E02042F00102C3F8E020D3F8F4
:1003E800E02002F001020292029AD3F8E02042F0E3
:1003F8001002C3F8E020D3F8E02002F010020392C4
:10040800039AD3F8E02042F00202C3F8E020D3F8C0
:10041800E02002F002020492049AD3F8E02042F0AD
:100428000802C3F8E020D3F8E02002F008020592A1
:10043800059AD3F8E02042F04002C3F8E020D3F850
:10044800E03003F040030693069B22464FF47F41B9
:100458004B4802F0B0FFDFF834B122464FF4806118
:10046800584602F0A8FFDFF8288122464FF4804161
:10047800404602F0A0FFDFF81CA122467821504632
:1004880002F099FF322307930226089609940A96E8
:100498004FF00B09CDF82C9029463A4802F074FE2B
:1004A80086230793089609940A96CDF82C90294636
:1004B800354802F069FE4FF47F43079301270897F8
:1004C800099403230A9329462D4802F05DFE4FF450
:1004D80000530793089609940A96CDF82C9029465C
:1004E800504602F051FE4FF4806307930897099431
:1004F8000A942946584602F047FE802307934FF492
:100508008813089309942946404602F03DFE4FF4AB
:10051800C8530793089609940A940A230B9329460B
:10052800194802F031FE079708940997294658465A
:1005380002F02AFE4FF420530793089609940A966E
:10054800CDF82C902946404602F01EFE4FF4804319
:100558000793089709940A942946404602F014FE26
:10056800782307930897099403230A93294650464A
:1005780002F00AFE0DB0BDE8F08F00BF004402583B
:10058800001002580008025800000258000C0258D7
:10059800001802580004025872B6024B4FF4804209
:1005A8009A61FEE70018025800B583B01E4BD3F8D5
:1005B800D42042F00102C3F8D420D3F8D43003F099
:1005C80001030193019B1948194B03601D234360E4
:1005D80000238360C36003610222426108228261B2
:1005E800C36103624FF00072426201228262C362F9
:1005F80003634363836302F040FF80B9002211461E
:100608000A4802F06AFF60B9002211467A2000F019
:10061800BFFA7A2000F0CCFA03B05DF804FBFFF7CC
:10062800BBFFFFF7B9FF00BF004402588400002059
:100638004000005200B59DB04C22002109A83FF0AF
:10064800D0FD2022002101A83FF0CBFD042003F0BB
:1006580051F800230093264BDA6A22F00102DA628D
:10066800DB6A03F001030093224A936923F44043B1
:1006780043F480439361936903F440430093009BE0
:100688001C4B9B6913F4005FFAD0022309930122E3
:100698000C9240220D92129300221392042114917D
:1006A800192015901693179118930C2319931A92E1
:1006B8001B9209A800F0A0FAB0B93F2301930323C5
:1006C80002930023039304934023059306934FF466
:1006D80080620792089304210DEB010000F0E0FE10
:1006E80020B91DB05DF804FBFFF756FFFFF754FF74
:1006F800000400580048025808B503F06DF8FFF7E9
:1007080099FFFFF74FFEFFF74FFF05F0F5F90020BF
:1007180000F014F9012000F011F9022000F00EF9A0
:100728000121002000F05CF90B494FF4E1330B6024
:100738000020486008814881888100F0BFF908B12D
:10074800FFF72AFF05F0D0FB05F00CFC23F092FB25
:10075800022003F081F8F9E76C010020FEE7FEE7CC
:10076800FEE7FEE7FEE770477047704708B503F0FD
:1007780061F808BD08B5002000F078F908BD000050
:1007880008B5024804F034F808BD00BFF0000020A6
:1007980008B5024802F0D6FE08BD00BF840000205C
:1007A80082B0074BD3F8F42042F00202C3F8F420D9
:1007B800D3F8F43003F002030193019B02B07047B1
:1007C800004402582DE9F041BAB0044600213591A1
:1007D8003691379138913991C02204A83FF001FD34
:1007E80022682F4B9A4202D03AB0BDE8F0814FF40C
:1007F80080320023CDE9042304A801F0E9F8002899
:100808004AD1284BD3F8D42042F48032C3F8D420FC
:10081800D3F8D42002F480320192019AD3F8E02070
:1008280042F00402C3F8E020D3F8E02002F004020A
:100838000292029AD3F8E02042F00802C3F8E020BE
:10084800D3F8E03003F008030393039B4FF4F85305
:1008580035934FF00208CDF8D88000243794032749
:1008680038970C26399635AD29460F4802F08CFC8E
:1008780004233593CDF8D88037943897399629468C
:100888000A4802F081FC22462146312000F080F916
:10089800312000F08DF9A7E7FFF77EFEB1E700BF32
:1008A800007000520044025800080258000C025818
:1008B800F0B589B01F4BD3F8E02042F00802C3F826
:1008C800E020D3F8E02002F008020092009AD3F862
:1008D800E02042F00802C3F8E020D3F8E02002F05C
:1008E80008020192019AD3F8E82042F48022C3F862
:1008F800E820D3F8E83003F480230293029B4FF4F6
:100908008073039302240494069401230593072714
:10091800079703AE084D3146284602F035FC4FF4E0
:1009280000730393049407973146284602F02CFC81
:1009380009B0F0BD00440258000C0258022846D8FD
:1009480070B588B028BB234BD3F8E02042F00202F0
:10095800C3F8E020D3F8E03003F002030093009BD3
:100968001D4B33F81060039601230493002405946B
:1009780003230693194B53F8205003A9284602F085
:1009880003FC22463146284602F015FD204608B0F1
:1009980070BD01280DD00F4BD3F8E02042F00202C1
:1009A800C3F8E020D3F8E03003F002030293029B7F
:1009B800D6E7084BD3F8E02042F01002C3F8E02055
:1009C800D3F8E03003F010030193019BC8E76FF000
:1009D80001007047004402589C050408A405040857
:1009E80010B586B01C4BD3F8E02042F00402C3F8DF
:1009F800E020D3F8E03003F004030093009B4FF4A9
:100A08000053019302230393049341B900230293F3
:100A180001A9124802F0B8FB002006B010BD044638
:100A28004FF48813029301A90C4802F0ADFB0C4B5C
:100A380003EBC4040B49204602F031FF0A4A0021A7
:100A4800204602F023FF00220F21282000F0A0F802
:100A5800282000F0ADF8DFE70044025800080258EB
:100A6800100200200D0070168B0A000808B5034B11
:100A780003EBC00002F01AFF08BD00BF10020020FF
:100A8800704708B50020FFF7FBFF08BD08B50A4A04
:100A9800126802600A6842600C2242614A89026157
:100AA8004A6882600A89C2608A8982614FF400427A
:100AB800C26104F0F8FB08BD0000002070B938B529
:100AC8000D469422084C02FB00442046FFF7F0FE36
:100AD80029462046FFF7DAFF18B938BD6FF0010044
:100AE80070476FF00300F8E77C010020002807DB5F
:100AF80000F01F02400901239340024A42F82030C7
:100B0800704700BF00E100E0002804DB0901C9B21A
:100B1800044B1954704700F00F000901C9B2024B89
:100B28001954704700E400E014ED00E000B500F04F
:100B38000700C0F1070CBCF1040F28BF4FF0040CEC
:100B4800031D062B0FD9C31E4FF0FF3E0EFA0CF003
:100B580021EA000199400EFA03FE22EA0E0241EA58
:100B680002005DF804FB0023EEE700000649CB68AD
:100B780023F4E0631B041B0C000200F4E060034351
:100B8800024A1A43CA60704700ED00E00000FA0507
:100B980010B50446054BD868C0F30220FFF7C6FF1E
:100BA80001462046FFF7B0FF10BD00BF00ED00E092
:100BB80008B5FFF79BFF08BD0138B0F1807F0BD265
:100BC8004FF0E0235861054AF02182F823100020F5
:100BD800986107221A6170470120704700ED00E014
:100BE800044B1B6803F0F003702B01D00120704701
:100BF8000320704700ED00E0002800F0398338B585
:100C08000446036813F0010F25D0944A136903F0D2
:100C18003803926A102B15D0182B0FD06368B3F5E0
:100C2800803F3FD0002B53D18C4B1A6822F480327E
:100C38001A601A6822F480221A6038E002F003026F
:100C4800022AEBD1854B1B6813F4003F03D063687D
:100C5800002B00F00F83236813F0020F00F0A1802F
:100C68007E4A1369926A13F038035AD0182B55D06C
:100C7800E368002B00F0DE8078490A6822F0190248
:100C880013430B6002F0E2FD0546744B1B6813F03A
:100C9800040F40F0AD8002F0D9FD401B0228F4D9C2
:100CA8000320EEE26D4A136843F4803313606368EF
:100CB8002BB302F0CBFD0546684B1B6813F4003FCD
:100CC800C9D102F0C3FD401B6428F5D90320D8E23E
:100CD800B3F5A02F09D0614B1A6822F480321A604C
:100CE8001A6822F480221A60E1E75C4B1A6842F421
:100CF80080221A601A6842F480321A60D7E702F03C
:100D0800A5FD0546554B1B6813F4003FA3D002F020
:100D18009DFD401B6428F5D90320B2E212F0030FB1
:100D2800A6D14E4B1B6813F0040F03D0E368002BC9
:100D380000F0A282494A136823F01903E1680B43C3
:100D4800136002F083FD0546444B1B6813F0040F43
:100D580006D102F07BFD401B0228F5D9032090E262
:100D680002F08EFD41F20303984212D82269402A0C
:100D780007D03A494B6823F47C3343EA02334B608B
:100D88000FE0364A536823F47C3343F4003353604E
:100D980007E0324A536823F0FE43216943EA0163BE
:100DA8005360236813F0100F00F088802B4A1369F2
:100DB80003F03803926A082B56D0182B50D0E369F9
:100DC800002B00F0B880254A136843F080031360B5
:100DD80002F03CFD0546214B1B6813F4807F40F070
:100DE800888002F033FD401B0228F4D9032048E232
:100DF80002F046FD41F20303984212D82269402AC4
:100E080007D016494B6823F47C3343EA02334B601E
:100E1800C7E7124A536823F47C3343F40033536022
:100E2800BFE70E4A536823F0FE43216943EA016392
:100E38005360B6E7094A136823F00103136002F010
:100E480005FD0546054B1B6813F0040FA9D002F0F9
:100E5800FDFC401B0228F5D9032012E20044025889
:100E680002F00302012AAAD1A14B1B6813F4807F68
:100E780003D0E369802B40F0018202F001FD41F2CA
:100E88000303984212D8226A202A07D098494B684F
:100E980023F0F84343EA82634B600FE0944A5368B7
:100EA80023F0F84343F08043536007E0904AD36847
:100EB80023F07C53216A43EA0163D360236813F06B
:100EC800080F60D06369002B49D0894A536F43F0FB
:100ED8000103536702F0BAFC0546854B5B6F13F0BC
:100EE800020F50D102F0B2FC401B0228F5D90320B2
:100EF800C7E102F0C5FC41F20303984212D8226A06
:100F0800202A07D07A494B6823F0F84343EA8263E2
:100F18004B60D3E7764A536823F0F84343F08043A5
:100F28005360CBE7724AD36823F07C53216A43EAC3
:100F38000163D360C2E76E4A136823F0800313602D
:100F480002F084FC05466A4B1B6813F4807FB5D019
:100F580002F07CFC401B0228F5D9032091E1644A89
:100F6800536F23F00103536702F070FC0546604B92
:100F78005B6F13F0020F06D002F068FC401B0228DA
:100F8800F5D903207DE1236813F0200F29D0A36948
:100F98009BB1574A136843F48053136002F056FC20
:100FA8000546534B1B6813F4005F1AD102F04EFC40
:100FB800401B0228F5D9032063E14D4A136823F446
:100FC8008053136002F042FC0546494B1B6813F43A
:100FD800005F06D002F03AFC401B0228F5D9032036
:100FE8004FE1236813F0040F21D1636A002B00F04E
:100FF80047813F4A126902F03802182A00F0EE8051
:10100800022B79D03A4A136823F08073136002F0F8
:101018001DFC0446364B1B6813F0007F00F0DC8093
:1010280002F014FC001B0228F4D9032029E1314AFC
:10103800136843F48073136002F008FC05462D4BD7
:101048001B6813F4807F06D102F000FC401B642863
:10105800F5D9032015E1A368012B0AD00BBB244B5B
:101068001A6F22F001021A671A6F22F004021A6737
:1010780004E01F4A136F43F001031367A36833B3F7
:1010880002F0E4FB05461A4B1B6F13F0020FACD1BC
:1010980002F0DCFB401B41F288339842F3D903206D
:1010A800EFE0052B09D0124B1A6F22F001021A67E4
:1010B8001A6F22F004021A67E0E70D4B1A6F42F02C
:1010C80004021A671A6F42F001021A67D6E702F0A3
:1010D800BDFB0546064B1B6F13F0020F85D002F0CF
:1010E800B5FB401B41F288339842F3D90320C8E08E
:1010F8000044025800480258694A136823F0807374
:10110800136002F0A3FB0546654B1B6813F0007FD4
:1011180006D002F09BFB401B0228F5D90320B0E063
:101128005F4B996A5F4A0A40A16AE06A41EA001186
:101138000A439A62226B013AC2F30802616B0139D1
:10114800490289B20A43A16B0139090401F4FE017D
:101158000A43E16B0139090601F0FE410A431A63AB
:10116800DA6A22F00102DA625A6B6FF3CF02A16CDD
:1011780042EAC1025A63DA6A22F00C02216C0A437D
:10118800DA62DA6A22F00202616C0A43DA62DA6A27
:1011980042F48032DA62DA6A42F40032DA62DA6AF7
:1011A80042F48022DA62DA6A42F00102DA621A68EC
:1011B80042F080721A6002F049FB0446384B1B6803
:1011C80013F0007F06D102F041FB001B0228F5D97D
:1011D800032056E0002054E0002052E0304A916A93
:1011E800106B012B4ED001F00303A26A93424BD13E
:1011F800C1F30511E36A994248D1C0F30802236B91
:10120800013B9A4244D1C0F34622636B013B9A42A8
:1012180040D1C0F30642A36B013B9A423CD1C0F3D4
:101228000660E36B013B984238D11D4B5B6BC3F3FF
:10123800CC03A26C9A4201D1002022E0184AD36A5A
:1012480023F00103D36202F001FB054602F0FEFA27
:10125800A842FBD0124A536B6FF3CF03A16C43EA49
:10126800C1035363D36A43F00103D362002008E04B
:1012780001207047012004E0012002E0012000E085
:10128800002038BD0120FCE70120FAE70120F8E73B
:101298000120F6E70120F4E70120F2E70120F0E75A
:1012A800004402580CFCFFFF754B1B6903F0380320
:1012B800102B00F0DE80182B0FD0002B40F0DB80C5
:1012C8006F4B1B6813F0200F00F0D7806C4B1B6826
:1012D800C3F3C1036B48D840704710B4684B9A6A8F
:1012E80002F003029C6AC4F30510D96A01F00101F7
:1012F8005B6BC3F3CC0301FB03F307EE903AF8EE04
:10130800677A14F47C7F77D0012A4AD0022A76D0F3
:10131800002A40F091805A4B1B6813F0200F23D00D
:1013280057490A68C2F3C102564BD34007EE103A38
:10133800F8EE476A07EE100AB8EE476A86EE867A34
:101348000B6BC3F3080306EE903AF8EE666A9FED5E
:101358004E6A67EE867A76EEA77AF7EE006A77EE3F
:10136800A67A27EE277A38E007EE100AF8EE476AE1
:101378009FED466A86EE267A414B1B6BC3F3080342
:1013880006EE903AF8EE666A9FED3F6A67EE867A57
:1013980076EEA77AF7EE006A77EEA67A27EE277A36
:1013A8001BE007EE100AF8EE476A9FED396A86EEF1
:1013B800267A334B1B6BC3F3080306EE903AF8EE1C
:1013C800666A9FED316A67EE867A76EEA77AF7EE5F
:1013D800006A77EEA67A27EE277A294B1B6BC3F3B0
:1013E8004623013307EE903AF8EE677AC7EE276A8C
:1013F800FCEEE67A17EE900A5DF8044B704707EEAC
:10140800100AF8EE476A9FED236A86EE267A1C4B8F
:101418001B6BC3F3080306EE903AF8EE666A9FED7D
:101428001A6A67EE867A76EEA77AF7EE006A77EEA2
:10143800A67A27EE277AD0E707EE100AF8EE476A71
:101448009FED136A86EE267A0D4B1B6BC3F30803D8
:1014580006EE903AF8EE666A9FED0B6A67EE867ABA
:1014680076EEA77AF7EE006A77EEA67A27EE277A65
:10147800B3E709487047094870470248704700BFFA
:10148800004402580090D003000000390024744C36
:101498000024744A20BCBE4B40787D0100093D0001
:1014A800002800F0328170B50D4604469B4B1B683E
:1014B80003F00F038B420BD2984A136823F00F03F3
:1014C8000B431360136803F00F038B4240F01F8136
:1014D800236813F0040F0CD02269914B9B6903F029
:1014E80070039A4205D98E498B6923F070031A4319
:1014F8008A61236813F0080F0CD06269884BDB6996
:1015080003F070039A4205D98549CB6923F070032B
:101518001A43CA61236813F0100F0CD0A269804BDC
:10152800DB6903F4E0639A4205D97D49CB6923F46A
:10153800E0631A43CA61236813F0200F0CD0E269F4
:10154800774B1B6A03F070039A4205D974490B6AFA
:1015580023F070031A430A62236813F0020F0CD0B9
:10156800E2686F4B9B6903F00F039A4205D96C49F7
:101578008B6923F00F031A438A61236813F0010F64
:1015880041D0674A936923F47063A1680B43936160
:101598006368022B0AD0032B27D0012B2CD0604A7A
:1015A800126812F0040F06D10120ADE0126812F49F
:1015B800003F00F0AE805A490A6922F0070213433F
:1015C8000B6102F043F90646554B1B6903F03803DB
:1015D8006268B3EBC20F16D002F038F9801B41F2F3
:1015E80088339842F0D903208EE04D4A126812F0F1
:1015F800007FE0D1012087E0494A126812F4807F19
:10160800D9D1012080E0236813F0020F0CD0E268E2
:10161800434B9B6903F00F039A4205D240498B69FB
:1016280023F00F031A438A613C4B1B6803F00F0336
:10163800AB420AD9394A136823F00F032B431360CE
:10164800136803F00F03AB4265D1236813F0040F4E
:101658000CD02269324B9B6903F070039A4205D281
:101668002F498B6923F070031A438A61236813F0AA
:10167800080F0CD062692A4BDB6903F070039A42A9
:1016880005D22749CB6923F070031A43CA6123683E
:1016980013F0100F0CD0A269214BDB6903F4E0634F
:1016A8009A4205D21E49CB6923F4E0631A43CA6102
:1016B800236813F0200F0CD0E269194B1B6A03F062
:1016C80070039A4205D216490B6A23F070031A4335
:1016D8000A62FFF7E9FD12498B69C3F30323114A34
:1016E800D35C03F01F03D8408B6903F00F03D35C6E
:1016F80003F01F0320FA03F30B4A13600B4B186027
:101708000B4B186802F040F870BD012070470120AB
:10171800FAE70120F8E70120F6E700BF00200052B1
:1017280000440258DC0504081000002014000020C2
:101738000800002008B5FFF7B7FD0B4A9369C3F30B
:1017480003230A49CB5C03F01F0320FA03F39269D1
:1017580002F00F02885C00F01F0023FA00F0044A30
:101768001060044A136008BD00440258DC050408F0
:10177800100000201400002008B5FFF7DBFF054B20
:10178800DB69C3F30213044AD35C03F01F03D84098
:1017980008BD00BF00440258DC05040808B5FFF77F
:1017A800C9FF054BDB69C3F30223044AD35C03F08A
:1017B8001F03D84008BD00BF00440258DC050408D8
:1017C800404B9B6A03F00303032B79D070B50546A1
:1017D8000E463C4A136823F08063136002F036F823
:1017E8000446384B1B6813F0006F06D002F02EF841
:1017F800031B022BF5D9032070BD324B9A6A22F4E1
:101808007C32296842EA01329A626A68013AC2F374
:101818000802A9680139490289B20A43E96801390D
:10182800090401F4FE010A4329690139090601F096
:10183800FE410A439A63DA6A22F0C00269690A43E0
:10184800DA62DA6A22F02002A9690A43DA62DA6AFD
:1018580022F01002DA62DA6B6FF3CF02E96942EA2A
:10186800C102DA63DA6A42F01002DA62C6B91A46CD
:10187800DB6A43F40023D362124A136843F080639F
:10188800136001F0E3FF04460E4B1B6813F0006F72
:1018980014D101F0DBFF001B0228F5D90320ABE7C8
:1018A800012E05D0074AD36A43F40013D362E3E755
:1018B800044AD36A43F48013D362DDE700209BE730
:1018C8000120704700440258404B9B6A03F0030311
:1018D800032B79D070B505460E463C4A136823F0B1
:1018E8008053136001F0B2FF0446384B1B6813F0B5
:1018F800005F06D001F0AAFF031B022BF5D90320D5
:1019080070BD324B9A6A22F07C72296842EA015211
:101918009A626A68013AC2F30802A9680139490261
:1019280089B20A43E9680139090401F4FE010A434E
:1019380029690139090601F0FE410A431A64DA6A85
:1019480022F4406269690A43DA62DA6A22F40072B0
:10195800A9690A43DA62DA6A22F48072DA625A6C96
:101968006FF3CF02E96942EAC1025A64DA6A42F4C3
:101978008072DA62C6B91A46DB6A43F48003D3621E
:10198800124A136843F08053136001F05FFF044666
:101998000E4B1B6813F0005F14D101F057FF001BBA
:1019A8000228F5D90320ABE7012E05D0074AD36AF0
:1019B80043F08073D362E3E7044AD36A43F4000335
:1019C800D362DDE700209BE70120704700440258FE
:1019D800F8B50446036813F0006F30D0836EB3F592
:1019E800001F26D00ED8ABB1B3F5801F07D1022156
:1019F8000830FFF7E5FE054695B12E4621E00126A1
:101A080035461EE0B3F5401F01D1002508E0012648
:101A1800354616E09A4AD36A43F40033D362002568
:101A2800974A136D23F44013A16E0B4313650026E8
:101A380007E002212830FFF747FF0546DCE70026CC
:101A48003546236813F4807F14D0A36D042B31D856
:101A5800DFE803F0032229080800894AD36A43F41F
:101A68000033D3624DBB864A136D23F00703A16D83
:101A78000B431365236813F4007F3FD0E36D802B7D
:101A88002ED01FD833B3402B19D1002104F1080000
:101A9800FFF796FE054629E0002104F10800FFF74C
:101AA8008FFE0546DEE7002104F12800FFF70CFF52
:101AB8000546D7E701263546DCE72E46DAE7012654
:101AC80035461BE0C02B11D0B3F5807F0ED0012620
:101AD800354613E06A4AD36A43F40033D36205E01B
:101AE800002104F12800FFF7EFFE0546DDB9644A3E
:101AF800136D23F4E073E16D0B431365236813F44E
:101B0800806F33D0D4F8A830B3F5800F1FD00FD82A
:101B1800BBB1B3F5001F08D1002104F10800FFF79D
:101B28004FFE054619E02E46E8E7012635461DE03A
:101B3800B3F5C00F11D0B3F5000F0ED0012635460E
:101B480014E04F4AD36A43F40033D36205E000211E
:101B580004F12800FFF7B8FE0546E5B9484A936D39
:101B680023F46003D4F8A8100B439365236813F497
:101B7800006F34D0D4F8AC30B3F1007F1FD00FD849
:101B8800BBB1B3F1807F08D1002104F10800FFF751
:101B980017FE054619E02E46E8E7012635461EE001
:101BA800B3F1407F11D0B3F1806F0ED001263546D6
:101BB80015E0334AD36A43F40033D36205E00021C9
:101BC80004F12800FFF780FE0546002D33D12C4A8A
:101BD800936D23F0E063D4F8AC100B43936523684E
:101BE80013F0007F13D0E36C202B2ED028D833B10C
:101BF800102B22D1224AD36A43F40033D3625DBB4F
:101C08001F4AD36C23F03003E16C0B43D364236881
:101C180013F4805F46D0236EB3F5005F32D020D82E
:101C280043B3B3F5805F19D1002104F10800FFF731
:101C3800C7FD05462CE02E46D1E701263546E6E7E6
:101C4800302BDCD001263546E1E7022104F10800FB
:101C5800FFF7B6FD0546D2E72E46D8E701263546FA
:101C680020E0B3F5405F13D0B3F5804F10D00126C4
:101C7800354617E0024AD36A43F40033D36207E0DB
:101C880000440258002104F12800FFF71DFE054614
:101C98003DB9704A136D23F4E043216E0B4313657D
:101CA80000E02E46236813F4005F17D0636EB3F587
:101CB800003F4FD042D843B1B3F5803F3BD101211B
:101CC80004F10800FFF77CFD0546002D49D1614A63
:101CD800136D23F4E023616E0B431365236813F43B
:101CE800804F19D0D4F8B030B3F1005F4AD03DD856
:101CF80043B1B3F1805F36D1012104F10800FFF749
:101D08005FFD0546002D44D1524A936D23F0E04310
:101D1800D4F8B0100B439365236813F4004F47D0F1
:101D2800236FB3F1805F36D0B3F1005F4BD0BBB304
:101D3800012635463CE001263546CFE7B3F5802F2E
:101D4800C3D0B3F5A02FC0D0B3F5403FBDD0012616
:101D58003546C3E7012104F12800FFF7B5FD054624
:101D6800B3E72E46BAE701263546D5E7B3F1804FEB
:101D7800C8D0B3F1A04FC5D0B3F1405FC2D001269F
:101D88003546C9E7012104F12800FFF79DFD054606
:101D9800B8E72E46C0E72F4AD36A43F40033D3622C
:101DA800C5B92C4A136D23F04053216F0B431365BB
:101DB800236813F0807F1CD0A36C032B44D8DFE882
:101DC80003F0100B3C10012104F10800FFF7F8FCA8
:101DD8000546E5E72E46EBE71E4AD36A43F400338F
:101DE800D362A5BB1B4AD36C23F00303A16C0B433E
:101DF800D364236813F4800F2ED1236813F0010FE6
:101E080000F0A680E36F282B00F2A080DFE803F043
:101E18008E9E9E9E9E9E9E9E889E9E9E9E9E9E9E00
:101E2800979E9E9E9E9E9E9E8E9E9E9E9E9E9E9EE1
:101E38008E9E9E9E9E9E9E9E8E00022104F108000C
:101E4800FFF7BEFC0546CCE701263546D1E72E460E
:101E5800CFE700BF004402585A4A136843F480731E
:101E6800136001F0F3FC0746564B1B6813F4807FA0
:101E780005D101F0EBFCC01B6428F5D90325002D22
:101E88004AD1514B1B6FD4F8B420534013F4407F10
:101E98000CD04D4B1A6F22F44072196F41F4803107
:101EA8001967196F21F4803119671A67D4F8B430AB
:101EB800B3F5807F15D08DBBD4F8B43003F44072ED
:101EC800B2F5407F1ED0404A136923F47C53136156
:101ED8003D490B6FD4F8B420C2F30B0213430B67D0
:101EE8008BE701F0B3FC0746374B1B6F13F0020F6B
:101EF800E1D101F0ABFCC01B41F288339842F3D921
:101F08000325D8E73048026922F47C522F4901EAB8
:101F1800131313430361DBE72E466EE72E466CE787
:101F2800012104F10800FFF74BFC0546E5B9264AF4
:101F3800536D23F03803E16F0B43536508E001212B
:101F480004F12800FFF7C0FC0546EFE701263546F7
:101F5800236813F0020F17D0A36F052B2CD8DFE8E6
:101F680003F00B05240B0B0B2E46F1E7012104F1BE
:101F78000800FFF725FC05460DBB134A536D23F0F7
:101F88000703A16F0B435365236813F0040F30D088
:101F9800D4F89430052B00F20F81DFE813F01F000E
:101FA800190006011F001F001F00012104F128006D
:101FB800FFF78AFC0546DFE701263546E4E72E46AB
:101FC800E2E700BF0048025800440258CFFFFF0074
:101FD800012104F10800FFF7F3FB0546002D40F04E
:101FE800EE80B64A936D23F00703D4F894100B43A0
:101FF8009365236813F0200F1DD0D4F89030B3F107
:10200800005F00F0F08000F2DF804BB1B3F1805F39
:1020180040F0D780002104F10800FFF7D1FB054606
:10202800002D40F0E780A54A536D23F0E043D4F833
:1020380090100B435365236813F0400F1DD0D4F85C
:102048009C30B3F5006F00F0E98000F2D8804BB106
:10205800B3F5806F40F0D080002104F10800FFF74D
:10206800AFFB0546002D40F0E080944A936D23F4C1
:10207800E053D4F89C100B439365236813F0800F4A
:102088001DD0D4F8A030B3F5804F00F0E28000F204
:10209800D1804BB1B3F5005F40F0C980002104F155
:1020A8000800FFF78DFB0546002D40F0D980834AD4
:1020B800936D23F46043D4F8A0100B439365236811
:1020C80013F0080F0DD0D4F88430B3F5805F00F01A
:1020D800C9807A4A536D23F44053D4F884100B43D3
:1020E8005365236813F0100F0DD0D4F89830B3F56A
:1020F800807F00F0C180714A936D23F44073D4F857
:1021080098100B439365236813F4002F1CD0D4F860
:10211800A430B3F5803F00F0B980B3F5003F08D094
:10212800002B40F0BA80002104F10800FFF748FBBB
:102138000546002D40F0B480604A936D23F4403387
:10214800D4F8A4100B439365236813F4802F1CD094
:10215800D4F88830B3F5001F00F0A480B3F5401F11
:1021680008D0B3F5801F40F0A480544AD36A43F4E2
:102178000033D362002D40F09F80504A536D23F402
:102188004013D4F888100B435365236813F4803F39
:1021980000F0AC80236D002B00F09280B3F5803FF7
:1021A80000F09C8001263546A0E0012104F12800BA
:1021B800FFF78AFB054611E70126354619E72E4643
:1021C80017E70126354636E7B3F1804F3FF428AFCD
:1021D800B3F1A04F3FF424AFB3F1405F3FF420AF19
:1021E8000126354627E7022104F12800FFF76CFB9A
:1021F800054615E72E461EE7012635463DE7B3F5A9
:10220800805F3FF42FAFB3F5A05F3FF42BAFB3F57A
:10221800406F3FF427AF012635462EE7022104F12F
:102228002800FFF751FB05461CE72E4625E7012647
:10223800354644E7B3F5004F3FF436AFB3F5204FCA
:102248003FF432AFB3F5C04F3FF42EAF0126354609
:1022580035E7022104F12800FFF736FB054623E79E
:102268002E462CE7022104F12800FFF72DFB002859
:102278003FF42FAF01262CE7022104F12800FFF7D5
:1022880023FB00283FF437AF012634E7022104F18D
:102298002800FFF719FB05464BE70126354653E7AB
:1022A8002E4651E7012104F12800FFF70DFB0546F2
:1022B80060E70126354668E72E4666E7004402587F
:1022C800704AD36A43F40033D36275B96D4AD36C4C
:1022D80023F48033216D0B43D36407E0022104F11A
:1022E8000800FFF76DFA0546EFE72E46236813F05E
:1022F800005F11D1236813F4003F28D0D4F8803050
:10230800B3F5807F14D010D9B3F5007F15D0B3F59D
:10231800407F12D001261AE0022104F12800FFF7BD
:10232800D3FA0028E6D00126E4E733B101260EE00F
:10233800544AD36A43F40033D362002D69D1514A19
:10234800536D23F44073D4F880100B43536523680E
:1023580013F4801F06D04B4A136D23F00043616FBE
:102368000B431365236813F0805F07D0454A136950
:1023780023F48043D4F8B8100B431361236813F493
:10238800001F06D03F4A136D23F08073E16E0B43A4
:102398001365236813F0804F09D03A4B1A6922F469
:1023A80000421A611A69D4F8BC100A431A612368FA
:1023B800002B06DA334AD36C23F04053616D0B438C
:1023C800D364236813F4000F07D02E4A536D23F407
:1023D8004003D4F88C100B435365636813F0010F66
:1023E80019D1636813F0020F1ED1636813F0040F4C
:1023F80023D1636813F0080F28D1636813F0100F16
:102408002DD1636813F0200F32D106B10126304672
:10241800F8BD2E469BE7002104F10800FFF7D0F92C
:102428000028DED00646DCE7012104F10800FFF7AA
:10243800C7F90028D9D00646D7E7022104F10800D9
:10244800FFF7BEF90028D4D00646D2E7002104F1F0
:102458002800FFF739FA0028CFD00646CDE701213A
:1024680004F12800FFF730FA0028CAD00646C8E76A
:10247800022104F12800FFF727FA0028C5D0012619
:10248800C5E700BF0044025808B5FFF753F9054BEC
:102498001B6AC3F30213044AD35C03F01F03D8403A
:1024A80008BD00BF00440258DC05040810B4794B8D
:1024B8009A6A9C6AC4F3053CD96AC1F30011DB6BC4
:1024C800C3F3CC0301FB03F314F47C3F00F0DD807D
:1024D80002F0030207EE903AF8EE677A012A4BD031
:1024E800022A00F09880002A40F0B280694B1B68ED
:1024F80013F0200F23D067490A68C2F3C102664B64
:10250800D34007EE103AF8EE476A07EE10CAB8EE65
:10251800476A86EE867A8B6BC3F3080306EE903A19
:10252800F8EE666A9FED5D6A67EE867A76EEA77AC0
:10253800F7EE006A77EEA67A27EE277A38E007EEFC
:1025480010CAF8EE476A9FED566A86EE267A514B16
:102558009B6BC3F3080306EE903AF8EE666A9FEDAC
:102568004F6A67EE867A76EEA77AF7EE006A77EE1C
:10257800A67A27EE277A1BE007EE10CAF8EE476A1C
:102588009FED486A86EE267A424B9B6BC3F308039D
:1025980006EE903AF8EE666A9FED406A67EE867A34
:1025A80076EEA77AF7EE006A77EEA67A27EE277A14
:1025B800384A936BC3F3462307EE903AF8EE677AEE
:1025C800F7EE006A77EEA67A87EE276ABCEEC66A4F
:1025D80080ED006A936BC3F3064307EE903AF8EE7A
:1025E800677A77EEA67A87EE276ABCEEC66A80ED30
:1025F800016A936BC3F3066307EE903AF8EE677AC5
:1026080077EEA67AC7EE276AFCEEE66AC0ED026AA4
:102618005DF8044B704707EE10CAF8EE476A9FED65
:10262800226A86EE267A1B4B9B6BC3F3080306EEE1
:10263800903AF8EE666A9FED196A67EE867A76EE4A
:10264800A77AF7EE006A77EEA67A27EE277AAFE741
:1026580007EE10CAF8EE476A9FED126A86EE267AF0
:102668000C4B9B6BC3F3080306EE903AF8EE666AD0
:102678009FED0A6A67EE867A76EEA77AF7EE006A29
:1026880077EEA67A27EE277A92E700230360436065
:102698008360BDE7004402580090D0030000003971
:1026A8000024744C0024744A20BCBE4B10B4794BEF
:1026B8009A6A9C6AC4F3055CD96AC1F300215B6C11
:1026C800C3F3CC0301FB03F314F07C7F00F0DD803F
:1026D80002F0030207EE903AF8EE677A012A4BD02F
:1026E800022A00F09880002A40F0B280694B1B68EB
:1026F80013F0200F23D067490A68C2F3C102664B62
:10270800D34007EE103AF8EE476A07EE10CAB8EE63
:10271800476A86EE867A0B6CC3F3080306EE903A96
:10272800F8EE666A9FED5D6A67EE867A76EEA77ABE
:10273800F7EE006A77EEA67A27EE277A38E007EEFA
:1027480010CAF8EE476A9FED566A86EE267A514B14
:102758001B6CC3F3080306EE903AF8EE666A9FED29
:102768004F6A67EE867A76EEA77AF7EE006A77EE1A
:10277800A67A27EE277A1BE007EE10CAF8EE476A1A
:102788009FED486A86EE267A424B1B6CC3F308031A
:1027980006EE903AF8EE666A9FED406A67EE867A32
:1027A80076EEA77AF7EE006A77EEA67A27EE277A12
:1027B800384A136CC3F3462307EE903AF8EE677A6B
:1027C800F7EE006A77EEA67A87EE276ABCEEC66A4D
:1027D80080ED006A136CC3F3064307EE903AF8EEF7
:1027E800677A77EEA67A87EE276ABCEEC66A80ED2E
:1027F800016A136CC3F3066307EE903AF8EE677A42
:1028080077EEA67AC7EE276AFCEEE66AC0ED026AA2
:102818005DF8044B704707EE10CAF8EE476A9FED63
:10282800226A86EE267A1B4B1B6CC3F3080306EE5E
:10283800903AF8EE666A9FED196A67EE867A76EE48
:10284800A77AF7EE006A77EEA67A27EE277AAFE73F
:1028580007EE10CAF8EE476A9FED126A86EE267AEE
:102868000C4B1B6CC3F3080306EE903AF8EE666A4D
:102878009FED0A6A67EE867A76EEA77AF7EE006A27
:1028880077EEA67A27EE277A92E700230360436063
:102898008360BDE7004402580090D003000000396F
:1028A8000024744C0024744A20BCBE4B10B4794BED
:1028B8009A6A9C6AC4F3051CD96A01F001015B6B32
:1028C800C3F3CC0301FB03F314F47C7F00F0DD8039
:1028D80002F0030207EE903AF8EE677A012A4BD02D
:1028E800022A00F09880002A40F0B280694B1B68E9
:1028F80013F0200F23D067490A68C2F3C102664B60
:10290800D34007EE103AF8EE476A07EE10CAB8EE61
:10291800476A86EE867A0B6BC3F3080306EE903A95
:10292800F8EE666A9FED5D6A67EE867A76EEA77ABC
:10293800F7EE006A77EEA67A27EE277A38E007EEF8
:1029480010CAF8EE476A9FED566A86EE267A514B12
:102958001B6BC3F3080306EE903AF8EE666A9FED28
:102968004F6A67EE867A76EEA77AF7EE006A77EE18
:10297800A67A27EE277A1BE007EE10CAF8EE476A18
:102988009FED486A86EE267A424B1B6BC3F3080319
:1029980006EE903AF8EE666A9FED406A67EE867A30
:1029A80076EEA77AF7EE006A77EEA67A27EE277A10
:1029B800384A136BC3F3462307EE903AF8EE677A6A
:1029C800F7EE006A77EEA67A87EE276ABCEEC66A4B
:1029D80080ED006A136BC3F3064307EE903AF8EEF6
:1029E800677A77EEA67A87EE276ABCEEC66A80ED2C
:1029F800016A136BC3F3066307EE903AF8EE677A41
:102A080077EEA67AC7EE276AFCEEE66AC0ED026AA0
:102A18005DF8044B704707EE10CAF8EE476A9FED61
:102A2800226A86EE267A1B4B1B6BC3F3080306EE5D
:102A3800903AF8EE666A9FED196A67EE867A76EE46
:102A4800A77AF7EE006A77EEA67A27EE277AAFE73D
:102A580007EE10CAF8EE476A9FED116A86EE267AED
:102A68000C4B1B6BC3F3080306EE903AF8EE666A4C
:102A78009FED0A6A67EE867A76EEA77AF7EE006A25
:102A880077EEA67A27EE277A92E700230360436061
:102A98008360BDE7004402580090D003000000396D
:102AA8000024744C0024744A20BCBE4B00B58BB083
:102AB800A0F580730B432DD0A0F500730B437CD099
:102AC800A0F580630B4300F0D080A0F500630B43B2
:102AD80000F02881A0F580530B4300F08781A0F512
:102AE80000530B4300F0DF81A0F500230B4300F0F7
:102AF8002882A0F580330B4300F06B82A0F5804359
:102B08000B4300F08D82A0F50040084300F0D68208
:102B180000200CE0934B1B6D03F00703042B00F21D
:102B2800F782DFE803F007111B0325008E480BB07E
:102B38005DF804FB8B4B186810F00070F7D007A8FD
:102B4800FFF7B4FE0898F2E7864B186810F00060AB
:102B5800EDD004A8FFF7AAFC0498E8E7814B1868B1
:102B680010F00050E3D001A8FFF7A0FD0198DEE7C0
:102B78007C4AD36C03F04053126812F0040F07D05C
:102B880033B9784B1B68C3F3C1037848D840CEE704
:102B9800744A126812F4807F03D0B3F1805F00F0AA
:102BA800B982704A126812F4003F00F0B582B3F19E
:102BB800005F00F0B3820020B9E76A4B1B6D03F495
:102BC800E073802B31D015D9C02B00F0A982B3F562
:102BD800807F1ED1634AD36C03F04053126812F011
:102BE800040F2DD063BB5F4B1B68C3F3C1035F4861
:102BF800D8409CE77BB1402B09D15A4B186810F09C
:102C0800006094D004A8FFF751FC04988FE70020D7
:102C18008DE700208BE7534B186810F0007086D0C2
:102C280007A8FFF743FE089881E74E4B186810F095
:102C380000503FF47CAF01A8FFF738FD019876E714
:102C4800484A126812F4807F03D0B3F1805F00F025
:102C58006982444A126812F4003F00F06582B3F1B9
:102C6800005F00F06382002061E73E4B9B6D03F438
:102C78006003B3F5800F35D016D9B3F5C00F00F057
:102C88005782B3F5000F20D1364AD36C03F0405376
:102C9800126812F0040F30D07BBB324B1B68C3F3B1
:102CA800C1033248D84042E78BB1B3F5001F0AD1BF
:102CB8002C4B186810F000603FF439AF04A8FFF7F8
:102CC800F5FB049833E7002031E700202FE7254B78
:102CD800186810F000703FF42AAF07A8FFF7E6FD68
:102CE800089824E71F4B186810F000503FF41FAFF6
:102CF80001A8FFF7DBFC019819E71A4A126812F4D9
:102D0800807F03D0B3F1805F00F01482154A126807
:102D180012F4003F00F01082B3F1005F00F00E8261
:102D2800002004E70F4B9B6D03F0E063B3F1007FD5
:102D38003CD01DD9B3F1407F00F00282B3F1806F1F
:102D480027D1084AD36C03F04053126812F0040FDD
:102D580037D0002B35D1034B1B68C3F3C10303489D
:102D6800D840E4E6004402580080BB000090D0033D
:102D78008BB1B3F1807F0AD19A4B186810F00060CC
:102D88003FF4D5AE04A8FFF791FB0498CFE60020E6
:102D9800CDE60020CBE6934B186810F000703FF4A6
:102DA800C6AE07A8FFF782FD0898C0E68D4B1868E5
:102DB80010F000503FF4BBAE01A8FFF777FC019874
:102DC800B5E6884A126812F4807F03D0B3F1805FB9
:102DD80000F0B881834A126812F4003F00F0B48111
:102DE800B3F1005F00F0B2810020A0E67D4B1B6DBF
:102DF80003F4E043B3F5005F35D016D9B3F5405F6F
:102E080000F0A681B3F5804F20D1764AD36C03F049
:102E18004053126812F0040F30D07BBB714B1B6813
:102E2800C3F3C1037048D84081E68BB1B3F5805F26
:102E38000AD16C4B186810F000603FF478AE04A813
:102E4800FFF734FB049872E6002070E600206EE677
:102E5800644B186810F000703FF469AE07A8FFF7DC
:102E680025FD089863E65F4B186810F000503FF4A2
:102E78005EAE01A8FFF71AFC019858E6594A126895
:102E880012F4807F03D0B3F1805F00F06381554A6C
:102E9800126812F4003F00F05F81B3F1005F00F0A8
:102EA8005D81002043E64F4B1B6D03F4E023B3F52F
:102EB800403F32D00BD8B3F5803F18D0B3F5003F70
:102EC80020D013B9FEF758FC31E600202FE6B3F501
:102ED800802F2ED0B3F5A02F07D1424B186810F4DD
:102EE80000303FF424AE414821E600201FE63D4B68
:102EF800186810F000603FF41AAE04A8FFF7D6FA7D
:102F0800059814E6374B186810F000503FF40FAEE0
:102F180001A8FFF7CBFB029809E6324B186810F0BE
:102F280004003FF404AE1B68C3F3C1032E48D84025
:102F3800FDE52C4B186810F480703FF4F8AD2C4870
:102F4800F5E5284B9B6D03F44033B3F5803F10D073
:102F5800B3F5003F18D0002B40F00281214B1868D0
:102F680010F000603FF4E3AD04A8FFF79FFA04985F
:102F7800DDE51C4B186810F000503FF4D8AD01A8EF
:102F8800FFF794FB0398D2E5164AD36C03F040533D
:102F9800126812F0040F07D033B9124B1B68C3F341
:102FA800C1031148D840C2E50E4A126812F4807F66
:102FB80003D0B3F1805F00F0D5800A4A126812F49A
:102FC800003F00F0D180B3F1005F00F0CF80002017
:102FD800ADE5044BDB6C13F480330BD0ABB90020A8
:102FE800A5E500BF004402580090D00340787D0159
:102FF80000093D005F4B186810F000703FF497AD72
:1030080007A8FFF753FC089891E55A4B186810F089
:1030180000603FF48CAD04A8FFF748FA069886E5EF
:10302800544B9B6D03F0E043B3F1405F32D00BD8B3
:10303800B3F1805F18D0B3F1005F20D013B9FFF768
:1030480023FA74E5002072E5B3F1804F2ED0B3F176
:10305800A04F07D1474B186810F400303FF467AD14
:10306800454864E5002062E5424B186810F00060AE
:103078003FF45DAD04A8FFF719FA059857E53D4BF5
:10308800186810F000503FF452AD01A8FFF70EFB8E
:1030980002984CE5374B186810F004003FF447AD30
:1030A8001B68C3F3C1033548D84040E5314B186865
:1030B80010F480703FF43BAD314838E52D4B1B6D63
:1030C80003F04053B3F1805F0CD0B3F1005F14D02C
:1030D800002B4DD1274B186810F400303FF427AD72
:1030E800254824E5234B186810F000703FF41FAD05
:1030F80007A8FFF7DBFB089819E51E4B186810F0C6
:1031080000603FF414AD04A8FFF7D0F905980EE568
:1031180000200CE51A480AE5002008E5164806E5EF
:10312800184804E5164802E5002000E51248FEE4C8
:103138001448FCE41248FAE40020F8E40E48F6E4E7
:103148001048F4E40E48F2E40020F0E40A48EEE403
:103158000C48ECE40A48EAE40020E8E40648E6E41F
:103168000020E4E40648E2E40020E0E40248DEE46B
:103178000020DCE40044025840787D010090D00330
:1031880000093D000080BB00F0B583B000236BE070
:1031980085685E000324B44025EA0405CC68B44081
:1031A8002C438460456825EA0C054C68C4F3001478
:1031B8009C402C43446069E0DD08083550F8254000
:1031C80003F0070C4FEA8C0C4FF00F0E0EFA0CFEB2
:1031D80024EA0E0E0C6904FA0CF444EA0E0440F8D2
:1031E80025406BE0092400E0002404FA0EF42C4387
:1031F8000CF1020C694D45F82C404FF0B04425689D
:10320800D44325EA02064F6817F4801F01D042EA2A
:1032180005064FF0B0452E606D6804EA05064F6854
:1032280017F4001F01D042EA05064FF0B0456E6062
:10323800D5F8845004EA05064F6817F4003F01D01A
:1032480042EA05064FF0B045C5F88460D5F88050CD
:103258002C404E6816F4803F01D042EA05044FF036
:10326800B042C2F8804001330A6832FA03F400F031
:1032780092804FF0010C0CFA03FC1CEA0202F2D017
:103288004C6804F00304013C012C81D94C6804F01B
:103298000304032C0CD0C4685D004FF0030C0CFA37
:1032A80005FC24EA0C0C8C68AC4044EA0C04C460AD
:1032B8004C6804F00304022C3FF47EAF04684FEA24
:1032C800430E4FF0030C0CFA0EFC24EA0C0C4C686D
:1032D80004F0030404FA0EF444EA0C0404604C6895
:1032E80014F4403FBFD02E4CD4F8F45045F00205FA
:1032F800C4F8F450D4F8F44004F002040194019C9A
:103308004FEA930C0CF10205244C54F8255003F0B5
:10331800030E4FEA8E0E0F2404FA0EF425EA040574
:10332800204CA0423FF460AF04F58064A04222D054
:1033380004F58064A04220D004F58064A0421ED029
:1033480004F58064A0421CD004F58064A0421AD021
:1033580004F58064A04218D004F58064A04216D019
:1033680004F58064A04214D004F58064A0423FF4C0
:1033780039AF0A2439E7012437E7022435E7032463
:1033880033E7042431E705242FE706242DE7072433
:103398002BE7082429E703B0F0BD00BF000400585C
:1033A80000440258000002580369194201D0012064
:1033B8007047002070470AB1816170470904816134
:1033C8007047C368016902680B43D3604369826927
:1033D8001343C2691343026A1343426A1343C26A1E
:1033E8001343026B1343826A013A43EA82438168BA
:1033F80002680B4313614368B3F1804F1BD0036825
:1034080000225A61436B93421BDB02689BB2136232
:10341800836B002B20DB01680A6A42EA03430B62D4
:103428004368B3F1804F24D00268DBB2936203682B
:1034380000225A6270470268136943F040431361DF
:10344800DDE70268536943F480235361436B5B42B1
:1034580002689BB21362DBE70268536943F40023F6
:103468005361836B5A4201680B6A43EA02430B6259
:10347800D6E7036800229A62D9E738B5044600F017
:10348800E5F944B30546002384F83C30022384F868
:103498003D302268D36823F00103D3602368DB68DA
:1034A80013F0010F0BD000F0D1F9431B052BF5D910
:1034B8004023A366032384F83D3001200AE0204618
:1034C800FFF77FFF0020E06520666066A0660123A5
:1034D80084F83D3038BD0120FCE778B3034690F806
:1034E8003C0001282CD0012083F83C0093F83DC013
:1034F8005FFA8CF0BCF1010F04D00120002283F8A0
:103508003C20704730B41C68256915F0804F09D1FC
:1035180021631868426351B919680A6922F00042A8
:103528000A610020002283F83C2030BC70471968EB
:103538000A6942F000420A610020F3E7012070475F
:103548000220704730B583B000230193664B1D6895
:10355800664BA3FB05350168654B0B44C3F3841325
:10356800012202FA03F34FF0A44212681A4200F053
:10357800A4800446AD0A0B6813F0010F2FD0CB6866
:1035880013F0020F2BD0CB6823F00203CB60026844
:10359800936813F0800F40F09280816E41F0010132
:1035A800816613F4007F03D0A16E41F00401A16687
:1035B80013F4807F03D0A16E41F00801A16613F4D3
:1035C800806F03D0A16E41F01001A16613F4006F63
:1035D80003D0A36E43F02003A3660123536023683E
:1035E8001A6812F0100F09D0DA6812F0200F05D00F
:1035F80010225A60A36C0BB12046984723681A68BA
:1036080012F0080F09D0DA6812F0100F05D008225E
:103618005A60E36C0BB12046984723681A6812F089
:10362800040F09D0DA6812F0080F05D004225A6096
:10363800236D0BB12046984723681A6812F0020FD1
:1036480018D0DA6812F0040F14D0DA6822F03E02BB
:10365800DA6094F83D30042B36D0236802225A6091
:10366800002384F83C30012384F83D30636C0BB1AF
:1036780020469847A36E03B3042384F83D3022689C
:10368800D36823F00103D360019B01330193AB425C
:1036980004D82368DB6813F0010FF5D1002384F800
:1036A8003C302368DB6813F0010F19D0032384F83A
:1036B8003D30636D0BB12046984703B030BD816E35
:1036C80041F0020181666CE7002384F83C30012355
:1036D80084F83D30A36D002BEFD020469847ECE7E7
:1036E800012384F83D30E4E714000020B5814E1B27
:1036F800C0FFFFAD38B50446224BDB6803F0070373
:10370800062B07D01F4BDB6803F03F03834236D0FC
:10371800012038BD1B4AD36823F03F030343D3601D
:1037280000F094F80546174B5B6813F4005F07D167
:1037380000F08CF8431BB3F57A7FF4D90120E8E751
:103748002E2C18BF1E2C08D02D2C14BF00230123AB
:103758001D2C02D00BB90020DBE700F077F80446F7
:10376800084BDB6813F4803F07D100F06FF8001BAB
:10377800B0F57A7FF4D90120CBE70020C9E7002013
:10378800C7E700BF00480258104B1B780BB901204F
:10379800704710B504464FF47A70B0FBF3F30C4A47
:1037A8001068B0FBF3F0FDF707FA68B90F2C01D9E0
:1037B80001200AE0002221464FF0FF30FDF7E8F92A
:1037C800044B1C60002000E0012010BD0400002014
:1037D800140000200800002010B50320FDF7C6F9EA
:1037E800FDF762FD0F498B69C3F303230E4AD35CCF
:1037F80003F01F03D8408B6903F00F03D35C03F079
:103808001F0320FA03F3094A1360094B18600020CC
:10381800FFF7BAFF10B10124204610BD0446FCF79B
:10382800BFFFF9E700440258DC0504081000002037
:1038380014000020034B1B78034A11680B441360E3
:10384800704700BF0400002018020020014B1868D0
:10385800704700BF1802002038B50446FFF7F6FF8E
:103868000546B4F1FF3F02D0044B1B781C44FFF718
:10387800EDFF401BA042FAD338BD00BF0400002072
:10388800014B1868000C70470010005C18B121B992
:10389800426008467047012070470120704710B108
:1038A80001600020704701207047000070B5044691
:1038B8000368C3F3014503F01F0301269E40FDF78B
:1038C8008FF903280AD0074B03EB05131A68324215
:1038D80003D01E60636803B1984770BD024B03EBC9
:1038E8000513F3E7C80000588800005870B582B087
:1038F800044600230193006801F07AFD054610B1E3
:10390800284602B070BD206802F0AEF8B0F1004F52
:1039180007D00123E363E36B012B0BD02E46284627
:1039280014E00023E363206801F062FD0028F2D070
:103938000546E5E70021206801F0E1FE0028EDD00A
:103948004FF08055DCE7019B01330193019A4FF654
:10395800FE739A4213D896B90021206801F0CFFE71
:10396800D0B91249206801F0CBFF0646B0B9002152
:10397800206801F028FDC30FE5D01E46E3E7019A51
:103988004FF6FE739A420CD80023A36310F08043CD
:103998000AD00123A363B3E70546B1E74FF080558A
:1039A800AEE74FF08075ABE71D46A9E7000010C1F0
:1039B80070B5446A836A1F2B15D870BD306801F052
:1039C800DBFC2070C0F307236370C0F30743A370C8
:1039D800000EE07004340135072DEFD97462B36A24
:1039E800203BB362E9E706460025F5E770B582B0EB
:1039F800C469036A1F2B1CD802B070BD23780193D9
:103A0800627843EA02230193A27843EA02430193CE
:103A1800E27843EA02630193043401A9306801F0B3
:103A2800AEFC0135072DE9D9F461336A203B3362D6
:103A3800E2E706460025F5E7F0B587B005460E46ED
:103A4800FFF704FF07460021286801F0BCFC10F0CE
:103A5800007F64D14021286801F08EFD034610B133
:103A68006A6B6A635DE0696C0904286801F047FEC7
:103A7800034610B16A6B6A6353E04FF0FF3300935B
:103A880040230193602302930223039300230493AA
:103A9800012305936946286801F098FC286801F01D
:103AA80092FE034680B16A6B6A633AE0286801F0C7
:103AB80063FC46F8040B0134072CF7D9FFF7C6FE60
:103AC800C01BB0F1FF3F2FD02B685C6B14F49574CA
:103AD80004D15B6B13F4004FF0D0EDE75A6B12F092
:103AE800080F24D15A6B12F0020F22D15B6B13F02E
:103AF800200F20D12868436B13F480530CD001F0B9
:103B08003BFC46F8040BFFF7A1FEC01BB0F1FF3FDA
:103B1800F0D14FF0004304E0084A826301E04FF41B
:103B28000063184607B0F0BD4FF00043F9E70823DB
:103B3800F7E70223F5E72023F3E700BF3A0F001861
:103B4800F0B589B004460F46FFF780FE054600230E
:103B5800009301930821206801F00EFD064610B17C
:103B6800304609B0F0BD616C0904206801F0C7FD5A
:103B780006460028F4D14FF0FF330293082303933D
:103B8800302304930223059300230693012307930C
:103B980002A9206801F01AFC206801F0E2FD06463F
:103BA80030B1DDE7FFF752FE431BB3F1FF3F46D0CC
:103BB8002068426B40F22A531A420ED1436B13F429
:103BC800002FEFD1002EEDD101F0D6FB0090206838
:103BD80001F0D2FB01900136E4E7436B13F0080FC4
:103BE80024D1436B13F0020F23D1466B16F0200645
:103BF80022D1144B8363019A130203F47F0343EA2F
:103C08000263110A01F47F410B4343EA12633B60EC
:103C1800009A130203F47F0343EA0263110A01F4D2
:103C28007F410B4343EA12637B6099E7082686636A
:103C380096E70226866393E72026866390E74FF08F
:103C480000468DE73A0F001810B582B004460021EF
:103C580000910191006801F0B6FB10F0007F13D1CC
:103C680069462046FFF76CFF80B9019B13F4802F4B
:103C78000ED0616C0904206801F041FD30B90221C1
:103C8800206801F055FD01E04FF4006002B010BD5E
:103C98004FF08060FAE710B582B004460021009129
:103CA8000191006801F08FFB10F0007F13D1694685
:103CB8002046FFF745FF80B9019B13F4803F0ED0E3
:103CC800616C0904206801F01AFD30B900212068F0
:103CD80001F02EFD01E04FF4006002B010BD4FF07E
:103CE8008060FAE770B581B104460E46416C09045C
:103CF800006801F04FFD054608B1284670BD002157
:103D0800206801F060FB3060F7E74FF00065F4E7EA
:103D18002DE9F04F87B005460C4616469946DDF862
:103D28004080FFF793FD002C3BD0074695F83030D4
:103D38005FFA83FA012B40F0E28000236B6306EB05
:103D480009032A6D934233D8032385F830302B6852
:103D58000022DA62AB6B012B00D076024FF0FF3302
:103D680000934FEA4923019390230293022303937C
:103D78000023049305936946286801F027FB2A6805
:103D8800D36843F04003D360B9F1010F15D902237A
:103D9800EB623146286801F021FCA8B9DDF804B0CF
:103DA80028E06B6B43F000636B634FF0010AACE0F3
:103DB8006B6B43F000736B63A7E00123EB62314642
:103DC800286801F0F2FBE8E72B68524A9A636B6BAC
:103DD80003436B63012385F830300023EB6294E0E2
:103DE800ABF1200BFFF732FDC01B40451FD2B8F1E5
:103DF800000F1CD02B685E6B16F4957626D15B6B92
:103E080013F4004FEED0BBF11F0FEBD9072EE7D804
:103E1800286801F0B1FA2070C0F307236370C0F37B
:103E28000743A370000EE07004340136EEE72B68F8
:103E3800384A9A636B6B43F000436B63012385F840
:103E480030300023EB624FF0030A5EE0DA6822F0BC
:103E58004002DA602868436B13F4807F05D0B9F11B
:103E6800010F02D9AB6B032B18D12B685A6B12F0D8
:103E7800080F24D15A6B12F0020F2CD15A6B12F092
:103E8800200F34D0234A9A636B6B43F020036B6393
:103E9800012385F830300023EB6236E001F0EAFBBD
:103EA80003460028E1D02A681A4991636A6B1343D4
:103EB8006B63012385F830300023EB6225E0154A57
:103EC8009A636B6B43F008036B63012385F830300A
:103ED8000023EB6219E00F4A9A636B6B43F002030D
:103EE8006B63012385F830300023EB620DE00A4A4A
:103EF8009A63012385F830304FF0000A05E06B6BB8
:103F080043F000536B634FF0010A504607B0BDE819
:103F1800F08F00BFFF0FE01F3A0F00182DE9F04F98
:103F28008BB005460C4616469946DDF85080FFF7DB
:103F38008DFC002C3CD0074695F830305FFA83FAA8
:103F4800012B40F0EB8000236B6306EB09032A6D1D
:103F5800934234D8032385F830302B680022DA6284
:103F6800AB6B012B00D076024FF0FF3304934FEA7E
:103F780049230593902306930023079308930993F5
:103F880004A9286801F022FA2A68D36843F040039C
:103F9800D360B9F1010F17D92023EB6231462868A5
:103FA80001F04EFB0190019BB3B9DDF814B02AE093
:103FB8006B6B43F000636B634FF0010AB4E06B6B0B
:103FC80043F000736B63AFE01023EB62314628685F
:103FD80001F01DFB0190E6E72B68554A9A636B6B6D
:103FE800019A13436B63012385F830300023EB6299
:103FF8009AE0ABF1200BFFF729FCC01B404525D206
:10400800B8F1000F22D02B685E6B16F48D762CD198
:104018005B6B13F4804FEED0BBF11F0FEBD9072E6B
:10402800E7D823780393627843EA02230393A278BC
:1040380043EA02430393E27843EA026303930434B6
:1040480003A9286801F09BF90136E8E72B68384A8C
:104058009A636B6B019A13436B63012385F83030C5
:104068000023EB624FF0030A5EE0DA6822F04002B8
:10407800DA602868436B13F4807F05D0B9F1010F2B
:1040880002D9AB6B032B18D12B685A6B12F0080FAF
:1040980024D15A6B12F0020F2CD15A6B12F0100F68
:1040A80034D0234A9A636B6B43F010036B6301238C
:1040B80085F830300023EB6236E001F0DBFA034686
:1040C8000028E1D02A681A4991636A6B13436B632D
:1040D800012385F830300023EB6225E0144A9A6307
:1040E8006B6B43F008036B63012385F830300023C2
:1040F800EB6219E00E4A9A636B6B43F002036B6341
:10410800012385F830300023EB620DE0094A9A63F9
:10411800012385F830304FF0000A05E06B6B43F05F
:1041280000536B634FF0010A50460BB0BDE8F08FA7
:10413800FF0FE01F3A0F0018704700000346C26DDA
:10414800920F0A70C26DC2F383624A7090F85F20C2
:1041580002F003028A7090F85E20CA7090F85D2021
:104168000A7190F85C204A71026E120DCA80B0F88C
:10417800622002F00F020A72026EC2F3C0324A7263
:10418800026EC2F380328A72026EC2F34032CA7281
:10419800026EC2F300320A7300224A73826B002A4D
:1041A80040F08680006E40F6FC7202EA8002586E8B
:1041B80042EA90720A615A6EC2F3C2620A7593F8B3
:1041C800672002F007024A755A6EC2F342528A7596
:1041D8005A6EC2F38242CA755A6EC2F3C2320A7666
:1041E8000A6901329A64087E00F0070002308240B2
:1041F8009A6491F808C00CF00F0C012000FA0CF03A
:10420800D864400A00FB02F21A654FF400725A653E
:104218005A6EC2F380324A765A6EC2F3C6128A7652
:104228005A6E02F07F02CA769A6ED20F0A779A6E99
:10423800C2F341724A779A6EC2F382628A779A6EA3
:10424800C2F38352CA779A6EC2F3405281F8202093
:10425800002081F82100B3F86A2002F0010281F8F9
:1042680022209A6EC2F3C03281F823209A6EC2F3DC
:10427800803281F824209A6EC2F3403281F82520DA
:104288009A6EC2F3003281F826209A6EC2F3812218
:1042980081F827209A6EC2F3012281F828209B6EAC
:1042A800C3F3460381F82930012381F82A30704787
:1042B800012A11D1026E120402F47C12B0F86600D1
:1042C80002430A610A69013292029A641A654FF43C
:1042D8000072DA645A659BE7026805499163426B8C
:1042E80042F080524263012083F83000704700BFDB
:1042F800FF0FE01F30B58DB004460023ADF8023043
:10430800FFF7A4FA0546206801F044F8002867D0B2
:10431800A36B032B17D1A36B032B2FD0BDF802304F
:1043280063BB0DF10201206801F052FB034600282F
:1043380058D1FFF78BFA431B41F287329342EDD9EC
:104348004FF000434EE0206801F086FA034600284B
:1043580048D10021206801F036F8E0660421206881
:1043680001F031F820670821206801F02CF8606717
:104378000C21206801F027F8A067CCE7A36B032B7A
:104388001CD0BDF8021061640904206801F07AFAB3
:10439800034638BB0021206801F015F8E0650421C8
:1043A800206801F010F820660821206801F00BF859
:1043B80060660C21206801F006F8A06604212068D8
:1043C80001F001F8000D206401A92046FFF7B6FEB0
:1043D80058B9616C0904206801F078F9034601E0D6
:1043E8004FF0806318460DB030BD4FF08053F9E7A9
:1043F80070B588B00446002303930493059306938D
:104408004FF480300021FEF751FB38B9012084F8C1
:1044180030004FF00063636308B070BD0646050ABC
:10442800244BA3FB05352D09079508AB13E90300B9
:104438008DE8030003AB0ECB206800F085FF2068F1
:1044480000F0A2FF1C4B9E4202D96D00B6FBF5F6A8
:104458005EB92046FFF74AFA024668B1012084F89F
:104468003000636B13436363D6E71448B0FBF6F080
:104478000130FFF7F1F9ECE72046FFF73BFF024672
:1044880030B1012084F83000636B13436363C3E7E2
:104498004FF40071206801F06FF808B90020BBE7FD
:1044A800236807499963636B03436363012084F8B6
:1044B8003000B1E7598B4F01FF340C001021010087
:1044C800FF0FE01F30B591B090F83030032B59D072
:1044D80004460D466946FFF7AFFAB8B123682B4981
:1044E8009963636B03436363012584F830504FF489
:1044F8000071206801F040F8002844D02268234960
:1045080091636063012584F830503CE0009AC2F35F
:1045180081132B70C2F340136B70130A23F0FF034F
:1045280043EA12639BB26B80019A130203F47F0380
:1045380043EA0263110A01F47F410B4343EA126321
:104548006B60029BDAB22A72C3F307226A72C3F362
:104558000352AA721B0C039AD1B223F0FF030B4338
:10456800AB81C2F38523AB73C2F30123EB73C2F3B0
:1045780003132B7402F00F026A749DF81330AB74A6
:104588000025B4E70125284611B030BDFF0FE01F14
:10459800836B0B60C36B4B60036C8B60436CCB60AD
:1045A800836C0B61C36C4B61036D8B61436DCB6195
:1045B8000020704730B589B004460D46032380F8C3
:1045C8003030836B032B1CD0B1F5004F08D0B1F508
:1045D800804F0AD079B1436B43F00063436314E022
:1045E800436B43F0805343630FE0FFF72DFB636B8E
:1045F8000343636309E0FFF74EFB636B03436363A5
:1046080003E0436B43F080534363636BB3B12368A8
:104618003A4A9A6301254FF40071206800F0ACFF14
:1046280030B1236835499963636B0343636301259C
:10463800012384F83030284609B030BD4FF480306B
:104648000021FEF733FA0246002850D0636803932E
:10465800A36804930595236906936169284BA3FB16
:104668000203180EB1EB136F0CD3079108AB13E9D3
:1046780003008DE8030003AB0ECB206800F064FE56
:104688000025C8E7A36DB3F5007F08D0B3F5807F98
:1046980007D011BB1B4B9A421DD90790E6E707913B
:1046A800E4E751B9184B9A4205D9154BA3FB0223ED
:1046B8005B0E0793DAE70791D8E74B00B2FBF3F3F9
:1046C8001148834205D90E4BA3FB02235B0E0793C7
:1046D800CCE70791CAE70791C8E74B00B2FBF3F2B2
:1046E800084B9A4201D90790C0E70791BEE7636B70
:1046F80043F00063636301258DE700BFFF0FE01FF0
:10470800893BE65540787D0180F0FA0210B582B009
:1047180004460023019301A9FFF7E4FA10B1636B83
:10472800034363630198C0F3432002B010BD70B522
:1047380086B0002854D0044690F8303053B1042392
:1047480084F830302046FFF753FE38B1012528465B
:1047580006B070BD0376FCF735F8F0E701A92046EE
:10476800FFF7B0FE00283DD19DF81430DBB29DF86C
:104778001520D2B2A16B01290BD001290FD000233B
:10478800A365E1682046FFF715FF054658B10125E6
:10479800DDE71343F1D04FF40073A365F1E74FF45D
:1047A8008073A365EDE7FFF751F806462046FFF74B
:1047B800ADFF04280DD0FFF749F8801BB0F1FF3F8B
:1047C800F4D14FF000436363012384F830300325AC
:1047D800BDE700236363E362012384F83030B6E762
:1047E8000125B4E70125B2E7704770477047704765
:1047F80038B50446C56A03685A6B12F4004F02D0F4
:1048080015F0080F2AD15A6B12F4807F67D04FF445
:1048180080729A632268D16B7E4B0B40D363226807
:10482800D36B23F08053D3632268D36823F040030B
:10483800D36015F0080F25D015F0220F11D1236889
:10484800754A9A63012384F830300023E36215F037
:10485800030F13D0204601F01BFA01E0FFF7A8F878
:1048680038BD206800F006FF03460028E7D0626BD9
:10487800134363632046FFF75FFCE0E7204601F03F
:1048880002FAEDE715F0800FEAD022680023936260
:104898002268D3622268136515F0220F0ED1012316
:1048A80084F830300023E36215F0300F13D115F08F
:1048B800030FD5D0204601F0EBF9D1E7206800F0CE
:1048C800D9FE03460028EAD0626B1343636320468F
:1048D800FFF732FCE3E7204601F0D5F9E7E75A6B2A
:1048E80012F4804F02D015F0080F62D15A6B12F003
:1048F8003A0F6BD05A6B12F0020F03D0626B42F082
:10490800020262635A6B12F0080F03D0626B42F026
:10491800080262635A6B12F0200F03D0626B42F0F8
:10492800200262635A6B12F0100F03D0626B42F0E0
:1049380010026263384A9A632268D36B23F49D732A
:10494800D3632268D36823F04003D3602268D36A14
:1049580043F40053D3622268D36843F08003D360E2
:10496800206800F087FE636B034363632268D368A3
:1049780023F08003D36023684FF400629A6315F034
:10498800080F1AD115F0800F3FF46AAF636B002B44
:104998003FF466AF2268D36B23F08053D363236858
:1049A80000221A65012384F830302046FFF7C4FB43
:1049B80056E72046FFF71AF852E7012384F830300B
:1049C8000023E3622046FFF7B7FB49E75A6B12F072
:1049D800805F3FF445AF4FF080529A6323681B6DA8
:1049E80013F0040F0AD115F0200F03D02046FFF76B
:1049F800FEFE35E72046FFF7F8FE31E715F0200FF9
:104A080003D02046FFF7F2FE2AE72046FFF7ECFE28
:104A180026E700BFC53EFFFF3A0F0018026852E8BC
:104A2800003F23F4907342E800310029F6D1026870
:104A380002F1080353E8001F0D4B0B40083242E80F
:104A480000310029F3D1C36E012B06D02023C0F812
:104A58008C300023C36643677047026852E8003F02
:104A680023F0100342E800310029F6D1EEE700BF39
:104A7800FEFFFFEF7047000070B586B004468368FC
:104A88000269134342691343C26913430168086802
:104A9800884A02401A430A602268536823F4405344
:104AA800E1680B435360A1692268834B9A4201D0A5
:104AB800236A19439068814B03400B439360226833
:104AC800D36A23F00F03616A0B43D36223687C4ADD
:104AD800934221D07B4A934200F08C807A4A9342D9
:104AE80000F0A280794A934200F0B580784A934258
:104AF80000F0C880774A934200F0F480764A9342E7
:104B080000F01981754A934200F02C816A4A934259
:104B180000F03F8180223BE0714A526D02F038027A
:104B2800282A34D8DFE812F0290033003300330094
:104B380033003300330033004D01330033003300BA
:104B480033003300330033002B00330033003300CD
:104B580033003300330033002D00330033003300BB
:104B680033003300330033002F00330033003300A9
:104B780033003300330033003100012208E00822FB
:104B880006E0102204E0202202E0402200E0802219
:104B980049498B4200F02781E069B0F5004F00F0E9
:104BA800A781202A00F2FF81202A00F24982DFE84B
:104BB80012F016021C02470247021F024702470270
:104BC80047022402470247024702470247024702B8
:104BD80047022902470247024702470247024702A3
:104BE8004702470247024702470247024702470275
:104BF800470235023A4A526D02F00702052A11D8D7
:104C0800DFE812F00600E10008000A000C000E00C0
:104C18000022BDE70822BBE71022B9E72022B7E748
:104C28004022B5E78022B3E72D4A526D02F0070211
:104C3800052A0ED8DFE802F003C90507090B002290
:104C4800A6E70822A4E71022A2E72022A0E7402234
:104C58009EE780229CE7224A526D02F00702052A4D
:104C68000ED8DFE802F003B40507090B00228FE72E
:104C780008228DE710228BE7202289E7402287E768
:104C8800802285E7164A526D02F00702052A0ED8DF
:104C9800DFE802F0039F0507090B002278E70822E6
:104CA80076E7102274E7202272E7402270E780221C
:104CB8006EE700BFF369FFCF000C0058FFF4FF1147
:104CC800001001400044004000480040004C0040F3
:104CD800005000400014014000780040007C004073
:104CE800004402587D4A526D02F03802282A20D822
:104CF800DFE802F0151F1F1F1F1F1F1F711F1F1F37
:104D08001F1F1F1F171F1F1F1F1F1F1F191F1F1FB9
:104D18001F1F1F1F1B1F1F1F1F1F1F1F1D000122DB
:104D280036E7082234E7102232E7202230E7402213
:104D38002EE780222CE7694A526D02F00702052A05
:104D48000ED8DFE802F0034A0507090B00221FE727
:104D580008221DE710221BE7202219E7402217E747
:104D6800802215E75D4A526D02F00702052A0ED827
:104D7800DFE802F003350507090B002208E70822DF
:104D880006E7102204E7202202E7402200E78022FB
:104D9800FEE602F50E32926D02F00702052A0ED8E1
:104DA800DFE802F0031F0507090B0222F0E60822DC
:104DB800EEE61022ECE62022EAE64022E8E680222F
:104DC800E6E60422E4E60422E2E60422E0E604221F
:104DD800DEE60422DCE60422DAE60422D8E604222F
:104DE800D6E60422D4E6202A27D8022AC0F01A815F
:104DF800023A1E2A00F21881DFE812F0500016016C
:104E080056001601160116015B001601160116015F
:104E18001601160116011601600016011601160189
:104E280016011601160116011601160116011601C2
:104E380016011601160116016C00402A2CD14FF4F8
:104E48000040626A264B33F81220B0FBF2F3656823
:104E580005EB4501994200F2E980B3EB053F00F20A
:104E6800E780002633463146FBF762FA090241EA39
:104E7800106100026B08C0182A46334641F1000150
:104E8800FBF756FAA0F54072164B9A4200F2D28010
:104E98002368D8603046D4E00120D2E0FDF7F4FA68
:104EA8000028CED10020CCE003A8FDF7FFFA049833
:104EB800F6E76846FDF7FAFB0198F1E7074B1B6830
:104EC80013F0200F08D0054B1B68C3F3C103064835
:104ED800D840B6E70548B4E70348B2E700440258AB
:104EE800B0050408FFFC0F000090D00300093D0046
:104EF800202A15D8202A00F29F80DFE802F03137F7
:104F08009D9D3A9D9D9D3F9D9D9D9D9D9D9D449DE3
:104F18009D9D9D9D9D9D9D9D9D9D9D9D9D9D5000A3
:104F2800402A1BD1626A4D4B33F81230B0FBF3F0C4
:104F38006268530803EB4003B3FBF2F3A3F11001DB
:104F48004FF6EF72914279D89AB222F00F02C3F36A
:104F5800420313432268D360002072E0012070E00E
:104F6800FCF70AFC0028DDD100206AE0FCF716FCFB
:104F7800F8E703A8FDF79AFA0498F3E76846FDF7FF
:104F880095FB0198EEE7364B1B6813F0200F08D00D
:104F9800334B1B68C3F3C1033248D840C2E73248D9
:104FA800C0E73048BEE7402A17D14FF40040626A94
:104FB8002A4B33F81230B0FBF3F0636800EB530070
:104FC800B0FBF3F0A0F110024FF6EF739A4242D80B
:104FD800236880B2D860002033E0012031E0FCF77C
:104FE800CBFB0028E3D100202BE0FCF7D7FBF8E748
:104FF80003A8FDF75BFA0498F3E76846FDF756FB4C
:105008000198EEE7164B1B6813F0200F08D0144BDD
:105018001B68C3F3C1031348D840C8E71248C6E762
:105028001048C4E701200CE001200AE0012008E054
:10503800012006E0012004E0012002E0012000E058
:1050480001200123A4F86A30A4F8683000236367BC
:10505800A36706B070BD0120F3E700BFB0050408E0
:10506800004402580090D00300093D00836A13F001
:10507800080F06D00268536823F40043816B0B4382
:105088005360836A13F0010F06D00268536823F453
:105098000033C16A0B435360836A13F0020F06D0D2
:1050A8000268536823F48033016B0B435360836AAF
:1050B80013F0040F06D00268536823F48023416B71
:1050C8000B435360836A13F0100F06D0026893688D
:1050D80023F48053C16B0B439360836A13F0200F52
:1050E80006D00268936823F40053016C0B43936065
:1050F800836A13F0400F0AD00268536823F48013C0
:10510800416C0B435360436CB3F5801F0BD0836A2B
:1051180013F0800F06D00268536823F40023C16C93
:105128000B43536070470268536823F4C003816CD3
:105138000B435360EBE72DE9F84305460E46174647
:105148009946DDF820802B68DC6936EA04040CBF38
:1051580001240024BC423AD1B8F1FF3FF3D0FEF756
:1051680075FBA0EB0900404534D8B8F1000F33D0E7
:105178002B681A6812F0040FE5D0B6F1400218BF88
:105188000122802EDFD0002ADDD0DA6912F0080F64
:1051980011D1DA6912F4006FD5D04FF400621A62A7
:1051A8002846FFF73BFC2023C5F89030002385F8FC
:1051B800843003200CE008241C622846FFF72EFCEC
:1051C800C5F89040002385F88430012000E00020D5
:1051D800BDE8F8830320FBE70320F9E730B583B087
:1051E80004460023C0F89030FEF730FB05462268DD
:1051F800126812F0080F10D123681B6813F0040F0F
:1052080028D12023C4F88830C4F88C300020E06608
:10521800206784F8840003B030BD6FF07E430093AC
:10522800034600224FF400112046FFF784FF0028B0
:10523800E2D0226852E8003F23F0800342E80031C0
:105248000029F6D12023C4F88830002384F884305C
:105258000320E0E76FF07E4300932B4600224FF4D3
:1052680080012046FFF767FF0028CAD0226852E86D
:10527800003F23F4907342E800310029F6D12268F8
:1052880002F1080353E8003F23F00103083242E823
:1052980000310029F3D12023C4F88C30002384F88E
:1052A80084300320B7E778B310B50446D0F88830C7
:1052B8000BB32423C4F888302268136823F0010351
:1052C8001360A36AE3B92046FFF7D6FB012811D083
:1052D8002268536823F4904353602268936823F04C
:1052E8002A0393602268136843F001031360204681
:1052F800FFF774FF10BD80F88430FFF7BBFBD8E7D9
:105308002046FFF7B3FEDEE7012070470B4B1B6812
:105318000B4AA2FB03235B0A41F2883202FB03F328
:105328001A46013B3AB1426B12F0800FF8D0054B98
:105338008363002070474FF000407047140000203E
:10534800D34D6210C500200084B00DF1040C8CE828
:105358000E000B461343039A1343049A1343059A0A
:1053680013434168034A0A4013434360002004B0D2
:10537800704700BF002CC0FFD0F8800070470B6852
:10538800C0F8803000207047036843F003030360CF
:1053980000207047006800F0030070470B688360C6
:1053A8004B688A681343CA6813430A691343C16880
:1053B800024A0A401343C36000207047C0E0FEFF62
:1053C8000069C0B270471430405870470B68436298
:1053D8004B6883628B68CA6813430A6913434A6936
:1053E8001343C26A22F0FF021343C36200207047CE
:1053F80010B586B0044600230193029303930493E7
:105408004FF48053059301A9FFF7C8FF2046FFF723
:105418007DFF06B010BD000070B505460E46514B25
:105428001B685149A1FB03135B0A03FB02F21346F5
:10543800013A002B5ED06C6B4C4B2340002BF6D00E
:1054480014F4005FF3D16B6B13F0040F06D16B6B90
:1054580013F0010F05D00120A8634DE00420A863D4
:105468004AE0434BAB632846FFF7AAFFB04201D09E
:10547800012041E000212846FFF7A5FF03463D48EB
:105488001840C8B3002B38DB13F0804F38D113F025
:10549800005F37D113F0805F36D113F0006F36D13B
:1054A80013F0806F36D113F0807F36D113F4000FDC
:1054B80036D113F4800F36D113F4001F36D113F40C
:1054C800801F36D113F4802F36D113F4003F36D124
:1054D80013F4803F36D113F4004F36D113F4804FC4
:1054E80036D113F4005F36D113F0080F36D04FF4DD
:1054F800000001E04FF0004070BD4FF00070FBE786
:105508004020F9E78020F7E74FF48070F4E74FF484
:105518000070F1E74FF48060EEE74FF40060EBE7CE
:105528004FF48050E8E74FF40050E5E74FF480402F
:10553800E2E74FF40040DFE74FF40030DCE74FF4D8
:105548008020D9E74FF40020D6E74FF48010D3E746
:105558004FF40010D0E74FF48000CDE74FF48030CF
:10556800CAE700BF14000020D34D62104500200098
:10557800C500200008E0FFFD30B587B00446019162
:10558800102502954FF480730393002304934FF47E
:105598008053059301A9FFF701FF41F2883229469C
:1055A8002046FFF739FF07B030BD30B587B0044655
:1055B8000191112502954FF48073039300230493FE
:1055C8004FF48053059301A9FFF7E8FE41F28832B2
:1055D80029462046FFF720FF07B030BD30B587B019
:1055E80004460191122502954FF48073039300231A
:1055F80004934FF48053059301A9FFF7CFFE41F2BE
:10560800883229462046FFF707FF07B030BD30B57E
:1056180087B004460191182502954FF480730393CF
:10562800002304934FF48053059301A9FFF7B6FEB6
:1056380041F2883229462046FFF7EEFE07B030BD1A
:1056480030B587B004460191192502954FF480734F
:105658000393002304934FF48053059301A9FFF7A4
:105668009DFE41F2883229462046FFF7D5FE07B055
:1056780030BD000030B587B00446002301930C25E7
:1056880002954FF48072039204934FF4805305936C
:10569800C36843F08003C360C36823F04003C3605A
:1056A80001A9FFF77BFE084A29462046FFF7B4FE0A
:1056B800E36823F08003E360B0F1007F01D007B016
:1056C80030BD0020FBE700BF00E1F50530B587B02D
:1056D80004460191072502954FF480730393002334
:1056E80004934FF48053059301A9FFF757FE41F245
:1056F800883229462046FFF78FFE07B030BD30B507
:1057080087B004460191372502954FF480730393BF
:10571800002304934FF48053059301A9FFF73EFE3D
:1057280041F2883229462046FFF776FE07B030BDA1
:1057380030B587B004460191062502954FF4807371
:105748000393002304934FF48053059301A9FFF7B3
:1057580025FE41F2883229462046FFF75DFE07B054
:1057680030BD30B587B00446002301933325029538
:105778004FF48072039204934FF48053059301A968
:10578800FFF70CFE41F2883229462046FFF744FE17
:1057980007B030BD30B587B0044601910D2502959C
:1057A8004FF480730393002304934FF480530593BD
:1057B80001A9FFF7F3FD41F2883229462046FFF799
:1057C8002BFE07B030BD30B587B0044600230193E7
:1057D8000D2502954FF48072039204934FF4805381
:1057E800059301A9FFF7DAFD41F2883229462046E0
:1057F800FFF712FE07B030BD0146144B1B68144A70
:10580800A2FB03235B0A41F2883202FB03F31A4628
:10581800013BBAB14A6B12F0450FF8D012F4005FA1
:10582800F5D14B6B13F0040F06D1486B10F0010053
:1058380005D1084B8B6370470420886370470120AB
:10584800886370474FF00040704700BF1400002085
:10585800D34D6210C500200010B586B00446002361
:105868000193022202924FF44072039204934FF480
:105878008053059301A9FFF791FD2046FFF7BCFF70
:1058880006B010BD10B586B00446019109230293F5
:105898004FF440730393002304934FF4805305930C
:1058A80001A9FFF77BFD2046FFF7A6FF06B010BD54
:1058B8000146104B1B68104AA2FB03235B0A41F206
:1058C800883202FB03F31A46013B82B14A6B12F09D
:1058D800450FF8D012F4005FF5D1486B10F00400C2
:1058E80002D1064B8B6370470420886370474FF0E2
:1058F8000040704714000020D34D6210C5002000FE
:1059080010B586B004460191292302934FF48073A1
:105918000393002304934FF48053059301A9FFF7E1
:105928003DFD2046FFF7C4FF06B010BDF8B505469B
:105938000E461746234B1B68234AA2FB03235B0A28
:1059480041F2883202FB03F31A46013B8AB36C6BBF
:1059580014F0450FF8D014F4005FF5D16B6B13F019
:10596800040F06D16B6B13F0010F05D00120A8635B
:1059780021E00420A8631EE02846FFF721FDB0427D
:1059880001D0012017E0114BAB6300212846FFF737
:105998001AFD034610F4604008D013F4804F0BD171
:1059A80013F4004F0BD04FF4805004E01B0C3B80E5
:1059B80001E04FF00040F8BD4FF40050FBE74FF412
:1059C8008030F8E714000020D34D6210C500200095
:1059D80070B586B004460D4600230193032602964F
:1059E8004FF48072039204934FF48053059301A9F6
:1059F800FFF7D4FC2A4631462046FFF797FF06B04A
:105A080070BD00000146164B1B68164AA2FB032313
:105A18005B0A41F2883202FB03F31A46013BE2B10A
:105A28004A6B12F0450FF8D012F4005FF5D14B6BBA
:105A380013F0040F0BD14B6B13F001030AD1486B21
:105A480010F040000BD040228A63184670470420AB
:105A5800886370470120886370474FF000407047A3
:105A680014000020D34D621010B586B004464FF4E0
:105A7800D5730193082302934FF480730393002393
:105A880004934FF48053059301A9FFF787FC204640
:105A9800FFF7B8FF06B010BD134B5B7A13BB10B508
:105AA800044603F0FF00104B93F809C05FFA8CFC22
:105AB8004FF0000E03F80CE093F809C003EB8C0CD0
:105AC800CCF804405C7A1C4422725A7A541CE4B222
