:020000040800F2
:1000000000000220CDCB03089506000897060008E3
:10001000990600089B0600089D06000800000000E5
:100020000000000000000000000000009F06000823
:10003000A106000800000000A3060008A5060008AD
:1000400021CC030821CC030821CC030821CC0308D0
:1000500021CC030821CC030821CC030821CC0308C0
:1000600021CC030821CC030821CC030821CC0308B0
:1000700021CC030821CC030821CC030821CC0308A0
:1000800021CC030821CC030821CC030821CC030890
:1000900021CC030821CC030821CC030821CC030880
:1000A00021CC030821CC030821CC030821CC030870
:1000B00021CC030821CC030821CC030821CC030860
:1000C00021CC030821CC030821CC030821CC030850
:1000D00021CC030821CC030821CC030821CC030840
:1000E000AD06000821CC03080000000021CC030865
:1000F00021CC030821CC030821CC030821CC030820
:1001000021CC030821CC030821CC030821CC03080F
:1001100021CC030821CC030821CC030821CC0308FF
:1001200021CC030821CC030821CC030821CC0308EF
:1001300021CC030821CC030821CC030821CC0308DF
:1001400021CC030821CC03080000000000000000BF
:1001500021CC030821CC030821CC030821CC0308BF
:1001600021CC030821CC030821CC030821CC0308AF
:1001700021CC030821CC030821CC030821CC03089F
:1001800021CC030821CC030821CC030821CC03088F
:1001900021CC030821CC030821CC030821CC03087F
:1001A00021CC030821CC030821CC030821CC03086F
:1001B00021CC030821CC030821CC030821CC03085F
:1001C00021CC030821CC030821CC030821CC03084F
:1001D00021CC030821CC030821CC030821CC03083F
:1001E00021CC030821CC030821CC030821CC03082F
:1001F00021CC030821CC030821CC030821CC03081F
:1002000021CC030821CC030821CC030821CC03080E
:1002100021CC030821CC030821CC030821CC0308FE
:1002200021CC030821CC030821CC030800000000E6
:1002300021CC030821CC030821CC030821CC0308DE
:1002400021CC030821CC030821CC030821CC0308CE
:1002500021CC030821CC030821CC030821CC0308BE
:1002600021CC030821CC030821CC030821CC0308AE
:1002700021CC030821CC030821CC030821CC03089E
:1002800021CC030821CC030821CC03080000000086
:0802900021CC030821CC030876
:100298007BB972B90029BEBF00204FF0004106E0CB
:1002A80008BF00281CBF6FF000414FF0FF3000F07E
:1002B80057B8ADF1080C6DE904CE002909DB002B15
:1002C8001ADB3CF0E5FCDDF804E0DDE9022304B0CC
:1002D8007047404261EB4101002B1BDB3CF0D8FC2E
:1002E800DDF804E0DDE9022304B0404261EB41019E
:1002F800524263EB43037047524263EB43033CF0C3
:10030800C7FCDDF804E0DDE9022304B0404261EBFC
:1003180041017047524263EB43033CF0B9FCDDF8FE
:1003280004E0DDE9022304B0524263EB4303704763
:1003380053B94AB9002908BF00281CBF4FF0FF3144
:100348004FF0FF3000F00CB8ADF1080C6DE904CEA9
:100358003CF09EFCDDF804E0DDE9022304B07047C0
:10036800704700BF10B5054C237833B9044B13B15F
:100378000448AFF300800123237010BD64000020FF
:100388000000000054CF030808B5034B1BB1034914
:100398000348AFF3008008BD00000000680000209B
:1003A80054CF03082DE9F04F8BB005AD0024059418
:1003B8000694079408940994604BD3F8E02042F01F
:1003C8000402C3F8E020D3F8E02002F0040200920F
:1003D800009AD3F8E02042F00102C3F8E020D3F8F5
:1003E800E02002F001020192019AD3F8E02042F0E5
:1003F8000202C3F8E020D3F8E02002F002020292E1
:10040800029AD3F8E02042F00802C3F8E020D3F8BB
:10041800E02002F008020392039AD3F8E02042F0A9
:100428004002C3F8E020D3F8E03003F0400304931F
:10043800049BDFF818B1224640F2FF41584601F00C
:10044800F3FBDFF80CA122464FF47071504601F01F
:10045800EBFB3B4F22464FF48041384601F0E4FB6A
:100468003223059302260696079408964FF00B0848
:10047800CDF824802946504601F0C6FA8623059314
:10048800069607940896CDF8248029462D4801F051
:10049800BBFA4FF400530593069607940896CDF8D7
:1004A80024802946284801F0AFFA40F2FF4305931B
:1004B8004FF00109CDF8189007940894294658463A
:1004C80001F0A2FA802305934FF48813069307944A
:1004D8002946384601F098FA4FF470730593CDF821
:1004E8001890079408942946504601F08DFA4FF465
:1004F800C85305930696079408940A230993294636
:10050800104801F081FA4FF420530593069607949A
:100518000896CDF824802946384601F075FA4FF43C
:1005280080430593CDF818900794089429463846D7
:1005380001F06AFA0BB0BDE8F08F00BF0044025822
:10054800001802580000025800040258000C025813
:100558000008025872B6024B4FF480429A61FEE7D7
:100568000018025800B59DB04C22002109A83CF0A3
:1005780054FB2022002101A83CF04FFB042001F08D
:1005880059FB00230093284BDA6A22F00102DA6251
:10059800DB6A03F001030093244A936923F4404380
:1005A80043F400439361936903F440430093009B31
:1005B8001E4B9B6913F4005FFAD0022309930122B2
:1005C8000C9240220D92129300221392042114914E
:1005D8002521159116930321179118930C2319932C
:1005E8001A924FF480531B9309A800F017FAB0B978
:1005F8003F230193032302930023039308230493C7
:100608004023059306934FF48062079208930221D2
:1006180001A800F057FE20B91DB05DF804FBFFF7F4
:1006280099FFFFF797FF00BF0004005800480258E1
:1006380008B501F071FBFFF795FFFFF7B3FE002047
:1006480000F08EF8012000F08BF8022000F088F806
:100658000121002000F0D6F80B494FF4E1330B607C
:100668000020486008814881888100F039F908B184
:10067800FFF770FF02F054F902F090F920F016F934
:10068800022001F089FBF9E780000020FEE7FEE781
:10069800FEE7FEE7FEE770477047704708B501F0D0
:1006A80069FB08BD08B5002000F0F2F808BD00009D
:1006B80082B0074BD3F8F42042F00202C3F8F420CA
:1006C800D3F8F43003F002030193019B02B07047A2
:1006D80000440258F0B589B01F4BD3F8E02042F02F
:1006E8000802C3F8E020D3F8E02002F008020092E4
:1006F800009AD3F8E02042F00802C3F8E020D3F8CB
:10070800E02002F008020192019AD3F8E82042F4AE
:100718008022C3F8E820D3F8E83003F4802302935A
:10072800029B4FF4807303930224049406940123DC
:1007380005930727079703AE084D3146284601F071
:1007480063F94FF4007303930494079731462846DE
:1007580001F05AF909B0F0BD00440258000C0258E3
:10076800022846D870B588B028BB234BD3F8E020C0
:1007780042F00202C3F8E020D3F8E03003F00203AD
:100788000093009B1D4B33F81060039601230493DC
:100798000024059403230693194B53F8205003A90A
:1007A800284601F031F922463146284601F03CFA44
:1007B800204608B070BD01280DD00F4BD3F8E020BB
:1007C80042F00202C3F8E020D3F8E03003F002035D
:1007D8000293029BD6E7084BD3F8E02042F01002C0
:1007E800C3F8E020D3F8E03003F010030193019B35
:1007F800C8E76FF00100704700440258D4CF0308DF
:10080800DCCF030810B586B01C4BD3F8E02042F0CB
:100818000402C3F8E020D3F8E03003F004030093A7
:10082800009B4FF40053019302230393049341B9AF
:100838000023029301A9124801F0E6F8002006B04F
:1008480010BD04464FF48813029301A90C4801F027
:10085800DBF80C4B03EBC4040B49204601F0BFFA4C
:100868000A4A0021204601F0B1FA00220F2128206F
:1008780000F0A0F8282000F0ADF8DFE700440258A7
:1008880000080258240100200D007016AF08000867
:1008980008B5034B03EBC00001F0A8FA08BD00BF80
:1008A80024010020704708B50020FFF7FBFF08BDB2
:1008B80008B50A4A126802600A6842600C2242615E
:1008C8004A8902614A6882600A89C2608A898261AB
:1008D8004FF40042C26101F0EEFE08BD00000020A6
:1008E80070B938B50D469422084C02FB00442046E6
:1008F800FFF7F0FE29462046FFF7DAFF18B938BDA2
:100908006FF0010070476FF00300F8E790000020D7
:10091800002807DB00F01F02400901239340024A28
:1009280042F82030704700BF00E100E0002804DBF7
:100938000901C9B2044B1954704700F00F000901AE
:10094800C9B2024B1954704700E400E014ED00E00E
:1009580000B500F00700C0F1070CBCF1040F28BF78
:100968004FF0040C031D062B0FD9C31E4FF0FF3E9A
:100978000EFA0CF021EA000199400EFA03FE22EA71
:100988000E0241EA02005DF804FB0023EEE70000D6
:100998000649CB6823F4E0631B041B0C000200F437
:1009A800E0600343024A1A43CA60704700ED00E062
:1009B8000000FA0510B50446054BD868C0F30220BC
:1009C800FFF7C6FF01462046FFF7B0FF10BD00BF86
:1009D80000ED00E008B5FFF79BFF08BD0138B0F156
:1009E800807F0BD24FF0E0235861054AF02182F84E
:1009F80023100020986107221A6170470120704770
:100A080000ED00E0044B1B6803F0F003702B01D0ED
:100A1800012070470320704700ED00E0002800F037
:100A2800398338B50446036813F0010F25D0944A7A
:100A3800136903F03803926A102B15D0182B0FD0C6
:100A48006368B3F5803F3FD0002B53D18C4B1A68B5
:100A580022F480321A601A6822F480221A6038E080
:100A680002F00302022AEBD1854B1B6813F4003F06
:100A780003D06368002B00F00F83236813F0020F84
:100A880000F0A1807E4A1369926A13F038035AD0A5
:100A9800182B55D0E368002B00F0DE8078490A68EF
:100AA80022F0190213430B6001F070F90546744BEC
:100AB8001B6813F0040F40F0AD8001F067F9401B8C
:100AC8000228F4D90320EEE26D4A136843F4803318
:100AD800136063682BB301F059F90546684B1B682E
:100AE80013F4003FC9D101F051F9401B6428F5D92E
:100AF8000320D8E2B3F5A02F09D0614B1A6822F47D
:100B080080321A601A6822F480221A60E1E75C4B8E
:100B18001A6842F480221A601A6842F480321A6015
:100B2800D7E701F033F90546554B1B6813F4003F2E
:100B3800A3D001F02BF9401B6428F5D90320B2E2B9
:100B480012F0030FA6D14E4B1B6813F0040F03D00D
:100B5800E368002B00F0A282494A136823F01903C6
:100B6800E1680B43136001F011F90546444B1B681B
:100B780013F0040F06D101F009F9401B0228F5D93A
:100B8800032090E201F01CF941F20303984212D8C5
:100B98002269402A07D03A494B6823F47C3343EA58
:100BA80002334B600FE0364A536823F47C3343F436
:100BB8000033536007E0324A536823F0FE4321694B
:100BC80043EA01635360236813F0100F00F0888034
:100BD8002B4A136903F03803926A082B56D0182B56
:100BE80050D0E369002B00F0B880254A136843F021
:100BF8008003136001F0CAF80546214B1B6813F403
:100C0800807F40F0888001F0C1F8401B0228F4D9A9
:100C1800032048E201F0D4F841F20303984212D8C5
:100C28002269402A07D016494B6823F47C3343EAEB
:100C380002334B60C7E7124A536823F47C3343F40A
:100C480000335360BFE70E4A536823F0FE4321691F
:100C580043EA01635360B6E7094A136823F00103C6
:100C6800136001F093F80546054B1B6813F0040F59
:100C7800A9D001F08BF8401B0228F5D9032012E215
:100C88000044025802F00302012AAAD1A14B1B68B2
:100C980013F4807F03D0E369802B40F0018201F0D8
:100CA8008FF841F20303984212D8226A202A07D00B
:100CB80098494B6823F0F84343EA82634B600FE09E
:100CC800944A536823F0F84343F08043536007E0A5
:100CD800904AD36823F07C53216A43EA0163D360C6
:100CE800236813F0080F60D06369002B49D0894A44
:100CF800536F43F00103536701F048F80546854BED
:100D08005B6F13F0020F50D101F040F8401B02282E
:100D1800F5D90320C7E101F053F841F203039842E3
:100D280012D8226A202A07D07A494B6823F0F84360
:100D380043EA82634B60D3E7764A536823F0F8436B
:100D480043F080435360CBE7724AD36823F07C5367
:100D5800216A43EA0163D360C2E76E4A136823F04D
:100D68008003136001F012F805466A4B1B6813F400
:100D7800807FB5D001F00AF8401B0228F5D903207E
:100D880091E1644A536F23F00103536700F0FEFFBB
:100D98000546604B5B6F13F0020F06D000F0F6FFBC
:100DA800401B0228F5D903207DE1236813F0200FAA
:100DB80029D0A3699BB1574A136843F48053136041
:100DC80000F0E4FF0546534B1B6813F4005F1AD18B
:100DD80000F0DCFF401B0228F5D9032063E14D4AEF
:100DE800136823F48053136000F0D0FF0546494B85
:100DF8001B6813F4005F06D000F0C8FF401B0228F0
:100E0800F5D903204FE1236813F0040F21D1636A59
:100E1800002B00F047813F4A126902F03802182A75
:100E280000F0EE80022B79D03A4A136823F08073E1
:100E3800136000F0ABFF0446364B1B6813F0007FCD
:100E480000F0DC8000F0A2FF001B0228F4D9032088
:100E580029E1314A136843F48073136000F096FF68
:100E680005462D4B1B6813F4807F06D100F08EFFDA
:100E7800401B6428F5D9032015E1A368012B0AD08B
:100E88000BBB244B1A6F22F001021A671A6F22F06B
:100E980004021A6704E01F4A136F43F00103136743
:100EA800A36833B300F072FF05461A4B1B6F13F0AB
:100EB800020FACD100F06AFF401B41F28833984220
:100EC800F3D90320EFE0052B09D0124B1A6F22F05B
:100ED80001021A671A6F22F004021A67E0E70D4B45
:100EE8001A6F42F004021A671A6F42F001021A6779
:100EF800D6E700F04BFF0546064B1B6F13F0020FB9
:100F080085D000F043FF401B41F288339842F3D963
:100F18000320C8E00044025800480258694A136890
:100F280023F08073136000F031FF0546654B1B68A2
:100F380013F0007F06D000F029FF401B0228F5D9E6
:100F48000320B0E05F4B996A5F4A0A40A16AE06AF1
:100F580041EA00110A439A62226B013AC2F308027D
:100F6800616B0139490289B20A43A16B013909044D
:100F780001F4FE010A43E16B0139090601F0FE4163
:100F88000A431A63DA6A22F00102DA625A6B6FF3D3
:100F9800CF02A16C42EAC1025A63DA6A22F00C025B
:100FA800216C0A43DA62DA6A22F00202616C0A43AF
:100FB800DA62DA6A42F48032DA62DA6A42F40032D9
:100FC800DA62DA6A42F48022DA62DA6A42F001020C
:100FD800DA621A6842F080721A6000F0D7FE04469E
:100FE800384B1B6813F0007F06D100F0CFFE001BC2
:100FF8000228F5D9032056E0002054E0002052E0F2
:10100800304A916A106B012B4ED001F00303A26A9B
:1010180093424BD1C1F30511E36A994248D1C0F319
:101028000802236B013B9A4244D1C0F34622636B0A
:10103800013B9A4240D1C0F30642A36B013B9A425E
:101048003CD1C0F30660E36B013B984238D11D4B9D
:101058005B6BC3F3CC03A26C9A4201D1002022E05F
:10106800184AD36A23F00103D36200F08FFE0546C5
:1010780000F08CFEA842FBD0124A536B6FF3CF03EB
:10108800A16C43EAC1035363D36A43F00103D362FB
:10109800002008E001207047012004E0012002E060
:1010A800012000E0002038BD0120FCE70120FAE71C
:1010B8000120F8E70120F6E70120F4E70120F2E734
:1010C8000120F0E7004402580CFCFFFF754B1B6938
:1010D80003F03803102B00F0DE80182B0FD0002B04
:1010E80040F0DB806F4B1B6813F0200F00F0D780B7
:1010F8006C4B1B68C3F3C1036B48D840704710B4EE
:10110800684B9A6A02F003029C6AC4F30510D96A14
:1011180001F001015B6BC3F3CC0301FB03F307EEA2
:10112800903AF8EE677A14F47C7F77D0012A4AD097
:10113800022A76D0002A40F091805A4B1B6813F09F
:10114800200F23D057490A68C2F3C102564BD34037
:1011580007EE103AF8EE476A07EE100AB8EE476A4B
:1011680086EE867A0B6BC3F3080306EE903AF8EE28
:10117800666A9FED4E6A67EE867A76EEA77AF7EE94
:10118800006A77EEA67A27EE277A38E007EE100A8B
:10119800F8EE476A9FED466A86EE267A414B1B6B4E
:1011A800C3F3080306EE903AF8EE666A9FED3F6ACD
:1011B80067EE867A76EEA77AF7EE006A77EEA67A79
:1011C80027EE277A1BE007EE100AF8EE476A9FED34
:1011D800396A86EE267A334B1B6BC3F3080306EE97
:1011E800903AF8EE666A9FED316A67EE867A76EE97
:1011F800A77AF7EE006A77EEA67A27EE277A294BC8
:101208001B6BC3F34623013307EE903AF8EE677A77
:10121800C7EE276AFCEEE67A17EE900A5DF8044BF3
:10122800704707EE100AF8EE476A9FED236A86EECC
:10123800267A1C4B1B6BC3F3080306EE903AF8EEB4
:10124800666A9FED1A6A67EE867A76EEA77AF7EEF7
:10125800006A77EEA67A27EE277AD0E707EE100A1B
:10126800F8EE476A9FED136A86EE267A0D4B1B6BE4
:10127800C3F3080306EE903AF8EE666A9FED0B6A30
:1012880067EE867A76EEA77AF7EE006A77EEA67AA8
:1012980027EE277AB3E7094870470948704702489C
:1012A800704700BF004402580090D0030000003986
:1012B8000024744C0024744A20BCBE4B40787D0145
:1012C80000093D00002800F0328170B50D46044643
:1012D8009B4B1B6803F00F038B420BD2984A136891
:1012E80023F00F030B431360136803F00F038B42C3
:1012F80040F01F81236813F0040F0CD02269914B32
:101308009B6903F070039A4205D98E498B6923F0D3
:1013180070031A438A61236813F0080F0CD06269BE
:10132800884BDB6903F070039A4205D98549CB697C
:1013380023F070031A43CA61236813F0100F0CD00E
:10134800A269804BDB6903F4E0639A4205D97D49C1
:10135800CB6923F4E0631A43CA61236813F0200FB2
:101368000CD0E269774B1B6A03F070039A4205D9E7
:1013780074490B6A23F070031A430A62236813F056
:10138800020F0CD0E2686F4B9B6903F00F039A427F
:1013980005D96C498B6923F00F031A438A612368C6
:1013A80013F0010F41D0674A936923F47063A16871
:1013B8000B4393616368022B0AD0032B27D0012BC0
:1013C8002CD0604A126812F0040F06D10120ADE05B
:1013D800126812F4003F00F0AE805A490A6922F000
:1013E800070213430B6100F0D1FC0646554B1B69FD
:1013F80003F038036268B3EBC20F16D000F0C6FCE6
:10140800801B41F288339842F0D903208EE04D4A80
:10141800126812F0007FE0D1012087E0494A126883
:1014280012F4807FD9D1012080E0236813F0020FE5
:101438000CD0E268434B9B6903F00F039A4205D234
:1014480040498B6923F00F031A438A613C4B1B68A0
:1014580003F00F03AB420AD9394A136823F00F038C
:101468002B431360136803F00F03AB4265D1236865
:1014780013F0040F0CD02269324B9B6903F0700300
:101488009A4205D22F498B6923F070031A438A6167
:10149800236813F0080F0CD062692A4BDB6903F04C
:1014A80070039A4205D22749CB6923F070031A4387
:1014B800CA61236813F0100F0CD0A269214BDB69B5
:1014C80003F4E0639A4205D21E49CB6923F4E06332
:1014D8001A43CA61236813F0200F0CD0E269194B34
:1014E8001B6A03F070039A4205D216490B6A23F06F
:1014F80070031A430A62FFF7E9FD12498B69C3F3C7
:101508000323114AD35C03F01F03D8408B6903F00F
:101518000F03D35C03F01F0320FA03F30B4A136095
:101528000B4B18600B4B186800F0CEFB70BD012008
:1015380070470120FAE70120F8E70120F6E700BF2D
:10154800002000520044025800D003080C0000207C
:10155800100000200800002008B5FFF7B7FD0B4A6F
:101568009369C3F303230A49CB5C03F01F0320FAF2
:1015780003F3926902F00F02885C00F01F0023FA5F
:1015880000F0044A1060044A136008BD0044025881
:1015980000D003080C0000201000002008B5FFF759
:1015A800DBFF054BDB69C3F30213044AD35C03F08A
:1015B8001F03D84008BD00BF0044025800D00308EC
:1015C80008B5FFF7C9FF054BDB69C3F30223044ADB
:1015D800D35C03F01F03D84008BD00BF0044025885
:1015E80000D0030808B5FFF7B7FF054B1B6AC3F324
:1015F8000213044AD35C03F01F03D84008BD00BFA0
:101608000044025800D0030810B4794B9A6A9C6AC7
:10161800C4F3053CD96AC1F30011DB6BC3F3CC03F7
:1016280001FB03F314F47C3F00F0DD8002F00302B9
:1016380007EE903AF8EE677A012A4BD0022A00F0BA
:101648009880002A40F0B280694B1B6813F0200F85
:1016580023D067490A68C2F3C102664BD34007EE3C
:10166800103AF8EE476A07EE10CAB8EE476A86EEF7
:10167800867A8B6BC3F3080306EE903AF8EE666A37
:101688009FED5D6A67EE867A76EEA77AF7EE006AD6
:1016980077EEA67A27EE277A38E007EE10CAF8EE3A
:1016A800476A9FED566A86EE267A514B9B6BC3F3C9
:1016B800080306EE903AF8EE666A9FED4F6A67EE09
:1016C800867A76EEA77AF7EE006A77EEA67A27EEA4
:1016D800277A1BE007EE10CAF8EE476A9FED486AC2
:1016E80086EE267A424B9B6BC3F3080306EE903ACC
:1016F800F8EE666A9FED406A67EE867A76EEA77A1C
:10170800F7EE006A77EEA67A27EE277A384A936BC7
:10171800C3F3462307EE903AF8EE677AF7EE006ACD
:1017280077EEA67A87EE276ABCEEC66A80ED006A75
:10173800936BC3F3064307EE903AF8EE677A77EEB9
:10174800A67A87EE276ABCEEC66A80ED016A936BBB
:10175800C3F3066307EE903AF8EE677A77EEA67A57
:10176800C7EE276AFCEEE66AC0ED026A5DF8044B34
:10177800704707EE10CAF8EE476A9FED226A86EEB8
:10178800267A1B4B9B6BC3F3080306EE903AF8EEE0
:10179800666A9FED196A67EE867A76EEA77AF7EEA3
:1017A800006A77EEA67A27EE277AAFE707EE10CA27
:1017B800F8EE476A9FED126A86EE267A0C4B9B6B11
:1017C800C3F3080306EE903AF8EE666A9FED0A6ADC
:1017D80067EE867A76EEA77AF7EE006A77EEA67A53
:1017E80027EE277A92E70023036043608360BDE712
:1017F800004402580090D003000000390024744CC3
:101808000024744A20BCBE4B10B4794B9A6A9C6A77
:10181800C4F3055CD96AC1F300215B6CC3F3CC0344
:1018280001FB03F314F07C7F00F0DD8002F003027B
:1018380007EE903AF8EE677A012A4BD0022A00F0B8
:101848009880002A40F0B280694B1B6813F0200F83
:1018580023D067490A68C2F3C102664BD34007EE3A
:10186800103AF8EE476A07EE10CAB8EE476A86EEF5
:10187800867A0B6CC3F3080306EE903AF8EE666AB4
:101888009FED5D6A67EE867A76EEA77AF7EE006AD4
:1018980077EEA67A27EE277A38E007EE10CAF8EE38
:1018A800476A9FED566A86EE267A514B1B6CC3F346
:1018B800080306EE903AF8EE666A9FED4F6A67EE07
:1018C800867A76EEA77AF7EE006A77EEA67A27EEA2
:1018D800277A1BE007EE10CAF8EE476A9FED486AC0
:1018E80086EE267A424B1B6CC3F3080306EE903A49
:1018F800F8EE666A9FED406A67EE867A76EEA77A1A
:10190800F7EE006A77EEA67A27EE277A384A136C44
:10191800C3F3462307EE903AF8EE677AF7EE006ACB
:1019280077EEA67A87EE276ABCEEC66A80ED006A73
:10193800136CC3F3064307EE903AF8EE677A77EE36
:10194800A67A87EE276ABCEEC66A80ED016A136C38
:10195800C3F3066307EE903AF8EE677A77EEA67A55
:10196800C7EE276AFCEEE66AC0ED026A5DF8044B32
:10197800704707EE10CAF8EE476A9FED226A86EEB6
:10198800267A1B4B1B6CC3F3080306EE903AF8EE5D
:10199800666A9FED196A67EE867A76EEA77AF7EEA1
:1019A800006A77EEA67A27EE277AAFE707EE10CA25
:1019B800F8EE476A9FED126A86EE267A0C4B1B6C8E
:1019C800C3F3080306EE903AF8EE666A9FED0A6ADA
:1019D80067EE867A76EEA77AF7EE006A77EEA67A51
:1019E80027EE277A92E70023036043608360BDE710
:1019F800004402580090D003000000390024744CC1
:101A08000024744A20BCBE4BF0B583B000236BE0C1
:101A180085685E000324B44025EA0405CC68B44018
:101A28002C438460456825EA0C054C68C4F300140F
:101A38009C402C43446069E0DD08083550F8254097
:101A480003F0070C4FEA8C0C4FF00F0E0EFA0CFE49
:101A580024EA0E0E0C6904FA0CF444EA0E0440F869
:101A680025406BE0092400E0002404FA0EF42C431E
:101A78000CF1020C694D45F82C404FF0B044256834
:101A8800D44325EA02064F6817F4801F01D042EAC2
:101A980005064FF0B0452E606D6804EA05064F68EC
:101AA80017F4001F01D042EA05064FF0B0456E60FA
:101AB800D5F8845004EA05064F6817F4003F01D0B2
:101AC80042EA05064FF0B045C5F88460D5F8805065
:101AD8002C404E6816F4803F01D042EA05044FF0CE
:101AE800B042C2F8804001330A6832FA03F400F0C9
:101AF80092804FF0010C0CFA03FC1CEA0202F2D0AF
:101B08004C6804F00304013C012C81D94C6804F0B2
:101B18000304032C0CD0C4685D004FF0030C0CFACE
:101B280005FC24EA0C0C8C68AC4044EA0C04C46044
:101B38004C6804F00304022C3FF47EAF04684FEABB
:101B4800430E4FF0030C0CFA0EFC24EA0C0C4C6804
:101B580004F0030404FA0EF444EA0C0404604C682C
:101B680014F4403FBFD02E4CD4F8F45045F0020591
:101B7800C4F8F450D4F8F44004F002040194019C31
:101B88004FEA930C0CF10205244C54F8255003F04D
:101B9800030E4FEA8E0E0F2404FA0EF425EA04050C
:101BA800204CA0423FF460AF04F58064A04222D0EC
:101BB80004F58064A04220D004F58064A0421ED0C1
:101BC80004F58064A0421CD004F58064A0421AD0B9
:101BD80004F58064A04218D004F58064A04216D0B1
:101BE80004F58064A04214D004F58064A0423FF458
:101BF80039AF0A2439E7012437E7022435E70324FB
:101C080033E7042431E705242FE706242DE70724CA
:101C18002BE7082429E703B0F0BD00BF00040058F3
:101C280000440258000002580AB181617047090453
:101C38008161704738B50446224BDB6803F007031F
:101C4800062B07D01F4BDB6803F03F03834236D0D7
:101C5800012038BD1B4AD36823F03F030343D360F8
:101C680000F094F80546174B5B6813F4005F07D142
:101C780000F08CF8431BB3F57A7FF4D90120E8E72C
:101C88002E2C18BF1E2C08D02D2C14BF0023012386
:101C98001D2C02D00BB90020DBE700F077F80446D2
:101CA800084BDB6813F4803F07D100F06FF8001B86
:101CB800B0F57A7FF4D90120CBE70020C9E70020EE
:101CC800C7E700BF00480258104B1B780BB901202A
:101CD800704710B504464FF47A70B0FBF3F30C4A22
:101CE8001068B0FBF3F0FEF779FE68B90F2C01D944
:101CF80001200AE0002221464FF0FF30FEF75AFE8D
:101D0800044B1C60002000E0012010BD04000020EE
:101D1800100000200800002010B50320FEF738FE50
:101D2800FFF7D4F90F498B69C3F303230E4AD35C39
:101D380003F01F03D8408B6903F00F03D35C03F053
:101D48001F0320FA03F3094A1360094B18600020A7
:101D5800FFF7BAFF10B10124204610BD0446FEF774
:101D6800A7FCF9E70044025800D003080C00002043
:101D780010000020034B1B78034A11680B441360C2
:101D8800704700BF040000202C010020014B186898
:101D9800704700BF2C01002038B50446FFF7F6FF56
:101DA8000546B4F1FF3F02D0044B1B781C44FFF7F3
:101DB800EDFF401BA042FAD338BD00BF040000204D
:101DC800014B1868000C70470010005C18B121B96D
:101DD800426008467047012070470120704710B1E3
:101DE80001600020704701207047000070B504466C
:101DF8000368C3F3014503F01F0301269E40FEF765
:101E080001FE03280AD0074B03EB05131A68324278
:101E180003D01E60636803B1984770BD024B03EBA3
:101E28000513F3E7C800005888000058026852E814
:101E3800003F23F4907342E800310029F6D102688C
:101E480002F1080353E8001F0D4B0B40083242E82B
:101E580000310029F3D1C36E012B06D02023C0F82E
:101E68008C300023C36643677047026852E8003F1E
:101E780023F0100342E800310029F6D1EEE700BF55
:101E8800FEFFFFEF7047000070B586B00446836818
:101E98000269134342691343C2691343016808681E
:101EA800884A02401A430A602268536823F4405360
:101EB800E1680B435360A1692268834B9A4201D0C1
:101EC800236A19439068814B03400B43936022684F
:101ED800D36A23F00F03616A0B43D36223687C4AF9
:101EE800934221D07B4A934200F08C807A4A9342F5
:101EF80000F0A280794A934200F0B580784A934274
:101F080000F0C880774A934200F0F480764A934202
:101F180000F01981754A934200F02C816A4A934275
:101F280000F03F8180223BE0714A526D02F0380296
:101F3800282A34D8DFE812F02900330033003300B0
:101F480033003300330033004D01330033003300D6
:101F580033003300330033002B00330033003300E9
:101F680033003300330033002D00330033003300D7
:101F780033003300330033002F00330033003300C5
:101F880033003300330033003100012208E0082217
:101F980006E0102204E0202202E0402200E0802235
:101FA80049498B4200F02781E069B0F5004F00F005
:101FB800A781202A00F2FF81202A00F24982DFE867
:101FC80012F016021C02470247021F02470247028C
:101FD80047022402470247024702470247024702D4
:101FE80047022902470247024702470247024702BF
:101FF8004702470247024702470247024702470291
:10200800470235023A4A526D02F00702052A11D8F2
:10201800DFE812F00600E10008000A000C000E00DC
:102028000022BDE70822BBE71022B9E72022B7E764
:102038004022B5E78022B3E72D4A526D02F007022D
:10204800052A0ED8DFE802F003C90507090B0022AC
:10205800A6E70822A4E71022A2E72022A0E7402250
:102068009EE780229CE7224A526D02F00702052A69
:102078000ED8DFE802F003B40507090B00228FE74A
:1020880008228DE710228BE7202289E7402287E784
:10209800802285E7164A526D02F00702052A0ED8FB
:1020A800DFE802F0039F0507090B002278E7082202
:1020B80076E7102274E7202272E7402270E7802238
:1020C8006EE700BFF369FFCF000C0058FFF4FF1163
:1020D800001001400044004000480040004C00400F
:1020E800005000400014014000780040007C00408F
:1020F800004402587D4A526D02F03802282A20D83E
:10210800DFE802F0151F1F1F1F1F1F1F711F1F1F52
:102118001F1F1F1F171F1F1F1F1F1F1F191F1F1FD5
:102128001F1F1F1F1B1F1F1F1F1F1F1F1D000122F7
:1021380036E7082234E7102232E7202230E740222F
:102148002EE780222CE7694A526D02F00702052A21
:102158000ED8DFE802F0034A0507090B00221FE743
:1021680008221DE710221BE7202219E7402217E763
:10217800802215E75D4A526D02F00702052A0ED843
:10218800DFE802F003350507090B002208E70822FB
:1021980006E7102204E7202202E7402200E7802217
:1021A800FEE602F50E32926D02F00702052A0ED8FD
:1021B800DFE802F0031F0507090B0222F0E60822F8
:1021C800EEE61022ECE62022EAE64022E8E680224B
:1021D800E6E60422E4E60422E2E60422E0E604223B
:1021E800DEE60422DCE60422DAE60422D8E604224B
:1021F800D6E60422D4E6202A27D8022AC0F01A817B
:10220800023A1E2A00F21881DFE812F05000160187
:1022180056001601160116015B001601160116017B
:1022280016011601160116016000160116011601A5
:1022380016011601160116011601160116011601DE
:1022480016011601160116016C00402A2CD14FF414
:102258000040626A264B33F81220B0FBF2F365683F
:1022680005EB4501994200F2E980B3EB053F00F226
:10227800E780002633463146FEF75AF8090241EA5C
:10228800106100026B08C0182A46334641F100016C
:10229800FEF74EF8A0F54072164B9A4200F2D28033
:1022A8002368D8603046D4E00120D2E0FFF79AF9DD
:1022B8000028CED10020CCE003A8FFF7A5F90498A8
:1022C800F6E76846FFF7A0FA0198F1E7074B1B68A5
:1022D80013F0200F08D0054B1B68C3F3C103064851
:1022E800D840B6E70548B4E70348B2E700440258C7
:1022F800E8CF0308FFFC0F000090D00300093D0061
:10230800202A15D8202A00F29F80DFE802F0313712
:102318009D9D3A9D9D9D3F9D9D9D9D9D9D9D449DFF
:102328009D9D9D9D9D9D9D9D9D9D9D9D9D9D5000BF
:10233800402A1BD1626A4D4B33F81230B0FBF3F0E0
:102348006268530803EB4003B3FBF2F3A3F11001F7
:102358004FF6EF72914279D89AB222F00F02C3F386
:10236800420313432268D360002072E0012070E02A
:10237800FFF714F90028DDD100206AE0FFF720F903
:10238800F8E703A8FFF740F90498F3E76846FFF772
:102398003BFA0198EEE7364B1B6813F0200F08D084
:1023A800334B1B68C3F3C1033248D840C2E73248F5
:1023B800C0E73048BEE7402A17D14FF40040626AB0
:1023C8002A4B33F81230B0FBF3F0636800EB53008C
:1023D800B0FBF3F0A0F110024FF6EF739A4242D827
:1023E800236880B2D860002033E0012031E0FFF795
:1023F800D5F80028E3D100202BE0FFF7E1F8F8E753
:1024080003A8FFF701F90498F3E76846FFF7FCF91A
:102418000198EEE7164B1B6813F0200F08D0144BF9
:102428001B68C3F3C1031348D840C8E71248C6E77E
:102438001048C4E701200CE001200AE0012008E070
:10244800012006E0012004E0012002E0012000E074
:1024580001200123A4F86A30A4F8683000236367D8
:10246800A36706B070BD0120F3E700BFE8CF0308FB
:10247800004402580090D00300093D00836A13F01D
:10248800080F06D00268536823F40043816B0B439E
:102498005360836A13F0010F06D00268536823F46F
:1024A8000033C16A0B435360836A13F0020F06D0EE
:1024B8000268536823F48033016B0B435360836ACB
:1024C80013F0040F06D00268536823F48023416B8D
:1024D8000B435360836A13F0100F06D002689368A9
:1024E80023F48053C16B0B439360836A13F0200F6E
:1024F80006D00268936823F40053016C0B43936081
:10250800836A13F0400F0AD00268536823F48013DB
:10251800416C0B435360436CB3F5801F0BD0836A47
:1025280013F0800F06D00268536823F40023C16CAF
:102538000B43536070470268536823F4C003816CEF
:102548000B435360EBE72DE9F84305460E46174663
:102558009946DDF820802B68DC6936EA04040CBF54
:1025680001240024BC423AD1B8F1FF3FF3D0FFF771
:102578000DFCA0EB0900404534D8B8F1000F33D06A
:102588002B681A6812F0040FE5D0B6F1400218BFA4
:102598000122802EDFD0002ADDD0DA6912F0080F80
:1025A80011D1DA6912F4006FD5D04FF400621A62C3
:1025B8002846FFF73BFC2023C5F89030002385F818
:1025C800843003200CE008241C622846FFF72EFC08
:1025D800C5F89040002385F88430012000E00020F1
:1025E800BDE8F8830320FBE70320F9E730B583B0A3
:1025F80004460023C0F89030FFF7C8FB0546226860
:10260800126812F0080F10D123681B6813F0040F2A
:1026180028D12023C4F88830C4F88C300020E06624
:10262800206784F8840003B030BD6FF07E430093C8
:10263800034600224FF400112046FFF784FF0028CC
:10264800E2D0226852E8003F23F0800342E80031DC
:102658000029F6D12023C4F88830002384F8843078
:102668000320E0E76FF07E4300932B4600224FF4EF
:1026780080012046FFF767FF0028CAD0226852E889
:10268800003F23F4907342E800310029F6D1226814
:1026980002F1080353E8003F23F00103083242E83F
:1026A80000310029F3D12023C4F88C30002384F8AA
:1026B80084300320B7E778B310B50446D0F88830E3
:1026C8000BB32423C4F888302268136823F001036D
:1026D8001360A36AE3B92046FFF7D6FB012811D09F
:1026E8002268536823F4904353602268936823F068
:1026F8002A0393602268136843F00103136020469D
:10270800FFF774FF10BD80F88430FFF7BBFBD8E7F4
:102718002046FFF7B3FEDEE701207047374BD3F8BA
:10272800882042F47002C3F888201A6942F0100227
:102738001A61334B1B6803F00F03062B06D8304A87
:10274800136823F00F0343F0070313602D4B1A6837
:1027580042F001021A6000221A6119682A4A0A40E6
:102768001A60274B1B6813F0080F06D0244A136819
:1027780023F00F0343F007031360224B00229A61F2
:10278800DA611A62214999622149D962214919639A
:102798005A639963DA6319645A64196821F48021C9
:1027A80019601A664FF0B042D2F8E43043F480431F
:1027B800C2F8E430184B1B686FF30F03B3F1005FE6
:1027C80003D2164B0122C3F808210E4BD3F8D4309C
:1027D80013F4805F10D10B4BD3F8D42042F480520D
:1027E800C3F8D4200E4A43F2D2011160D3F8D420A2
:1027F80022F48052C3F8D420704700BF00ED00E0F7
:1028080000200052004402587FEDF6EA000202025E
:102818000000FF01800201010010005C00800051EF
:1028280000400052054AD36823F00203D360034BEB
:102838005B6813F4005FFAD0704700BF0048025885
:102848000A4B4FF080729A614FF000729A61084902
:102858004A6902F47F42104348614FF400029A61CA
:1028680080229A614FF400729A61704700080258FA
:10287800000C02580A4B4FF480729A614FF00072B4
:102888009A6108494A6902F47F42104348614FF44B
:1028980000029A6180229A614FF400729A6170472F
:1028A80000080258000C02582DE9F0410F46154661
:1028B8001E46DDF81880002403E0385DFFF7C0FFEE
:1028C8000134AC42F9D3002403E0305DFFF7D2FFB6
:1028D80001344445F9D3BDE8F0812DE9F8430746B2
:1028E800884616461D46DDF82090002404E018F8B6
:1028F8000400FFF7A5FF0134B442F8D3002407E031
:10290800631CE85CFFF7B6FF285DFFF7B3FF0234EE
:102918004C45F5D3384639F093FDBDE8F8830000FF
:1029280070B582B0194C4FF48003A3611420FFF7EF
:1029380033FA4023A3619620FFF72EFA04F0A2FF92
:10294800134803F0A7FA134B0093134B00224FF4DC
:10295800A071F02005F018FD054639F0F5FC1FF0D0
:10296800A5FC4FF4615303FB00F420461DF09AFCCC
:10297800064640B10022009223463146284639F0E7
:10298800F0FC02B070BDFDF7E5FDF3E70008025862
:10299800951D0008E3280008B1280008F0B597B095
:1029A8003AF012F8044643F657201FF0ADFC8DF8B4
:1029B8004400C0F307238DF84530C0F307438DF872
:1029C800463000221199204627F088FAE84D09ABD5
:1029D80095E8070003C323F8022B120C1A70002491
:1029E800CDF82F40CDF83340CDF83740CDF83B40F7
:1029F800CDF83F408DF8434039F0E6FF35F022F935
:102A080006462246DB4927F0B9FA39F0DDFF0746CA
:102A18006FF07F401FF078FC8DF84800C0F3072264
:102A28008DF84920C0F307438DF84A3022461299A1
:102A3800384627F091FA09A9304635F00FF93C23BA
:102A480022460921304628F027FE01AB203595E8BB
:102A5800070003C31A70CDF80D40CDF81140CDF82A
:102A68001540CDF81940CDF81D40089439F0ACFF59
:102A780035F0E8F805462246BF4927F07FFA39F0D5
:102A8800A3FF06466FF07F401FF03EFC8DF84C0018
:102A9800C0F307228DF84D20C0F307438DF84E3060
:102AA80022461399304627F057FA01A9284635F0EF
:102AB800D5F8282322460921284628F0EDFD39F0CB
:102AC80083FF37F0A7FB054682232246092128F019
:102AD800E3FD28221146284628F092FD284635F0C5
:102AE800B1F80646A54935F0B9F8224621462846E8
:102AF80027F006FA22462146284627F022FA3046D1
:102B08002AF075F939F060FF37F084FB0546822317
:102B18003022092128F0C0FD28221146284628F035
:102B28006FFD284635F08EF80646954935F096F83B
:102B380022462146284627F0E3F922462146284620
:102B480027F0FFF930462AF052F939F03DFF37F007
:102B580061FB054682236FF02F02092128F09CFDB6
:102B680028221146284628F04BFD284635F06AF8F9
:102B78000646844935F072F822462146284627F051
:102B8800BFF922462146284627F0DBF930462AF0CD
:102B98002EF939F019FF37F03DFB0546282211467A
:102BA80028F02EFD22462146284627F0A9F982233F
:102BB80060220921284628F06FFD22462146284632
:102BC80027F0BFF9284635F03DF805466E4935F03F
:102BD80045F828462AF00BF939F0F6FE37F01AFBCB
:102BE80005462822114628F00BFD22462146284694
:102BF80027F086F982236FF05F020921284628F022
:102C08004BFD22462146284627F09BF9284635F0F9
:102C180019F805465D4935F021F828462AF0E7F805
:102C280039F0D2FE34F064FA05460A22DC2128F095
:102C3800E7FC552322460921284628F02DFD224687
:102C48006421284634F060FA39F0BEFE26F00CFD07
:102C580005469622114628F0D3FC6FF03B03224626
:102C68000921284628F018FD22462146284627F043
:102C780047F922460321284627F058F939F0A4FEDF
:102C880034F0E0FF0546424934F0E8FF414F224660
:102C98003946284627F072F939F096FE06466FF055
:102CA8007F401FF031FB8DF85000C0F307228DF8EC
:102CB8005120C0F307438DF852302246149930460C
:102CC80027F04AF969236FF063020921284628F0A2
:102CD800E3FC39F079FE34F0B5FF05462E4934F0AF
:102CE800BDFF22463946284627F048F939F06CFEE0
:102CF80006466FF07F401FF007FB8DF85400C0F3C5
:102D080007228DF85520C0F307438DF85630224628
:102D18001599304627F020F96923642209212846AD
:102D280028F0BAFC39F050FE37F074FA0546232231
:102D3800114628F065FC22462146284627F0E0F88F
:102D4800234622460121284628F0A6FC2246214691
:102D5800284627F0F6F8284634F074FF04460F4951
:102D680034F07CFF20462AF042F817B0F0BD00BFCF
:102D78006CCF0308A4D80308A843040810D003089C
:102D880014D0030818D003081CD0030820D0030867
:102D980024D00308C81604082CD0030834D003082C
:102DA80038B504460D46406808B1FFF7F9FF2368B7
:102DB80013B129462046984738BD70B505460C46DC
:102DC8000E68336823B196F8222012F0100F05D14F
:102DD800266021462846FFF7E3FF70BD0B60FFF72A
:102DE800ECFFF5E708B520B12AF028F839F05EFDC8
:102DF80008BD39F017FAF9E738B50546FFF7F2FFCD
:102E08000446284625F0CAFA1CB129462046FFF791
:102E1800D4FF38BD00B583B0FFF7E4FFA8B103695C
:102E2800ADF804301B0C8DF8063000209DF80430F6
:102E380063F307009DF8053063F30F209DF8063013
:102E480063F3174003B05DF804FB112021F018F874
:102E58008DF80400C0F307238DF80530C0F3074050
:102E68008DF80600E1E70000F8B50C46D04BD3F822
:102E7800CC51084629F0D1FF002854D00646CD4948
:102E8800204626F0D6FF002800F0B580CA49304613
:102E980026F0CFFF28B10121304629F0F1FF844206
:102EA80054D0C549304626F0C4FF28B10021304629
:102EB80029F0E6FF84424AD0304629F0AEFFBE49E9
:102EC80026F0B7FF002855D1BC49304626F0B1FF9F
:102ED80028B10021304629F0D3FF844264D0B74995
:102EE800304626F0A6FF28B10121304629F0C8FF58
:102EF800844266D0B249304626F09BFF30BB0022A0
:102F080005F16401204625F0ADFA4FF4803205F151
:102F18004C01204625F0A6FAAA4A05F15801204698
:102F280025F0A0FA12E0002205F14001204625F024
:102F380099FA4FF4803205F14C01204625F092FAB7
:102F4800A04A05F15801204625F08CFAF8BD002268
:102F580005F1B801204625F085FA042205F5987197
:102F6800204625F07FFA042205F54D71204625F00C
:102F780079FAEBE7002205F58071204625F072FA10
:102F8800002205F5B671204625F06CFA4FF4803220
:102F980005F14C01204625F065FA8A4A05F15801E9
:102FA800204625F05FFAD1E7002205F1AC01204662
:102FB80025F058FA002205F1E801204625F052FADA
:102FC800C4E7002205F14001204625F04BFA002213
:102FD80005F58071204625F045FA4FF4803205F159
:102FE8004C01204625F03EFA764A05F15801204664
:102FF80025F038FAAAE77449204626F01AFF002877
:1030080000F08480304629F008FF074620B10021EF
:1030180029F036FF86424ED0002205F17001204685
:1030280025F020FA002205F17C01204625F01AFA45
:10303800002205F5C271204625F014FA202205F178
:10304800C401204625F00EFA202205F5C871204655
:1030580025F008FA042205F59871204625F002FAB1
:10306800202205F5BC71204625F0FCF9012205F166
:103078009401204625F0F6F9802205F1D00120467A
:1030880025F0F0F95149304626F0D3FE30B95049C1
:10309800304626F0CEFE00283FF458AF002205F552
:1030A8003271204625F0DEF9202205F538712046D8
:1030B80025F0D8F94AE74049384626F0BAFE0028F4
:1030C800AAD0202205F1C401204625F0CBF901221F
:1030D80005F18801204625F0C5F9012205F5507152
:1030E800204625F0BFF9042205F59871204625F001
:1030F800B9F9082205F59E71204625F0B3F9042296
:1031080005F54D71204625F0ADF91FE731492046F8
:1031180026F08FFE30B1002205F50B71204625F010
:10312800A1F913E72C49204626F083FE002800F079
:1031380091802349304626F07CFE002858D1002291
:1031480005F16401204625F08DF905F598770422EC
:103158003946204625F086F905F59E76082231463F
:10316800204625F07FF94FF4A02205F17001204692
:1031780025F078F9194A05F1D001204625F072F9B1
:10318800174A05F1C401204625F06CF9154A05F1E6
:103198007C01204625F066F9134A3946204625F079
:1031A80061F9124A3146204625F05CF9CEE600BFA7
:1031B80030010020889304087496040830950408A8
:1031C800C09C040840000100089C0408C49A040834
:1031D800E89A0408AC930408609404088000050089
:1031E8002000050001000500040005000800050096
:1031F800002205F51771204625F034F905F5987772
:1032080004223946204625F02DF905F59E76082238
:103218003146204625F026F94FF4A02205F51A710B
:10322800204625F01FF9DD4A05F1C401204625F0A6
:1032380019F9DB4A05F1D001204625F013F9D94ADE
:103248003946204625F00EF9D74A3146204625F062
:1032580009F97BE6D549204626F0EBFD30B300227C
:1032680005F18801204625F0FDF805F5A476002231
:103278003146204625F0F6F8042205F598712046D7
:1032880025F0F0F8082205F59E71204625F0EAF8A9
:103298004FF4003205F17C01204625F0E3F84FF4A5
:1032A80000323146204625F0DDF84FE6C049204679
:1032B80026F0BFFD002841D0002205F188012046F4
:1032C80025F0D0F805F5A47600223146204625F0F1
:1032D800C9F8042205F59871204625F0C3F808229C
:1032E80005F59E71204625F0BDF84FF4003205F132
:1032F8007C01204625F0B6F84FF4003231462046CE
:1033080025F0B0F84FF4403205F5DA71204625F083
:10331800A9F8A84E324605F5BC71204625F0A2F85A
:103328004FF4403205F5C271204625F09BF832462D
:1033380005F5C871204625F095F807E69E49204610
:1033480026F077FD002852D0002205F164012046BE
:1033580025F088F8002205F1DC01204625F082F8E6
:10336800002205F5AA71204625F07CF8042205F50F
:103378009871204625F076F8082205F59E712046BA
:1033880025F070F84FF4803205F14C01204625F005
:1033980069F88A4A05F15801204625F063F84FF488
:1033A800A02205F1B801204625F05CF84FF4A022D0
:1033B80005F50E71204625F055F84FF4A02205F5C5
:1033C8008071204625F04EF8744A05F1C401204664
:1033D80025F048F8734A05F17C01204625F042F8AB
:1033E800714A05F19401204625F03CF8AEE5744990
:1033F800204626F01EFD002840D0002205F58671E3
:10340800204625F02FF8042205F59871204625F06E
:1034180029F86C4A05F1D001204625F023F84FF42D
:10342800003205F50271204625F01CF8664E32463A
:1034380005F17C01204625F015F8324605F50571A1
:10344800204625F00FF81F36324605F1C401204604
:1034580025F008F8324605F5BC71204625F002F83B
:10346800324605F5C871204624F0FCFF4FF40032BF
:1034780005F5C271204624F0F5FF67E5534920465B
:1034880026F0D7FC00284ED0002205F1AC012046DA
:1034980024F0E8FF05F5A47700223946204624F0F9
:1034A800E1FF002205F5D471204624F0DBFF8022DD
:1034B80005F1D001204624F0D5FF042205F59871C6
:1034C800204624F0CFFF404E324605F17C012046CD
:1034D80024F0C8FF4FF400323946204624F0C2FFDA
:1034E8004FF4403205F5DA71204624F0BBFF4FF463
:1034F800403205F1B801204624F0B4FF4FF44032C1
:1035080005F50871204624F0ADFF05F5C87532466B
:103518002946204624F0A6FF4FF4003229462046CB
:1035280024F0A0FF12E52A49204626F082FC002854
:1035380050D0002205F16401204624F093FF0022B8
:1035480005F1F401204624F08DFF002205F5F871FD
:10355800204624F087FF4FF4803205F14C012046C5
:1035680024F080FF154A05F15801204624F07AFF1F
:1035780005F5EC764FF4A0223146204624F072FF80
:103588004FF4003205F5F271204624F06BFF4FF43A
:10359800C0223146204624F065FFD7E4200005000C
:1035A800800005000400050008000500BC9604081A
:1035B80008960408200003003C9404084000010019
:1035C8005096040880000200010002000C950408CF
:1035D8002C9D0408D449204626F02BFC58B3002221
:1035E80005F16401204624F03DFF002205F5CE7167
:1035F800204624F037FF002205F58C71204624F080
:1036080031FF002205F59271204624F02BFF042299
:1036180005F59871204624F025FF082205F59E71CE
:10362800204624F01FFF4FF4802205F17C0120463C
:1036380024F018FF8AE4BD49204626F0FAFBB8B307
:10364800002205F16401204624F00CFF002205F158
:10365800F401204624F006FF002205F5C271204639
:1036680024F000FF05F5C87620223146204624F0D4
:10367800F9FE202205F1C401204624F0F3FE0422BD
:1036880005F59871204624F0EDFE082205F59E7197
:10369800204624F0E7FE4FF400323146204624F05D
:1036A800E1FE802205F1D001204624F0DBFE4DE446
:1036B8009F49204626F0BDFB90B3002205F1640126
:1036C800204624F0CFFE002205F58C71204624F018
:1036D800C9FE002205F5FE71204624F0C3FE4FF412
:1036E800803205F14C01204624F0BCFE914A05F1D8
:1036F8005801204624F0B6FE4FF4802205F1B801A7
:10370800204624F0AFFE8C4A05F17C01204624F0C7
:10371800A9FE8A4A05F1C401204624F0A3FE15E457
:103728008749204626F085FBE0B105F5E0760022C2
:103738003146204624F096FE4FF4003231462046AA
:1037480024F090FE4FF4003205F5E671204624F08F
:1037580089FE4FF4403205F5DA71204624F082FEE6
:10376800FFF7F4BB7749204626F063FBA8B105F5BF
:10377800E07600223146204624F074FE4FF40032F1
:103788003146204624F06EFE4FF4003205F5E6710E
:10379800204624F067FEFFF7D9BB6B49204626F088
:1037A80048FBC8B3002205F16401204624F05AFE04
:1037B800002205F1F401204624F054FE802205F190
:1037C800D001204624F04EFE042205F598712046CB
:1037D80024F048FE082205F59E71204624F042FE9A
:1037E8004FF4803205F14C01204624F03BFE514A4B
:1037F80005F15801204624F035FE544A05F51171AB
:10380800204624F02FFE4FF4002205F514712046BF
:1038180024F028FEFFF79ABB4D49204626F009FB05
:1038280068B1002205F16401204624F01BFE002245
:1038380005F1DC01204624F015FEFFF787BB45495A
:10384800204626F0F6FA38B1002205F51D7120460B
:1038580024F008FEFFF77ABB3F49204626F0E9FA34
:1038680038B1002205F51D71204624F0FBFDFFF755
:103878006DBB3A49204626F0DCFA00287AD00022AF
:1038880005F14001204624F0EDFD95F82830012B84
:1038980046D005F1E8010022204624F0E3FD042289
:1038A80005F59871204624F0DDFD082205F59E7186
:1038B800204624F0D7FD4FF4A02205F170012046E0
:1038C80024F0D0FD264A05F1D001204624F0CAFD97
:1038D8004FF4A02205F1B801204624F0C3FD4FF4AF
:1038E800A02205F54171204624F0BCFD1D4A05F1D2
:1038F800C401204624F0B6FD1B4A05F1AC01204660
:1039080024F0B0FD194A05F18801204624F0AAFDEB
:10391800174A05F1A001204624F0A4FDFFF716BBC5
:1039280005F1F401B7E700BF18940408E49504080A
:10393800C0950408400001000100040020000400B4
:10394800789504082C960408D09304080200060011
:10395800C09C04085C9C0408809C04087C9A0408A9
:103968008000050020000500010005000400050096
:1039780008000500C149204626F05BFA20B1C0497D
:10398800304626F056FAB8B9BE49204626F051FA14
:10399800D8B9BD49204626F04CFA88B3002205F173
:1039A800AC01204624F05EFD002205F54A71204650
:1039B80024F058FDFFF7CABA4FF4802205F17C01C4
:1039C800204624F04FFDFFF7C1BA002205F164013B
:1039D800204624F047FD002205F54471204624F0D6
:1039E80041FD4FF4803205F14C01204624F03AFDA8
:1039F800A64A05F15801204624F034FDFFF7A6BA7F
:103A0800A349204626F015FA28B3002205F1B8018B
:103A1800204624F027FD002205F54771204624F0B2
:103A280021FD042205F17C01204624F01BFD05F54B
:103A38004A7604223146204624F014FD20223146DD
:103A4800204624F00FFD202205F1C401204624F071
:103A580009FDFFF77BBA8F49204626F0EAF968B1DD
:103A6800002205F16401204624F0FCFC002205F543
:103A78002071204624F0F6FCFFF768BA86492046F4
:103A880026F0D7F9A0B1002205F52671204624F0CA
:103A9800E9FC4FF4803205F14C01204624F0E2FCA9
:103AA8007A4A05F15801204624F0DCFCFFF74EBAAB
:103AB8007A49204626F0BDF9A0B1002205F5297102
:103AC800204624F0CFFC4FF4803205F14C0120460B
:103AD80024F0C8FC6D4A05F15801204624F0C2FCC8
:103AE800FFF734BA6E49204626F0A3F9F8B1002250
:103AF80005F52371204624F0B5FC202205F5387120
:103B0800204624F0AFFC05F18806212231462046E4
:103B180024F0A8FC01223146204624F0A3FC04220C
:103B280005F17C01204624F09DFCFFF70FBA5D49A2
:103B3800204626F07EF920B95B49204626F079F91F
:103B480038B1002205F52F71204624F08BFCFFF7D1
:103B5800FDB95649204626F06CF9A0B1002205F5BA
:103B68002C71204624F07EFC4FF4803205F14C0184
:103B7800204624F077FC454A05F15801204624F0F8
:103B880071FCFFF7E3B94A49204626F052F938B1EB
:103B9800002205F53571204624F064FCFFF7D6B9FC
:103BA8004449204626F045F938B1002205F53B7115
:103BB800204624F057FCFFF7C9B93F49204626F0B4
:103BC80038F998B1002205F16401204624F04AFC36
:103BD800002205F1DC01204624F044FC002205F512
:103BE800B071204624F03EFCFFF7B0B933492046B7
:103BF80026F01FF938B1002205F53E71204624F061
:103C080031FCFFF7A3B92E49204626F012F968B116
:103C1800002205F1F401204624F024FC002205F1DD
:103C2800AC01204624F01EFCFFF790B92549204638
:103C380026F0FFF838B1002205F1F401204624F0FF
:103C480011FCFFF783B92049204626F0F2F8002836
:103C58003CD04FF4803205F14C01204624F002FCA0
:103C68000A4A05F15801204624F0FCFB002205F120
:103C7800F401204624F0F6FBFFF768B9E096040843
:103C8800D0930408E8940408A094040840000100B4
:103C9800C4940408E49B0408309B04080C9B0408A3
:103CA8009C9B0408C49A0408E89A0408C09B04086A
:103CB800789B0408549B0408289E0408509D040817
:103CC800049E0408BC9D0408E09D04086C49204635
:103CD80026F0AFF820B96B49204626F0AAF888B339
:103CE800002205F17001204624F0BCFB002205F1FA
:103CF8007C01204624F0B6FB002205F5C27120465F
:103D080024F0B0FB202205F1C401204624F0AAFBD0
:103D1800202205F5C871204624F0A4FB042205F5ED
:103D28009871204624F09EFB012205F1940120465B
:103D380024F098FB802205F1D001204624F092FB64
:103D4800FFF704B95049204626F073F800B3002263
:103D580005F16401204624F085FB002205F1F401F9
:103D6800204624F07FFB042205F59871204624F0B4
:103D780079FB082205F59E71204624F073FB4FF469
:103D8800C02205F17C01204624F06CFBFFF7DEB869
:103D98003E49204626F04DF8A0B1002205F1400129
:103DA800204624F05FFB4FF4803205F14C01204699
:103DB80024F058FB364A05F15801204624F052FBFE
:103DC800FFF7C4B83349204626F033F870B14FF4F2
:103DD800803205F14C01204624F044FB2C4A05F1C1
:103DE8005801204624F03EFBFFF7B0B82A49204688
:103DF80026F01FF868B1002205F14001204624F0A2
:103E080031FB002205F1DC01204624F02BFBFFF7F3
:103E18009DB82249204626F00CF838B1002205F555
:103E2800B071204624F01EFBFFF790B81C492046CD
:103E380025F0FFFF38B1002205F55371204624F024
:103E480011FBFFF783B81749204625F0F2FF002839
:103E58003FF47CA805F5567500222946204624F033
:103E680001FB4FF400322946204624F0FBFA4FF4B8
:103E7800A0222946204624F0F5FAFFF767B800BFCC
:103E8800749D0408989D040854950408089D040826
:103E980040000100E49C0408749604083095040866
:103EA800989604089C95040838B504460D461EF0FB
:103EB800FEFB294620461EF004FC38BD38B50446F2
:103EC8000D461EF0CCFB294620461EF0D2FB38BD1D
:103ED80038B504460D461EF0D6FB294620461EF08E
:103EE800DCFB38BD38B504460D461EF0CCFB294630
:103EF80020461EF0D2FB294620461EF0B0FB29467C
:103F080020461EF0B6FB38BD044BD3F8CC3113B1B4
:103F180093F83C0070470020704700BF3001002034
:103F280010B50446FFF7F0FF18B120461FF0E1FB7B
:103F380010BD20461FF0D7FBFAE700002DE9F04F2F
:103F480093B00446436A13F0010F01F0C083DB48C5
:103F58001EF0DAF984F83000C0F3072384F8313012
:103F6800C0F3074084F83200636A13F0010F01F0D0
:103F7800BE83052112201FF0B1FF84F83300C0F37F
:103F8800072384F83430C0F3074084F83500636AA7
:103F980013F0010F01F0BB83C9481EF0B5F984F88E
:103FA8003600C0F3072384F83730C0F3074084F89D
:103FB8003800636A13F0010F01F0B783C1481EF09F
:103FC800A3F984F83900C0F3072384F83A30C0F322
:103FD800074084F83B0004F5C2794846FFF7A0FF84
:103FE80004F5C8784046FFF79BFF04F55975DFF8DC
:103FF800DCB2DFF8DCA200270197462300935023A8
:104008005A46514628461FF017FC04F55E7601977C
:10401800009750235A46514630461FF00DFC29465A
:1040280048461EF0D7FC314640461EF0D3FC04F14A
:104038004C052846FFF774FF636A13F0010F01F07F
:104048008483022112201FF08BFF8DF80800C0F333
:1040580007238DF80930C0F307408DF80A0002994C
:1040680028461EF038FB47F6FF7128461EF079FCFB
:10407800E16AC1EBC101EF2941F376835031924BDC
:1040880083FB0123C917C1EBA3112846FFF72AFFB9
:10409800E16A01EB8101EF2941F3698350318A4BD1
:1040A80083FB0123C917C1EBA31128461EF09BFA15
:1040B800662128461EF020FB314628461EF08AFC61
:1040C80004F158052846FFF72BFFFF2128461EF06C
:1040D80013FB04F140052846FFF722FFFF2128467D
:1040E8001EF00AFB216B28461EF0F5FA94F83330CF
:1040F80094F8342043EA022394F8351043EA014146
:1041080028461EF0FFFBE16928461EF00CFCE16A18
:1041180094F82830012B01F03083022B01F02A8318
:104128000A2303FB01F1EF2941F32A835031664B3F
:1041380083FB0123C917C1EBA31128461EF0B7FA68
:10414800E16A94F82830012B01F02083022B01F05A
:104158001A830A2303FB01F1EF2941F31A83503133
:10416800594B83FB0123C917C1EBA31128461EF045
:10417800A8FAE16A0029C1F20F83891009022846CA
:104188001EF032FC04F164052846FFF7C9FEE16A17
:1041980094F82830012B01F00283082303FB01F176
:1041A800EF2941F3FF825031474B83FB0123C917A5
:1041B800C1EBA31128461EF0D4FBFF2128461EF0B0
:1041C8009BFAE38E94F8381043EA014128461EF022
:1041D80082FA94F8393094F83A2043EA022394F8A2
:1041E8003B1043EA014128461EF0ABFAE16A772901
:1041F80041F3DB822831344B83FB0123C917C1EB20
:10420800631128461EF0B8FA012128461EF0C8FAA4
:1042180094F8333094F8342043EA022394F83510A4
:1042280043EA014128461EF06DFBE16A94F8283004
:10423800012B01F0C082022B01F0BA82102303FB8C
:1042480001F1EF2941F3BA8250311F4B83FB01235F
:10425800C917C1EBA3112846FFF744FEE16A94F899
:104268002830012B01F0B082022B01F0AA820A2328
:1042780003FB01F1EF2941F3AA825031124B83FB72
:104288000123C917C1EBA31128461EF010FAE16AF1
:1042980094F82830012B01F0A082022B01F09A82B9
:1042A8000A2303FB01F1EF2941F39A825031064BAF
:1042B80083FB0123C917C1EBA3110BE01A171500E3
:1042C800302B280037322F0067666666150C020807
:1042D80084D8030828461EF0F4F912201FF0D0FDF8
:1042E8008DF80C00C0F307238DF80D30C0F307409C
:1042F8008DF80E00039928461EF0CEFAE16AEF29E0
:1043080041F371825031DD4B83FB0123C917C1EBA7
:10431800A31128461EF0B6FA04F598752846FFF74B
:10432800FFFD216928461EF04FFAE16A01EB4101C1
:10433800EF2941F35B825031D04B83FB0123C9172E
:10434800C1EBA31128461EF035FAE16A01EB4101E1
:10435800EF2941F34E825031C84B83FB0123C91723
:10436800C1EBA31128461EF04AFA7F2128461EF009
:104378003CFA04F59E752846FFF7D2FDE37C227DC2
:1043880043EA0223617D43EA014128461EF01CFAF4
:10439800E16A01EB4101EF2941F32E825031B74B1D
:1043A80083FB0123C917C1EBA31128461EF002FAAB
:1043B8007F2128461EF019FA04F170052846FFF7F8
:1043C800AFFDE16A94F82830012B01F01B82022B23
:1043D80001F01582082303FB01F1EF2941F315824F
:1043E8005031A64B83FB0123C917C1EBA311284603
:1043F8001EF0B7FAFF2128461EF07EF994F83930EE
:1044080094F83A2043EA022394F83B1043EA014126
:1044180028461EF060F9636A13F0010F01F0F88175
:1044280094F8333094F8342043EA022394F8351092
:1044380043EA014128461EF065FAE16A94F82830FB
:10444800012B01F05B82022B01F05582102303FB44
:1044580001F1EF2941F355825031884B83FB012349
:10446800C917C1EBA3112846FFF732FDE16A94F89A
:104478002830012B01F04B82022B01F045820A23E0
:1044880003FB01F1EF2941F3458250317B4B83FB5C
:104498000123C917C1EBA3112846FFF70FFDE16AF5
:1044A80001EB8101EF2941F338825031734B83FBD3
:1044B8000123C917C1EBA31128461EF002F9E16ACE
:1044C80001EB8101EF2941F32D8250316B4B83FBC6
:1044D8000123C917C1EBA31128461EF0E8F804F11F
:1044E800C4052846FFF71CFD1DF0A3FF8DF8140036
:1044F800C0F307238DF81530C0F307408DF8160078
:10450800059928461EF041FA232128461EF04EFA46
:1045180004F1D0052846FFF703FD594BD3F8CC31F9
:104528005B6A13F0010F01F00082022112201FF0D4
:1045380017FD8DF81800C0F307238DF81930C0F364
:1045480007408DF81A00069928461EF01EFA7F21AA
:1045580028461EF02BFA04F5B0752846FFF7E0FC54
:10456800012128461EF007FA012128461EF018F9F5
:1045780004F580752846FFF7D3FCE16A94F82830E3
:10458800012B01F0E981022B01F0E381102303FBE9
:1045980001F1EF2941F3E3815031384B83FB0123CB
:1045A800C917C1EBA3112846FFF79CFCE16A94F8F0
:1045B8002830012B01F0D981022B01F0D38110237F
:1045C80003FB01F1EF2941F3D38150312B4B83FBDE
:1045D8000123C917C1EBA31128461EF068F8E16A48
:1045E80094F82830012B01F0C981022B01F0C38116
:1045F800102303FB01F1EF2941F3C38150311F4B15
:1046080083FB0123C917C1EBA31128461EF059F8F3
:1046180004F1F4052846FFF783FCE16A94F8283092
:10462800012B01F0B481022B01F0AE810A2303FBB8
:1046380001F1EF2941F3AE815031104B83FB012387
:10464800C917C1EBA3112846FFF74CFCE16A94F89F
:104658002830012B01F0A481022B01F09E810A234E
:1046680003FB01F1EF2941F39E815031034B83FB9A
:104678000123C917C1EBA31104E000BF6766666692
:10468800300100202846FFF70FFC04F58675284600
:10469800FFF746FCE36A03EB83035B00EF2B41F370
:1046A80085815033D54A82FB0312DB17C3EBA21175
:1046B80028461DF0FCFFE36A03EB83035B00EF2B46
:1046C80041F377815033CD4A82FB0312DB17C3EBEA
:1046D800A21128461DF0F5FF04F58C752846FFF752
:1046E8001FFCE36A03EB83039B00EF2B41F3648118
:1046F8005033C24A82FB0312DB17C3EBA2112846D0
:104708001EF01BF904F592752846FFF709FC0221F3
:1047180028461EF01CF904F1DC052846FFF700FCCA
:1047280000212846FFF7DEFB002128461DF0BFFFC9
:10473800002128461DF0C5FF04F1E8052846FFF7CB
:10474800EFFBE16A94F82830012B01F03B81022B42
:1047580001F03581022303FB01F1EF2941F3358193
:104768005031A64B83FB0123C917C1EBA31128467F
:10477800FFF7B8FBE16A94F82830012B01F02B8190
:10478800022B01F02581022303FB01F1EF2941F3FC
:1047980025815031994B83FB0123C917C1EBA31124
:1047A80028461DF084FFE16A94F82830012B01F0B7
:1047B8001B81022B01F01581022303FB01F1EF2974
:1047C80041F3158150318D4B83FB0123C917C1EB90
:1047D800A31128461DF075FF04F17C052846FFF754
:1047E8009FFB216928461DF076FF1DF001FE8DF81C
:1047F8002000C0F307238DF82130C0F307408DF85F
:104808002200089928461EF07DF8FF2128461DF051
:1048180073FF04F188052846FFF782FB21692846C3
:104828001DF059FF216928461EF06CF833212846EF
:104838001DF062FF04F194052846FFF771FBE37C45
:10484800227D43EA0223617D43EA014128461DF0A7
:1048580042FF1DF0CDFD8DF82400C0F307238DF82D
:104868002530C0F307408DF82600099928461EF028
:1048780049F8FF2128461DF03FFF04F1A00528460E
:10488800FFF74EFBE37C227D43EA0223617D43EA86
:10489800014128461DF01FFFE37C227D43EA0223E5
:1048A800617D43EA014128461EF02CF83321284651
:1048B8001DF022FF04F1AC052846FFF731FB94F800
:1048C800393094F83A2043EA022394F83B1043EA3B
:1048D800014128461DF0FFFEFF2128461DF00CFF70
:1048E80094F8333094F8342043EA022394F83510CE
:1048F80043EA014128461EF005F804F1B8052846A8
:10490800FFF70EFBE38E94F8381043EA014128467E
:104918001DF0E1FEFF2128461DF0EEFE94F833302D
:1049280094F8342043EA022394F8351043EA01410D
:1049380028461DF0E7FF04F5A4752846FFF7F0FAAE
:1049480047F6FF7128461EF00CF804F5AA752846AC
:10495800FFF7E6FA002128461EF003F804F5B675BD
:104968002846FFF7DDFAE16A0029C1F24380891081
:10497800090228461EF038F804F5BC752846FFF7EA
:10498800CFFAE16A01EB4101EF2941F3368050315A
:104998001A4B83FB0123C917C1EBA31128461DF04D
:1049A8004AFEE16A01EB4101EF2941F329805031C8
:1049B800124B83FB0123C917C1EBA31128461DF035
:1049C80044FE04F5DA752846FFF7AAFA2169284655
:1049D8001DF081FEFF2128461DF08EFEE36A03EBE1
:1049E80043035B00EF2B41F30E805033034A82FBF5
:1049F8000312DB17C3EBA21102E000BF676666660D
:104A08002846FFF76FFA47F6FF7128461DF0A9FF01
:104A180004F5CE752846FFF783FAC82128461DF00D
:104A2800CFFF04F5D4752846FFF77AFA782128468F
:104A38001DF0C6FF04F5E0752846FFF771FA94F8F3
:104A4800393094F83A2043EA022394F83B1043EAB9
:104A5800014128461DF045FFE16AC1EB0111EF292C
:104A680040F3D4875031E44B83FB0123C917C1EBD2
:104A7800A31128461DF021FF012128461DF027FF1C
:104A880004F5E6752846FFF74BFA216928461DF01C
:104A980028FF04F5FE752846FFF742FA4FF48271A5
:104AA80028461DF0B4FD04F502752846FFF738FACC
:104AB800E16A01EB4101EF2940F3AB875031CE4B5E
:104AC80083FB0123C917C1EBA3112846FFF70AFA94
:104AD800E16A772940F3A0872831C74B83FB01237C
:104AE800C917C1EB631128461DF046FE2169284607
:104AF8001DF027FEE38E94F8381043EA014128465A
:104B08001DF0E9FDFF2128461DF0F6FDE16A94F845
:104B18002830012B00F08387082303FB01F1EF29DC
:104B280040F380875031B44B83FB0123C917C1EB95
:104B3800E31128461DF015FFA16928461DF0F3FE74
:104B48001DF056FC8DF82800C0F307238DF8293096
:104B5800C0F307408DF82A000A9928461DF0D2FEB6
:104B680004F505752846FFF7DBF9A44928461DF02A
:104B7800DEFD04F508752846FFF7D2F9E16A3B29FE
:104B880040F3538714319C4B83FB0123C917A1EBD6
:104B980023112846FFF7A6F91DF02AFC8DF82C00F2
:104BA800C0F307238DF82D30C0F307408DF82E0091
:104BB8000B9928461DF08FFD04F50B752846FFF765
:104BC800AFF9012128461DF05DFE94F8333094F8C2
:104BD800342043EA022394F8351043EA0141284679
:104BE8001DF05AFE04F5F8752846FFF799F90021DB
:104BF80028461DF0D5FDE36A03EB83035B00EF2B2A
:104C080040F3178750337C4A82FB0312DB17C3EB50
:104C1800A21128461DF055FD94F8393094F83A2031
:104C280043EA022394F83B1043EA014128461DF069
:104C380033FE04F5EC763046FFF772F9E16A01EBD2
:104C48004101EF2940F3F88650316B4B83FB012378
:104C5800C917C1EBA31130461DF014FEE16A01EB40
:104C68004101EF2940F3EB865031634B83FB01236D
:104C7800C917C1EBA31130461DF073FEE56A1D2D5F
:104C880040F3E0860A355C4B83FB0523ED17C5EB43
:104C9800E305294630461DF0A6FC294630461DF09E
:104CA800ACFCE16A772940F3D0862831524B83FB6C
:104CB8000123C917C1EB631130461DF002FD04F54D
:104CC800F2763046FFF72CF947F6FF7130461DF0B3
:104CD80048FE294630461DF086FC294630461DF020
:104CE8008CFC216930461DF0F6FCFF2130461DF092
:104CF80003FD04F520752846FFF712F90021284620
:104D0800FFF7F0F800212846FFF7CEF800212846E3
:104D18001DF027FE012128461DF02DFE0021284602
:104D28001DF034FD04F535752846FFF7F9F8E16AFA
:104D380094F82830012B00F08B86082303FB01F13F
:104D4800EF2940F3888650312B4B83FB0123C91789
:104D5800C1EBA31128461DF004FE012128461DF0D1
:104D68000AFEFF2128461DF0C7FCE38E94F8381090
:104D780043EA014128461DF0AEFC94F8333094F81C
:104D8800342043EA022394F8351043EA01412846C7
:104D98001DF0B8FD04F523752846FFF7C1F8E16A50
:104DA80094F82830012B00F05C86022B00F0568620
:104DB8000A2303FB01F1EF2940F3568650310E4BCD
:104DC80083FB0123C917C1EBA3112846FFF780F81D
:104DD800E16A94F82830012B00F04C86022B00F091
:104DE80046860A2303FB01F1EF2940F3468650313A
:104DF800014B83FB012303E06766666638D003082E
:104E0800C917C1EBA3112846FFF758F8E16A94F8CF
:104E18002830012B00F03786022B00F031860A2358
:104E280003FB01F1EF2940F331865031E04B83FB5E
:104E38000123C917C1EBA3112846FFF735F8E16A2A
:104E4800EF2940F326865031D94B83FB0123C9173C
:104E5800C1EBA31128461DF08FFC192128461DF02F
:104E680081FC94F8333094F8342043EA022394F810
:104E7800351043EA014128461DF063FC002128460D
:104E88001DF084FC04F526752846FFF749F8002133
:104E98002846FFF727F800212846FFF705F8E16ABA
:104EA800EF2940F3F9855031C14B83FB0123C91722
:104EB800C1EBA31128461DF05FFC192128461DF0FF
:104EC80051FC94F8333094F8342043EA022394F8E0
:104ED800351043EA014128461DF033FC08212846D5
:104EE8001DF054FC04F529752846FFF719F8002130
:104EF8002846FEF7F7FF00212846FEF7D5FF04F500
:104F08002F752846FFF70CF8E16A94F82830012B32
:104F180000F0C885022B00F0C2850A2303FB01F1CB
:104F2800EF2940F3C2855031A14B83FB0123C917F8
:104F3800C1EBA3112846FEF7CBFFE16A94F82830AD
:104F4800012B00F0B885022B00F0B285022303FB89
:104F580001F1EF2940F3B2855031954B83FB0123D2
:104F6800C917C1EBA3112846FEF7A8FFE16A94F818
:104F78002830012B00F0A885022B00F0A2850A2317
:104F880003FB01F1EF2940F3A2855031884B83FBE5
:104F98000123C917C1EBA3112846FEF785FF04F5C5
:104FA80032752846FEF7BCFFE16A94F82830012BD9
:104FB80000F09385022B00F08D85022303FB01F19D
:104FC800EF2940F38D855031794B83FB0123C917B5
:104FD800C1EBA3112846FEF77BFFE16A94F828305D
:104FE800012B00F08385022B00F07D85022303FB53
:104FF80001F1EF2940F37D8550316D4B83FB01238F
:10500800C917C1EBA3112846FEF758FF002128460F
:105018001DF02EFC002128461DF06EFB94F833305D
:1050280094F8342043EA022394F8351043EA014106
:1050380028461DF067FC04F52C752846FEF770FF1E
:1050480000212846FEF744FF00212846FEF72CFFE2
:1050580004F538752846FEF763FF332128461DF00E
:105068004BFB12201EF00CFF8DF83000C0F3072315
:105078008DF83130C0F307408DF832000C9928467E
:105088001DF029FB04F53B752846FEF749FF002172
:1050980028461DF031FBE16A94F82830012B00F016
:1050A8002E85022B00F02885022303FB01F1EF294E
:1050B80040F3288550313E4B83FB0123C917C1EBD0
:1050C800A3112846FEF7FAFE04F50E752846FEF7EA
:1050D80027FFE16AEF2940F318855031344B83FBF1
:1050E8000123C917C1EBA31128461DF045FB94F80D
:1050F800393094F83A2043EA022394F83B1043EA03
:10510800014128461DF01DFB032128461DF03EFBEA
:1051180004F511752846FEF703FF94F8333094F828
:10512800342043EA022394F8351043EA0141284623
:105138001DF007FBE16A772940F3EA8428311C4B0C
:1051480083FB0123C917C1EB631128461DF014FB2B
:10515800E16AEF2940F3DF845031154B83FB0123CB
:10516800C917A1EBA31128461DF08DFA0421284682
:105178001DF00CFB4FF4C87128461DF021FC04F506
:1051880014752846FEF7CCFE636A13F0010F00F091
:10519800C684022112201EF0E3FE8DF83400C0F30D
:1051A80007238DF83530C0F307408DF8360001E04D
:1051B800676666660D9928461DF0A4FB04F5177509
:1051C8002846FEF7ADFEE16A94F82830012B00F07E
:1051D800B984022B00F0B3840A2303FB01F1EF2901
:1051E80040F3B3845031D74B83FB0123C917C1EB7C
:1051F800A3112846FEF776FEE16A94F82830012BC1
:1052080000F0A984022B00F0A3840A2303FB01F118
:10521800EF2940F3A3845031CA4B83FB0123C917FC
:10522800C1EBE3112846FEF73FFE04F51A75284640
:10523800FEF776FEE16AEF2940F393845031C14BC3
:1052480083FB0123C917C1EBA31128461DF094FA6B
:1052580094F8393094F83A2043EA022394F83B1042
:1052680043EA014128461DF06CFAE38E94F83810A1
:1052780043EA014128461DF02EFA332128461DF045
:105288003BFA04F51D752846FEF74AFEE16A94F8D4
:105298002830012B00F06B84022B00F065840A2370
:1052A80003FB01F1EF2940F365845031A54B83FBE3
:1052B8000123C917C1EBA3112846FEF709FEE16ACD
:1052C80094F82830012B00F05B84022B00F0558401
:1052D8000A2303FB01F1EF2940F355845031994B20
:1052E80083FB0123C917C1EBA31128461DF0B7F9A9
:1052F800E16A94F82830012B00F04B84022B00F06F
:105308004584022303FB01F1EF2940F34584503122
:105318008C4B83FB0123C917C1EBA31128461DF051
:10532800A8F9E16A94F82830012B00F03B84022B9D
:1053380000F035840A2303FB01F1EF2940F335849B
:105348005031804B83FB0123C917C1EBA3112846B9
:10535800FEF7AAFD04F53E752846FEF7E1FD12208A
:105368001EF08EFD8DF83800C0F307238DF8393014
:10537800C0F307408DF83A000E9928461DF0ABF9A6
:105388007F2128461DF0B8F904F541752846FEF737
:10539800C7FD002128461DF03CFA94F82830032B5D
:1053A80000F00684E16A012B00F01584082303FB52
:1053B80001F1EF2940F315845031624B83FB01233F
:1053C800C917C1EBA31128461DF0CBFA04F5507597
:1053D8002846FEF7A5FD216928461DF0B2F9E36AC3
:1053E800772B40F301842833564A82FB0312D917DE
:1053F800C1EB6211490028461DF0BEF9012128467B
:105408001DF0C4F9E36A772B40F3F08328334D4A43
:1054180082FB0312D917C1EB6211490028461DF01F
:105428001EF904F54D752846FEF77AFDE16A7729DD
:1054380040F3DE832831434B83FB0123C917A1EBDB
:10544800631128461DF0DBF904F544752846FEF77C
:1054580067FDE16A94F82830012B00F0CE83022B17
:1054680000F0C983102303FB01F1EF2940F3C78340
:105478005031344B83FB0123C917C1EBA3112846D4
:10548800FEF726FD00212846FEF718FD00212846D4
:10549800FEF70AFD012128461DF06DFA04F547754F
:1054A8002846FEF73DFDE16AEF2940F3AA83503113
:1054B800244B83FB0123C917C1EBA31128461DF018
:1054C8005BF994F8393094F83A2043EA022394F8C7
:1054D8003B1043EA014128461DF033F901212846D3
:1054E8001DF054F9E16A94F82830012B00F08D83FF
:1054F800022B00F088830A2303FB01F1EF2940F314
:10550800868350310F4B83FB0123C917C1EBA311CD
:105518002846FEF7E7FCE16A94F82830012B00F0F2
:105528007A83022B00F075830A2303FB01F1EF292C
:1055380040F373835031034B83FB0123C917C1EB3D
:10554800A31101E06766666628461DF0BAF804F5FF
:105558004A752846FEF7E4FCE16A94F82830012BE6
:1055680000F05F83022B00F05A83102303FB01F144
:10557800EF2940F358835031E94B83FB0123C917C6
:10558800C1EBA31128461DF056F804F553752846BB
:10559800FEF7C6FCFF2128461DF0AEF81CF028FFD8
:1055A8008DF83C00C0F307238DF83D30C0F3074069
:1055B8008DF83E000F9928461DF08DF812201EF038
:1055C8005FFC8DF84000C0F307238DF84130C0F32D
:1055D80007408DF84200109928461DF097F847F6C5
:1055E800FF7128461DF0BDF9E16AC1EB0111EF29F1
:1055F80040F31B835031CA4B83FB0123C917C1EB0E
:10560800A31128461DF005F91CF0F2FE8DF84400A0
:10561800C0F307238DF84530C0F307408DF84600E6
:10562800119928461DF013F9E16A01EB8101EF2970
:1056380040F3FD825031BA4B83FB0123C917C1EBFC
:10564800A31128461DF0F9F804F556752846FEF70B
:1056580067FC94F8333094F8342043EA022394F832
:10566800351043EA014128461DF016F9002036F0AE
:1056780031FE772800F3DD82012128461DF002F96A
:1056880094F8333094F8342043EA022394F8351020
:1056980043EA014128461DF024F9002036F01AFE9D
:1056A800772800F3D182012128461DF006F9002051
:1056B80036F010FE00EB40004000EF2800F3CF82E8
:1056C800012128461CF0ADFF13B0BDE8F08F04217E
:1056D80012201EF003FC84F83000C0F3072384F87E
:1056E8003130C0F3074084F83200FEF73DBC042196
:1056F80012201EF035FC84F83300C0F3072384F829
:105708003430C0F3074084F83500FEF740BC1CF085
:105718006FFE84F83600C0F3072384F83730C0F3EF
:10572800074084F83800FEF744BC022112201EF01E
:10573800D5FB84F83900C0F3072384F83A30C0F366
:10574800074084F83B00FEF746BC12201EF098FB89
:105758008DF80800C0F307238DF80930C0F307401F
:105768008DF80A00FEF77BBC0121FEF78EBC0121F3
:10577800FEF79BBC0C23FEF7D4BC0E23FEF7D1BC6E
:105788000121FEF7DABC0C23FEF7E4BC0E23FEF77A
:10579800E1BC0121FEF7EABC0331FEF7EEBC0C23A5
:1057A800FEF7FCBC0121FEF705BD0121FEF729BD6E
:1057B8001423FEF744BD1823FEF741BD0121FEF76F
:1057C8004ABD0C23FEF754BD0E23FEF751BD01213F
:1057D800FEF75ABD0C23FEF764BD0E23FEF761BD2C
:1057E8000121FEF777BD0121FEF793BD0121FEF7E8
:1057F800A9BD0121FEF7B6BD0121FEF7D6BD0C23D8
:10580800FEF7E9BD1023FEF7E6BD0121FEF7EFBD67
:1058180012201EF035FB8DF81000C0F307238DF819
:105828001130C0F307408DF81200049928461DF086
:105838000EF8002036F04EFD00EB4000EF2823DC88
:10584800012128461CF0E5FF7F2128461DF010F8AD
:10585800002036F03FFD3B2805DD002036F03AFDFC
:105868003B304E2845D9E66A002036F033FD3B2808
:1058780018DC012303FB06F6EF2E1EDC0121284667
:105888001CF0D1FFFEF7CCBD002036F023FD00EB65
:10589800400000F15001224B83FB0123C917C1EBE3
:1058A800A311CEE7002036F015FD14301C4B83FB06
:1058B8000023C017C0EB2313DCE7E66A002036F0AC
:1058C80009FD3B280ADC012303FB06F15031144B88
:1058D80083FB0123C917C1EBA311D0E7002036F0E1
:1058E800F9FC14300E4A82FB0032C317C3EB2213B3
:1058F800EAE70021C3E71423FEF7A9BD1823FEF742
:10590800A6BD0121FEF7AFBD0C23FEF7B9BD0E23DE
:10591800FEF7B6BD0121FEF7BFBD0121FEF7CCBDE4
:10592800676666660121FEF7D7BD022112201EF0C8
:10593800D5FA8DF81C00C0F307238DF81D30C0F38D
:1059480007408DF81E00079928461DF01EF8FEF73F
:10595800FEBD1423FEF71BBE1823FEF718BE012157
:10596800FEF721BE1423FEF72BBE1823FEF728BE30
:105978000121FEF731BE1423FEF73BBE1823FEF7C4
:1059880038BE0121FEF741BE0C23FEF750BE0E23A0
:10599800FEF74DBE0121FEF756BE0C23FEF760BE92
:1059A8000E23FEF75DBE0121FEF76CBE0121FEF756
:1059B8007FBE0121FEF78DBE0121FEF7A0BE0623A2
:1059C800FEF7C9BE0823FEF7C6BE0121FEF7CFBE0B
:1059D8000623FEF7D9BE0823FEF7D6BE0121FEF73F
:1059E800DFBE0623FEF7E9BE0823FEF7E6BE012167
:1059F800FEF7EFBE0331FEF7BABF0121FEF7CEBFB7
:105A08000121FEF7DBBF0121FEF7FABF0121FFF7F5
:105A180030B80121FFF759B80121FFF764B80C230A
:105A2800FFF77BB80021FFF784B84FF0FF31FFF78D
:105A3800B0B80121FFF7EDB80121FFF70CB901213A
:105A4800FFF719B90125FFF724B90121FFF734B988
:105A58000C23FFF773B90121FFF77CB90C23FFF77B
:105A6800A8B90E23FFF7A5B90121FFF7AEB90C239A
:105A7800FFF7B8B90E23FFF7B5B90121FFF7C3B98E
:105A88000C23FFF7CDB90E23FFF7CAB90121FFF7A1
:105A9800D3B90121FFF7DEB90121FFF70BBA0C23B7
:105AA800FFF73CBA0E23FFF739BA0121FFF742BAD4
:105AB8000623FFF74CBA0823FFF749BA0121FFF77D
:105AC80052BA0C23FFF75CBA0E23FFF759BA01212B
