:020000040810E2
:100000000080041071081008490310084B03100801
:100010004D0310084F0310085103100800000000A2
:100020000000000000000000000000005303100862
:10003000550310080000000057031008590310086A
:10004000C5081008C5081008C5081008C50810081C
:10005000C5081008C5081008C5081008C50810080C
:10006000C5081008C5081008C5081008C5081008FC
:10007000C5081008C5081008C5081008C5081008EC
:10008000C5081008C5081008C5081008C5081008DC
:10009000C5081008C5081008C5081008C5081008CC
:1000A000C5081008C5081008C5081008C5081008BC
:1000B000C5081008C5081008C5081008C5081008AC
:1000C000C5081008C5081008C5081008C50810089C
:1000D000C5081008C5081008C5081008C50810088C
:1000E000C5081008C508100800000000C508100861
:1000F000C5081008C5081008C5081008C50810086C
:10010000C5081008C5081008C5081008C50810085B
:10011000C5081008C5081008C5081008C50810084B
:10012000C5081008C5081008C5081008C50810083B
:10013000C5081008C5081008C5081008C50810082B
:10014000C5081008C50810080000000000000000E5
:10015000C5081008C5081008C5081008C50810080B
:10016000C5081008C5081008C5081008C5081008FB
:10017000C5081008C5081008C5081008C5081008EB
:10018000C5081008C5081008C5081008C5081008DB
:10019000C5081008C5081008C5081008C5081008CB
:1001A000C5081008C5081008C5081008C5081008BB
:1001B000C5081008C5081008C5081008C5081008AB
:1001C000C5081008C5081008C5081008C50810089B
:1001D000C5081008C5081008C5081008C50810088B
:1001E000C5081008C5081008C5081008C50810087B
:1001F000C5081008C5081008C5081008C50810086B
:10020000C5081008C5081008C5081008C50810085A
:10021000C5081008C5081008C5081008C50810084A
:10022000C5081008C5081008C5081008000000001F
:10023000C5081008C5081008C5081008C50810082A
:10024000C5081008C5081008C5081008C50810081A
:10025000C5081008C5081008C5081008C50810080A
:10026000C5081008C5081008C5081008C5081008FA
:10027000C5081008C5081008C5081008C5081008EA
:10028000C5081008C5081008C508100800000000BF
:08029000C5081008C50810089C
:1002980010B5054C237833B9044B13B10448AFF3B8
:1002A80000800123237010BD100000100000000022
:1002B8001009100808B5034B1BB103490348AFF3F5
:1002C800008008BD0000000014000010100910088C
:1002D80000B583B0174BD3F8E02042F00072C3F8A2
:1002E800E020D3F8E03003F000730193019B012074
:1002F80000F0B4F900F012FA01220221002000F007
:10030800B5F90D4B1B6803F0F003702B09D00B4AAD
:10031800D2F8143143F00103C2F8143100F030FA76
:10032800FEE7064AD2F8043143F00103C2F804316B
:10033800F4E700BF0044025800ED00E000640258F2
:10034800FEE7FEE7FEE7FEE7FEE770477047704707
:1003580008B500F061FA08BD82B0074BD3F8F42065
:1003680042F00202C3F8F420D3F8F43003F0020399
:100378000193019B02B0704700440258002804DB37
:100388000901C9B2044B1954704700F00F00090164
:10039800C9B2024B1954704700E400E014ED00E0C4
:1003A80000B500F00700C0F1070CBCF1040F28BF2E
:1003B8004FF0040C031D062B0FD9C31E4FF0FF3E50
:1003C8000EFA0CF021EA000199400EFA03FE22EA27
:1003D8000E0241EA02005DF804FB0023EEE700008C
:1003E8000649CB6823F4E0631B041B0C000200F4ED
:1003F800E0600343024A1A43CA60704700ED00E018
:100408000000FA0510B50446054BD868C0F3022071
:10041800FFF7C6FF01462046FFF7B0FF10BD00BF3B
:1004280000ED00E00138B0F1807F0BD24FF0E023FF
:100438005861054AF02182F82310002098610722AC
:100448001A6170470120704700ED00E0044B1B68FB
:1004580003F0F003702B01D0012070470320704790
:1004680000ED00E0754B1B6903F03803102B00F01A
:10047800DE80182B0FD0002B40F0DB806F4B1B6801
:1004880013F0200F00F0D7806C4B1B68C3F3C10337
:100498006B48D840704710B4684B9A6A02F0030260
:1004A8009C6AC4F30510D96A01F001015B6BC3F3C0
:1004B800CC0301FB03F307EE903AF8EE677A14F4E5
:1004C8007C7F77D0012A4AD0022A76D0002A40F0D1
:1004D80091805A4B1B6813F0200F23D057490A68A4
:1004E800C2F3C102564BD34007EE103AF8EE476A02
:1004F80007EE100AB8EE476A86EE867A0B6BC3F3EE
:10050800080306EE903AF8EE666A9FED4E6A67EECB
:10051800867A76EEA77AF7EE006A77EEA67A27EE65
:10052800277A38E007EE100AF8EE476A9FED466A28
:1005380086EE267A414B1B6BC3F3080306EE903A0E
:10054800F8EE666A9FED3F6A67EE867A76EEA77ADE
:10055800F7EE006A77EEA67A27EE277A1BE007EE19
:10056800100AF8EE476A9FED396A86EE267A334B11
:100578001B6BC3F3080306EE903AF8EE666A9FED2C
:10058800316A67EE867A76EEA77AF7EE006A77EE3A
:10059800A67A27EE277A294B1B6BC3F34623013330
:1005A80007EE903AF8EE677AC7EE276AFCEEE67A2D
:1005B80017EE900A5DF8044B704707EE100AF8EE44
:1005C800476A9FED236A86EE267A1C4B1B6BC3F3A2
:1005D800080306EE903AF8EE666A9FED1A6A67EE2F
:1005E800867A76EEA77AF7EE006A77EEA67A27EE95
:1005F800277AD0E707EE100AF8EE476A9FED136AEC
:1006080086EE267A0D4B1B6BC3F3080306EE903A71
:10061800F8EE666A9FED0B6A67EE867A76EEA77A41
:10062800F7EE006A77EEA67A27EE277AB3E709484D
:100638007047094870470248704700BF0044025895
:100648000090D003000000390024744C0024744A40
:1006580020BCBE4B40787D0100093D00024A136969
:1006680003431361704700BF0065025838B50D4653
:10067800284C236823F00103034323605AB1012A5D
:1006880025D0FFF7E3FE03283ED0224A536923F022
:100698000403536138BDFFF7D9FE0328FAD1236953
:1006A80023F0010323611C4A136943F00403136117
:1006B800BFF34F8FBFF36F8F012D06D020BF164AAF
:1006C800136923F004031361E4E730BFF7E7FFF78A
:1006D800BDFE0128DED10F4A536923F0020353619E
:1006E8000D4A136943F004031361BFF34F8FBFF33F
:1006F8006F8F012D06D020BF074A136923F004032A
:100708001361C7E730BFF7E7024A136923F0040310
:100718001361BFE70048025800ED00E008B5FFF795
:1007280095FE032802D040BF20BF08BD20BFFCE7CC
:10073800104B1B780BB90120704710B504464FF4D5
:100748007A70B0FBF3F30C4A1068B0FBF3F0FFF7D4
:1007580069FE68B90F2C01D901200AE00022214660
:100768004FF0FF30FFF74EFE044B1C60002000E006
:10077800012010BD000000100C0000100400001043
:1007880010B582B01F4CD4F8D83043F48043C4F875
:10079800D830D4F8D83003F480430193019B1A4A27
:1007A800D2F800346FF3132343F40143C2F8003442
:1007B800D2F8003443F00103C2F800340320FFF7F5
:1007C8000FFEFFF74FFEA369C3F303230F4AD35C61
:1007D80003F01F03D840A36903F00F03D35C03F0B1
:1007E8001F03D8400A4B18600A4B18600020FFF717
:1007F8009FFF18B10124204602B010BD0446FFF740
:10080800ABFDF8E7004402580040024028091008F0
:10081800080000100C000010034B1B78034A1168F5
:100828000B441360704700BF000000102C0000103C
:10083800054BD3F8882042F47002C3F888201A695F
:1008480042F010021A61704700ED00E0054AD368D3
:1008580023F00203D360034B5B6813F4005FFAD004
:10086800704700BF00480258DFF838D0FFF7EEFFA6
:10087800FFF7DEFF0C480D490D4A002302E0D4586B
:10088800C4500433C4188C42F9D30A4A0A4C0023D2
:1008980001E013600432A242FBD300F011F8FFF725
:1008A80017FD7047008004100000001010000010B1
:1008B800400910081000001030000010FEE700008A
:1008C80070B50D4B0D4D5B1B9C100026A64209D13F
:1008D80000F01AF80A4D0B4B5B1B9C100026A64231
:1008E80005D170BD55F8043B98470136EEE755F839
:1008F800043B98470136F2E7380910083809100810
:10090800380910083C091008F8B500BFF8BC08BC45
:100918009E467047F8B500BFF8BC08BC9E467047B5
:10092800000000000102030401020304060708098D
:04093800BD021008E4
:04093C009902100804
:1009400001000000100000000090D0030090D003D0
:040000050810087166
:00000001FF
